:1000000001000000000000A0000200000AB6BD1BB5
:100010001CF09FE51CF09FE51CF09FE51CF09FE5A0
:100020001CF09FE51CF09FE51CF09FE51CF09FE590
:10003000041C0F70102200005821000068210000ED
:10004000C0210000D0210000E0210000F0210000CC
:10005000FC210000000000EA3A0700EA28008FE2D5
:10006000000C90E800A08AE000B08BE001704AE24A
:100070000B005AE13307000A0F00BAE814E04FE220
:10008000010013E303F0471013FF2FE1F4F5020022
:1000900034F602000030A0E30040A0E30050A0E3EB
:1000A0000060A0E3102052E27800A128FCFFFF8A44
:1000B000822EB0E13000A128003081451EFF2FE1E3
:1000C00004309FE503308FE013FF2FE13D1F000058
:1000D0001D48802110B502F0A6E91C48582102F005
:1000E000A2E91B4800210A0006C020211748583009
:1000F00002F098E9002010BDF0B50024144F083735
:10010000012609E0C51968682BF0FEFE6968300019
:10011000884010498860641CE00039580029F1D1FA
:100120000B4F0024283709E0C51968682BF0ECFE56
:1001300069683000884008498860641CE0003958CC
:100140000029F1D10020F0BDE0F70200D80400043E
:1001500008000004009000A8009100A85348042261
:100160000621027041700272417270474F48F8B523
:1001700000241838046000F0F4F903F067FB4C49E0
:100180000D5C0EF095FC290002F050E9494E230069
:10019000320002F050E9401C614105042D0C03F0CF
:1001A00055FB454940000F5A13F06CFB390002F033
:1001B0003EE92300320002F03EE9401C61410004A8
:1001C000000C290000F0DCF903F040FB3B490D5C1A
:1001D0000EF06EFC290002F02AE92300320002F042
:1001E0002AE9401C614105042D0C03F02FFB344922
:1001F0000F5C0EF05DFC390002F018E923003200BC
:1002000002F018E9401C61410004000C00563C213A
:1002100001000000FC0100A000020000CE6362307B
:10022000290000F0CEF9082000F0BAF90EF04AFCDF
:10023000310002F00EE9401C0004000C00F0B9F996
:100240000EF040FC052102F0FCE8234A230002F0F6
:10025000FCE81922801861410006000E00F0B7F991
:10026000601E11F055FDFF24641C200012F060FB9D
:10027000200012F065FB11F007FD11F029FD402070
:1002800015F0DEF900F0D6F900F0C2F90C200EF0FE
:1002900071FCC0200EF06EFC12F0DAFA12F0FCFADB
:1002A00012F01CFB12F0ECFA30200EF063FC03207D
:1002B00000020EF05FFCFFF75BFF00F0A3F8F8BD53
:1002C000C80900B0FCDB020040420F00E6DB020080
:1002D00012DC020007DC0200C0C62D0010402DE930
:1002E0006C1400FA78409FE5000094E5000050E3AC
:1002F0000300000A010100FA000094E5000050E349
:10030000C24D001BA90100FA0000A0E3BA4A00FA9E
:10031000320100FA0000A0E3F20000FBF20000FA54
:10032000000094E5000050E3E300001B500100FBD7
:10033000820100FB000094E5000050E30100000A88
:100340004E0100FA294C00FA4B0100FA00000FE1BF
:10035000BF0000E200F021E1BE5400FA0000A0E37B
:100360001080BDE82C1700B010B500F00FFC02F0B3
:1003700074E812F0BFFF00F0E3FB002801D0012079
:1003800010BD14F053FA002010BD10B5FFF7F8FEB1
:1003900001F056FE0400012011F082FB200001F064
:1003A00053FE002010BD10B514F0B6F810BD30B5E6
:1003B0009408002203E09300CD58521CC550A2427D
:1003C000F9D330BD9308002210B502E09400521C0E
:1003D00001519A42FAD310BD4B2209481202002162
:1003E00010B5FFF7EFFF03220B2052020021000798
:1003F000FFF7E8FF00F051FA00F068F8002010BDA8
:10040000605E000470470000084810B50168084BA2
:100410000A000C3108001960111D596087F06E95B3
:1004200001000000F80300A0000200003A8BDC8D00
:10043000202102F00CE80449022014F0D7F910BD85
:10044000087900B00C0A00B03D0C0100F8B500249A
:1004500025001C48A70014266643C5511A481421DC
:10046000301801F0F4EF184814211430301801F05E
:10047000EEEF154814212830301801F0E8EF11484C
:1004800030222838C159104862433C301018C460EB
:100490008160456185610D49C56101610C49016259
:1004A0000C498562416201F0E6EF641C012CD0DB4F
:1004B000094908202BF03CFD0849FF20401C8860BA
:1004C000F8BD00009C1700B06CAD00B091CD0200EB
:1004D00075CE020049CA0200F5CB0200009000A8C8
:1004E0000F490E4810B508600F490E4808601049C2
:1004F0000E48086010490F48086011490F4808600D
:100500001048802101F0A2EF0E488021803001F0D8
:100510009EEF0D48802101F09AEF10BD691B01008C
:100520008CA90004591B010090A90004BD1A010008
:1005300094A900044054890084A90004A086010005
:1005400088A900047C7D00B07C7E00B010B5084C0A
:1005500000206062DF200002E0620648A062012104
:100560000548490201F072EF01206062002010BDD1
:10057000C09B00A800ADDEEFFC7E00B05248406892
:10058000C168524A1143C160704700B5FFF7F6FFDA
:100590004D48406841680122520211434160416860
:1005A000D2001143416000BD090401434648406840
:1005B0008161704744494968CA681204120C0004FA
:1005C0000243CA607047404949684A69120C1204E4
:1005D00002434A617047090401433B484068C163D4
:1005E0007047394949684A68120A120202434A6050
:1005F00070473548406801690122120411430161C6
:10060000704731484068C0300168402211430160A2
:10061000704770472C484068C0304168372211430A
:100620004160704728484068FF3041301182CC88D3
:1006300001000000F40500A000020000237302FD89
:1006400041681D2291434160704724484068FF3053
:10065000413041681D221143416070471F48406886
:10066000FF304130416802229143416070471B488E
:100670004068FF30413041680222114341607047B9
:1006800016484068803041680622914341607047B7
:10069000124840688030416806221143416070472B
:1006A0000E4A52688032536A09011B0F1B07090961
:1006B0000B435362116A4003C90CC904400B014348
:1006C000116210681F21090488430121090540189F
:1006D000106010684900084310607047140A00B0A9
:1006E0008F0300008DC08FE21CFF2FE10121092044
:1006F00000070160002141607047744801210160DA
:100700000021416070477248016B802211430163F0
:10071000704770476F4800B50068002801D0FFF7A8
:10072000F2FFFFF7EAFF00BD10B56B4C04F084FF49
:10073000A04220D069496A4B084099690F22D2052E
:100740009143020752090A439A61654B4033196885
:100750003022914302400A431A60000A4107614A6D
:10076000490F0429117001DD04211170000702D521
:1007700010784042107010BDFF2310B5C133202403
:1007800003F082F8052803D003F07EF8012801D198
:1007900001235B022100180011F0BDF910BD10B556
:1007A000514C207900280BD1012020712DF0C4F884
:1007B000062012F065FCC006C00F60712DF00CF829
:1007C000607910BD70B50600FFF7E9FF444D803D2C
:1007D0002C0D002811D02DF0AFF88021262012F02A
:1007E0005BFC2CF0F9FFA8682043A8603F488168B3
:1007F000220211438160002003E0A868A043A860A2
:10080000300012F02CFB70BD70B512F07BFB12F0C3
:1008100097FC10F069FC7D24E4010021200012F017
:100820009BFC0021200012F09DFC0021200012F012
:1008300035FD0021200012F037FD2D4C08FB7042E1
:1008400001000000F00700A000020000D79BBC40A0
:100850000221200012F090FC0221200012F02EFD57
:10086000214D294C2868002804D020680121C905A1
:10087000884320606068254908406060E06817216F
:1008800049020843E06012F01FFD2168C2062048BB
:1008900001D5014300E08143626862602160216804
:1008A000014321602868002802D0B520FFF794FF9B
:1008B00070BD7047704770477047704710B513F0B0
:1008C0000FF80E4C002802D013F014F801E013F0DA
:1008D00023F8E06010BD10490E4808607047000022
:1008E000003000A8400C00902C1700B0FFFF000063
:1008F0003F0F000000290080140A00B0100B00B068
:1009000040230080409C000000210080FF7FFF7F8B
:10091000000000209D1B0100940C00B0F8B5304889
:1009200000680002000F082828D12E4C6069E504F9
:1009300028436061606940004008606120680826C3
:10094000304320602068EF12B843206048214520E2
:1009500012F0C8FB0421482012F0C4FB2068304389
:100960002060206838432060322011F047F9606928
:10097000284360616069210508436061F8BD1A4839
:1009800010B5006800282AD02CF0E0FFFFF7C6FF62
:100990002021192012F08AFB0221162012F086FB7A
:1009A0003721332012F09EFB9421242012F09AFB71
:1009B000262012F06FFB8008800002210843010608
:1009C000090E262012F08EFB6621412012F08AFBD0
:1009D0002CF00CFF12F022FA642011F00FF910BD78
:1009E00000200080002800802C1700B0F8B5594C7A
:1009F000594D2068002804D0E8172860686012F07C
:100A000087F85648016A490049080162544807219D
:100A10000161052141610621816152490020886000
:100A20000B205149000701221204036880188842F4
:100A3000FBD30020016880189042FBD30120800680
:100A400000684448006800287ED02CF040F16A7DA0
:100A500001000000EC0900A0000200001082BE1D91
:100A60007FFF2CF0CDFE4148416B020D11434163E5
:100A700001686F2291430160C16889098901C160E1
:100A80003F48416A7022914341628169914381618B
:100A9000816A020C1143816212F020FC040080077D
:100AA0000DD53848C168090109D5C1680F22120562
:100AB0009143C160C168072292051143C160304D66
:100AC0000326314F2107803D36020F20002922DA0C
:100AD000610610D4A00712D4386802218843386018
:100AE0002869B043286128698843286128690D2155
:100AF000084328611FE0A10701D4610612D514F054
:100B0000BFFD212817D328693043286138680A219E
:100B1000884338600FE0610601D4A10702D5296936
:100B2000314304E02969B1432961296901432961FD
:100B3000396801433960A00605D40C49C8681922F8
:100B400092039043C86008480068002809D008480C
:100B5000012149044162891C816200E001E00B49E6
:100B6000C1620020F8BD00002C1700B000210080F9
:100B7000C0900090000800A800230080000001B091
:100B800000290080802F0080802700800202020060
:100B900000B50D49002087B00860020001001E204A
:100BA00003AB07C302000948FF21491C6B4607C37A
:100BB000A838074A002307A101F07EEC0006000ECA
:100BC00000D0012007B000BD88000004940D00048F
:100BD0009D49000049646C650000000010B5FFF7F6
:100BE00053FC0FF0DFFB14F08DF914F019F914F039
:100BF0005BF910BD11483C2110B501F046EC0F48DF
:100C0000104A42600E49104A0160826081610021F1
:100C1000016201630D4A4163C262816300F04CFBD3
:100C20000B4C0C48EE22210001F04AEC09480A4B1B
:100C30000422210001F048EC10BD0000000000B0CB
:100C400005310000F52E0000B533000081D800000A
:100C5000DC050000100700045FF2F303DD104B8495
:100C600001000000E80B00A000020000E46A00A000
:100C7000F8B5BF4D28680C2188432860BD4CE0685A
:100C8000A10C0843E060E068072149020843E060E6
:100C9000E068012109060843E060E06880098001FE
:100CA000E060E06809148843E060E0680901884377
:100CB000E060E0684F03B843E060E0680721C906E0
:100CC0008843E060E068F9100843E0602068AA49C2
:100CD000084320607D200021400212F05BFA7D264F
:100CE000F6010021300012F0F7FA0021300012F076
:100CF00057FA0021300012F0F5FAA048016A1026D8
:100D00003143016228680C218843286068686105C6
:100D10008843686012F05EFBA868E1040843A8609D
:100D20002869032109068843286128693843286116
:100D30009349486800204860486819221206104309
:100D400048608F4880300368402293430360036803
:100D50000F273F02BB430360036803277F023B4327
:100D6000036003680F273F03BB4303600368032747
:100D70007F033B43036003681B091B010360036897
:100D800006273B4303602868104328602868302307
:100D90009843286028683043286008680123184376
:100DA00008600868B8430860E068090D0843E0601F
:100DB000A06A1043A062180012F082FC012011F01A
:100DC00009FFF8BD10B50FF047F96E4908806E486D
:100DD0006E49000C000408606E496D4808606F4958
:100DE0006D4808606F496E48086070496E48086039
:100DF00070496F48086071496F48086071497048D0
:100E00000860724970480860724971480860734907
:100E100071480860734972480860744972480860F4
:100E20007449734808607549734808607549744887
:100E300008607649744808607649754808607749C3
:100E400075480860774976480860784976480860B0
:100E5000784977480860794977480860784879493F
:100E600008607A49784808607A49794820DC5ED77A
:100E700001000000E40D00A000020000FD92DED0A1
:100E800008607B49794808607B497A4808607C495A
:100E90007A4808607C497B48086010BD0121080041
:100EA00010B50CF001FA02F017FD78494000085A1D
:100EB0007749086000F056FA022101200CF0F4F99D
:100EC000FFF7E0FE032101200CF0EEF900F03CFBFF
:100ED000042101200CF0E8F9FF226E4919321C2090
:100EE00001F00AEB052101200CF0DEF906210120BA
:100EF0000CF0DAF9FFF770FF072101200CF0D4F9AC
:100F00006549E120400208602BF0C2F80821012069
:100F10000CF0CAF96049042207202BF057F9092187
:100F200001200CF0C1F95D4800210A0006C05B4AAF
:100F30005B495C485C4B01F0E4EA0A2101200CF0BB
:100F4000B3F900F01DFA0B2101200CF0ADF900F00F
:100F500069F90C2101200CF0A7F900F0A7F80D2188
:100F600001200CF0A1F90E2101200CF09DF90020C8
:100F700010BD10B500F014FA00F048FB00F056F96F
:100F8000002010BD002F00800021008000081C20E0
:100F9000002800808026008040AD0004102100B0B1
:100FA00034AF0004A7DA0000D8A900046D7C00006B
:100FB000C8A90004AD7C0000CCA90004BF7C0000DF
:100FC000D4A90004C57C0000D0A90004B9DF00004A
:100FD00018AB00043DDB00001CAB000421DB00006B
:100FE00020AB0004A9DA000024AB0004C95B0000B8
:100FF00054B00004E15B000058B00004F55B000051
:101000005CB000048945000050B00004A1DE00007F
:1010100028AB000445DE00002CAB0004BDDF00005F
:1010200038AB0004F1DF00003CAB0004F5DF00004A
:1010300040AB0004C1DE000008AB0004A1DF0000EB
:101040001CB5000421C9000018AA00047138010071
:1010500030AB00045538010034AB00049DC80000DB
:1010600010AA00044DC8000014AA0004C1CA000060
:101070000CAA000401CC000008AA0004CEB7E511B8
:1010800001000000E00F00A000020000097A606D7E
:10109000A502010000AB00045D02010004AB0004E6
:1010A000D0DB0200E8A90004502A0004F0A90004E3
:1010B000A80B00B0B81B0000980E00042CDD020045
:1010C0000449034810B54860080013F0DFFB10BD69
:1010D000790B0100CC0B00B011491048086012498F
:1010E0001048086012491148086013491148086007
:1010F00013491248086014491248086014491348FB
:1011000008601549134808601549144808601649D5
:101110001448086016491548086070471DCA000049
:10112000CCB3000471C90000BCB30004A9C900001D
:10113000C0B30004B5C90000C4B30004E1C9000095
:10114000C8B3000479CA0000DCB3000495CA0000EB
:10115000E0B3000421CA0000D0B300043DCA00007F
:10116000D4B30004ADCA0000E4B3000465CA0000B3
:10117000D8B3000410B50124A4022048EE222100B7
:1011800086B001F0BCE925F043FF22F0A5F801226A
:1011900000210C2003AB07C3020018480292009004
:1011A000174A0019002317A1019401F0A4E90028AF
:1011B0001DD1194815A101F0B2E918481A4A416831
:1011C0001748816017490161002141618261174A16
:1011D000C161026241621649816201F088E900281A
:1011E00005D1144911202AF0DFFE002802D0012089
:1011F00006B010BD00F038FD0020F9E71033000400
:10120000F5CA01004E66635461736B004E66634617
:101210006C61677300000000B83700043C0C00B03C
:101220003C9500B03965020021770200F1A7020069
:10123000053902000D4B0100064900200880704767
:1012400006490548086007490548086007490648F7
:10125000086070479C9700B0CD1801002CBB0004BB
:101260009D18010028BB00041918010024BB0004CC
:1012700010B500F02BFF1B4C6060A168002904D062
:10128000491CA16000F026FF10BD00211C57E59706
:1012900001000000DC1100A0000200007761C7DD42
:1012A000012010F097FCA068401CA0600020C04303
:1012B00020610020E06011480168820B1143016049
:1012C00010490F480880091F088004F0ABFB10BDCF
:1012D00010B5094CA068012802D9401EA06010BDBD
:1012E00004F084FB0020A060012010F029FC60685D
:1012F00000F0FAFE10BD0000201B00C0002100809D
:10130000FFFF0000500600900F490E48086010498A
:101310000E48086010490F48086011490F48896855
:10132000086011490F4808601149104808601249C7
:1013300010480860124911480860134911480860B4
:101340007047000021990000ECB6000439990000B4
:10135000F0B60004CD950000E0B60004600E00A9D0
:101360009C0C00B06D9A00002CB700044599000059
:1013700000B700045D99000008B700042D9A000032
:1013800020B70004081000A9A4B0000470B5002420
:101390000B4D04E0401940682AF010FE641CE00088
:1013A00029580029F6D170BD06488168FF22521CD9
:1013B00011438160816810221143816070470000F1
:1013C000BC0C00B0009000A810490F4810B5086090
:1013D00010490F48086011490F480860114910482A
:1013E0000860FFF783FE00F02BF800F059FC0F496E
:1013F0000D4808600F490E48086001F09EE80F494B
:101400000D48086010BD0000630A010050B40004DC
:10141000590A010048B40004610A01004CB40004F8
:10142000656A00004CB3000429CC000068B70004D2
:1014300025CF00006CB70004BDC40000E8BA00046A
:101440001649154808601749154808601749164895
:101450000860184916480860184917480860194973
:10146000174808601949184808601A491848086060
:101470001A49194808601B49194808601B491A484D
:1014800008601C491A4808601C491B4808601D492F
:101490001B48086070470000D16D000065A84AB283
:1014A00001000000D81300A00002000083897960C9
:1014B00000B40004A96D0000F8B30004BD6D000085
:1014C000FCB300048D6E000004B40004B96E00008B
:1014D00014B40004D56E000018B40004E96E0000D6
:1014E0001CB40004A56E000010B400043DC7000049
:1014F00008B40004956E00000CB40004956D000063
:10150000F4B30004816D0000F0B3000411C70000C3
:1015100094BB0004F9DF000090BB0004F7B5012084
:1015200082B00D000190088846082CF0F7F9710090
:1015300002980F0011F06EFB012409E0029A60008E
:10154000295A8018801E0004000C11F063FB641CF3
:10155000B442F3DD78194188029811F05BFB2CF05E
:1015600061F92CF005FA492011F050FB049908426A
:10157000F9D0000601D5002001902CF063F9019804
:1015800005B0F0BD2B4970B548680E0C304348607B
:101590002CF0EEF9092011F039FB0C210143092050
:1015A00011F03CFB152011F031FBBF21014015204B
:1015B00011F034FB4A2011F029FB062105000143FC
:1015C0004A2011F02BFB0024472011F01FFB641C64
:1015D0000A2CF9DB2900F92001404A2011F01EFBFA
:1015E000492011F013FB10210143492011F016FB93
:1015F000002011F00BFB10490870012011F006FBD0
:101600000E4908702CF01EF90D4920223000FFF71A
:1016100085FF002807D01F200A494022C002FFF79B
:101620007DFF002800D1FEE700F020FB012011F033
:1016300013FB70BD40230080900000049100000463
:10164000102100B0B01700B070B50025AF49AE480A
:101650000860B049AE480860B049AF480860B14979
:10166000AF480860B149B0480860B249B048086066
:10167000B249B1480860B349B1480860B349B248BB
:101680000860B449B2480860B44CB348E064B54956
:10169000E062B3480860B549B3480860B549B4484A
:1016A0000860B649B4480860B649B548955AEF8A0B
:1016B00001000000D41500A0000200009A71A710DC
:1016C0000860B749B5480860B749B6480860B849E6
:1016D000B6480860B849B7480860B848B949857144
:1016E000B7480860B84901208877B949B748086009
:1016F000B848B9490860BA49B8480860BA49B94811
:101700000860BB49B9480860BB49BA480860BC4991
:10171000BA480860BC49BB480860BD49BB4808607E
:10172000BD49BC480860BE49BC480860BE49BD48C8
:101730000860BF49BD480860BF49BE480860BF484F
:101740002061C0492062BE480860BF48C049457654
:10175000BE480860C049BF480860C149BF4808602A
:10176000C149C0480860C249C0480860C149052055
:101770000870C249C048086013F0BEFF212802D299
:10178000C049BF480860C149BF480860C149C04856
:101790000860C249C0480860C249C1480860C349DE
:1017A000C1480860C349C2480860C348A064C4492E
:1017B000A062C2480860C348C4496063C248086068
:1017C000C449C3480860C549C3480860C549C448FE
:1017D0000860C649C4480860C548C7496065C5482F
:1017E0000860C749C5480860C749C6480860C84876
:1017F000C6490162C749C94A4162C7491160C94A1D
:10180000C7491160C94AC8491160CA4AC84911602C
:10181000CA4AC9491160CB4AC9491160CB4ACA4971
:101820001160CC4ACA491160CC4ACB491160CD4AFB
:10183000CB491160CD4ACC491160CE4ACC491160E8
:10184000CE4ACD491160CF4ACD491160CF4ACE4929
:101850001160D04ACE491160D04ACF491160D14AB7
:10186000CF491160D0498160D049D24AC161D04985
:101870001160D1496161D24A6162D0491160D24A96
:10188000D0491160D24AD1491160D34AD14911607F
:10189000D34AD2491160D44AD2491160D349D54ABA
:1018A0000D70D3491160D54AD3491160D54AD44946
:1018B0001160D64AD4491160D64AD5490CCA917FE5
:1018C00001000000D01700A0000200006E9919ADC1
:1018D00011602C49D54A8031CA60D549A165D64AE4
:1018E000A163D4491160D64AD4491160D549016039
:1018F000D5494160D649D5480860D749D5480860E0
:10190000D749D6480860D748D8492063D6480860E8
:10191000D849D7480860D949D7480860D949D84834
:101920000860DA49D8480860D948206570BD0000D1
:1019300065B7000070BB00042D63000078B200049E
:10194000CDA30000D4B90004C195000060B7000425
:10195000B99500005CB70004D9A000007CB9000470
:101960001DB6000000BB000425A40000D8B9000487
:10197000459F000038B90004AD86000054B500044E
:101980008D800000B4AF0004A9AB0000F8B90004DA
:101990008DB600006CBB0004F582000040B5000469
:1019A000DD8D000090B6000469600000F0B1000415
:1019B000759E0000FCB7000491A20000ACB90004C1
:1019C0007972000010B50004EDA1000080B9000498
:1019D00040AD0004556B00005CB3000440AA000455
:1019E000FD9B000094B70004A59B000090B7000485
:1019F000D99C00009CB70004D99A00008CB7000461
:101A0000696B000038B6000451650000D4B20004D0
:101A1000516D000080B30004C1710000A0B4000447
:101A2000FDB2000098BA000411A30000C8B9000478
:101A3000BD63000088B2000485A30000CCB9000497
:101A400049670000E0B2000445790000A8B5000431
:101A500005920000ED920000A8B60004B0F6020066
:101A600069910000A0B600046183000054B6000430
:101A7000E1C6000088BB00049D9A0000A8AA0004EB
:101A80008D5F0000ECB1000465AA000475B9000088
:101A9000D0B900043D68000004B3000479AC000034
:101AA0005CBA0004D9710000A8B400046179000098
:101AB000ACB5000421780000A0B500040177000057
:101AC0007CB5000483B8000068B900047B05791276
:101AD00001000000CC1900A000020000A9801BF04A
:101AE000557D0000D588000060B60004197D000017
:101AF00015C500004CB90004A19E000060B80004A8
:101B0000E5AD000064BA000411B30000E4BA0004BB
:101B1000CD790000BCB50004758100007D6B00002C
:101B20006CB3000475BD0000E4B9000489BD000079
:101B3000F4B90004E36C000054AD0004D96C00005B
:101B4000ED7300004CB6000461B90000A8B90004B0
:101B500075BF000084BA0004DD62000000B200041A
:101B6000F99E0000F0B80004D9AB000048BA0004A8
:101B700041BD0000DCB90004D99D0000E8B70004B5
:101B8000D5B50000FCBA00040D8B000088B6000437
:101B90009968000014B30004FD85000058B60004E5
:101BA000A58800005CB60004657A0000CCB500048E
:101BB000357A0000C0B50004717B0000ECB500046C
:101BC000898900006CB60004096A000028B300048B
:101BD000196A0000956B0000C57A0000D8B50004B2
:101BE000C1940000E575000068B60004B58A0000E5
:101BF00084B60004418F000094B60004B18D00004B
:101C00008CB60004F166000058AC0004C1B80000B6
:101C100078B9000490AD000441B80000D0B70004CA
:101C2000998A000078B600047589000064B6000443
:101C300029720000C8B40004297100006CB40004CB
:101C4000E9800000D590000045C6000078BB000484
:101C50007D70000044B40004456F0000116F000067
:101C6000356B000058B300042D7500005CB500040E
:101C70002176000060B50004CD7C0000415A0000D0
:101C8000C0B10004618A000074B6000461700000F5
:101C900040B4000459720000ECB40004FD6200007E
:101CA00058B2000431810000054810B500781028B2
:101CB00004D1044904484C222BF0DCFF10BD000085
:101CC000910000049E000004CE010004054806496E
:101CD00010B50078097800F029F804486FC8E0BD15
:101CE00001000000C81B00A0000200005D68A54DB7
:101CF0000068804710BD0000004000AA004000AA14
:101D0000DC010004074906480860084906480860E5
:101D100008490748086009490748086070470000FB
:101D2000A5380000F4B10004997B000000B600045F
:101D3000A77B000004B60004917B0000FCB5000402
:101D4000064808B502680092054A064913000800D3
:101D50000C386C3300F026EC08BD00006400000471
:101D6000A8CF00B0941600B0203052E20400005A10
:101D7000203062E23002A0E1110380E13112A0E1E3
:101D80001EFF2FE13103A0E10010A0E31EFF2FE1B1
:101D9000194930B417220A6036224A60174A184C93
:101DA0000021030C8D001B185351164B491C58433E
:101DB00000193729F5DB30BC70470120E8E770B423
:101DC0000D4C0E4D6068216883008E00EA58AE59B4
:101DD000491E401E9219EA5036230029216002DA7A
:101DE0002360606003E00028606000DA63605000F8
:101DF00070BC400870470000241700B030AC00B041
:101E0000E119D666CD0D010010B4042A0ED30300EB
:101E10000B439B070AD108C810C9A34202D1121F65
:101E2000042AF8D2A34201D0001F091F002A02D1C0
:101E3000002010BC7047D30701D0521C05E0037886
:101E40000C78401C491CA34207D103780C78401C35
:101E5000491CA34201D1921EF1D1181BE9E70000F1
:101E60000000A0E1230000EB03002DE9830000EB5C
:101E70000300BDE84B0000FA0F002DE9820000EBE3
:101E80000F00BDE81CC09FE50FC08CE001001CE303
:101E90000DE08F120FE0A0011CFF2FE101C08FE2C7
:101EA0001CFF2FE100F01CF83530010001402DE946
:101EB0000000A0E16A0000FA0140BDE8000000EA6D
:101EC0000000E0E30000A0E10C109FE51800A0E393
:101ED000563412EF1EFF2FE1C4010000260002005D
:101EE00010B5C046C0460400C046C046B24733E7FE
:101EF00001000000C41D00A00002000044907B3DD2
:101F00002000FFF7DEEF10BC08BC18470E40A0E130
:101F1000670000EB04E0A0E101402DE97C0000EB4C
:101F20000040A0E10140BDE813402DE90100A0E31D
:101F3000121DA0E3081084E5000084E51340BDE80D
:101F40000010A0E1040084E50EF0A0E110402DE9AE
:101F500003002DE96E0000EB0040A0E10300BDE8A6
:101F6000042094E50D30A0E100E082E003005EE192
:101F7000002081E50B00008A0E3093E0011A8EE20A
:101F80006330A0E1071081E20730C3E30710C1E32B
:101F9000030051E10310A081041084E51040BDE866
:101FA000020041E01EFF2FE10020A0E10000A0E3BD
:101FB0000000A0E11040BDE81EFF2FE1F0B585B0A4
:101FC000C046C04605000C002BF094EE00200195A1
:101FD0000294C046C046039001A8FEF708E9040039
:101FE00001A80D00009303C81600C046C046C046B5
:101FF000C046FFF7ECFE00210800C046C0460700BF
:1020000000F090E80490002107600800C046C04638
:10201000411C0498416000210800C046C0460100F0
:102020000498816000210800C046C0460100049861
:10203000C16000210800C046C0460100049801614B
:10204000C046C046C046C046C046C046C046C04660
:10205000C046C046C046C046C046C046C046C04650
:10206000C046C046009B05B02000049C29003200F9
:10207000A646F0BC01B0704710B5C046C04600206F
:10208000C046C046C046C046C046C04610BC08BC9C
:10209000184700000000E0E30210E0E31EFF2FE11C
:1020A00010402DE90000A0E11040BDE81EFF2FE127
:1020B0001EFF2FE10E50A0E11F0000EB05E0A0E1A4
:1020C0000050A0E10700C0E30D10A0E10A30A0E13C
:1020D00000D0A0E160D08DE220402DE91F3000FA51
:1020E0002040BDE80060A0E30070A0E30080A0E312
:1020F00000B0A0E30710C1E305C0A0E1670ADCFA65
:1021000001000000C01F00A000020000B078C580E0
:10211000C009ACE8C009ACE8C009ACE8C009ACE84B
:1021200001D0A0E11EFF2FE104009FE51EFF2FE17B
:102130001EFF2FE11CAD00B004009FE51EFF2FE144
:102140001EFF2FE12CAD00B010B410BC7047000092
:1021500000009FE51EFF2FE10CAD00B004009FE5DD
:102160001EFF2FE11EFF2FE110AD00B010B500F0F3
:1021700032EA10BD802810B502D100F02CEA10BD63
:1021800000F02CEA10BD10B5040000F02CEA20602D
:1021900010BD0F4870B504680E4EA10706D500218A
:1021A0000161F26C012090470220844300250AE07F
:1021B000E00706D0A8003258002A02D021002800EB
:1021C000904764086D1C002CF2D1002070BD000007
:1021D000009000A8E0F70200913082E00300A0E147
:1021E0000210A0E11EFF2FE100A0004750129FE562
:1021F000001091E5D100A0E300F021E101D0A0E1C1
:1022000074129FE534229FE5DB00A0E300F021E19A
:10221000021081E00310C1E3041041E201D0A0E10B
:1022200000A0A0E300B0A0E318229FE5D200A0E345
:1022300000F021E1021081E00310C1E3041041E24B
:1022400001D0A0E1D300A0E300F021E1E8319FE557
:10225000001083E5E0119FE5000091E5040080E2B5
:10226000E8219FE5000082E510229FE510029FE52E
:102270002C0082E50700A0E3300082E50900A0E31E
:10228000000082E50B10A0E3101082E50130A0E30E
:10229000243082E5283082E5E8219FE51030A0E374
:1022A000083082E51EFF2FE10100A0E30E10A0E13F
:1022B000850000EBFEFFFFEAFF402DE900004FE143
:1022C00001002DE9C0119FE5002091E51F2002E2E9
:1022D000B8319FE5823193E70FE0A0E113FF2FE1D2
:1022E000A8019FE50810A0E3920102E00410A0E31A
:1022F000012082E0021090E724209DE5012082E089
:1023000024208DE50100BDE800F069E10BDE2BA57E
:1023100001000000BC2100A000020000B8A7345D4D
:10232000FF80FDE80200A0E30E10A0E16B0000EBCF
:10233000FEFFFFEA0300A0E30E10A0E1670000EB40
:10234000FEFFFFEA0400A0E30E10A0E1630000EB33
:10235000FEFFFFEAA90000EAFFF725FF5248004709
:10236000FF402DE90E00A0E1960500FAFF40BDE810
:1023700004F05EE230019FE50010E0E3001080E52C
:10238000001090E524019FE5100F01EE20F19FE57C
:10239000900F07EE1EFF2FE1FC009FE50010E0E329
:1023A0000C1080E5F0009FE508119FE5081080E51E
:1023B00004019FE5001090E5081081E3001080E51E
:1023C000001090E5081011E2FCFFFF0A900F07EEE5
:1023D0001EFF2FE1100F11EE1EFF2FE1100F01EE77
:1023E0001EFF2FE1010050E2FDFFFF1A1EFF2FE14B
:1023F000C8109FE5A520A0E30000A0E3040081E44D
:10240000012052E2FCFFFF1AB4009FE5B4109FE5E3
:10241000001080E5B0009FE5B0109FE5001080E55A
:10242000AC009FE5AC109FE5001080E51EFF2FE19A
:1024300000000FE11F0000E2120050E30100A003C2
:102440000000A0131EFF2FE1100F6FE11EFF2FE110
:10245000ACBD0004100000004000000400040000B7
:10246000E00300009CBD000401C05EE50C0053E1E8
:102470000330DE370C30DE2783C08EE01CFF2FE1F7
:102480003F96A0E319FF2FE14C909FE519FF2FE144
:1024900060F80200009400A83F1F0000009000A810
:1024A000B0380080FC7E00B00016F00300210080F0
:1024B0007C1700004400000002004000C42000809F
:1024C0006CBD0004F4BD000499200000F8BD0004B8
:1024D00051DB0200FCBD0004F52100000000FFFFFD
:1024E00000204FE100300FE1D170A0E307F021E1BF
:1024F000613C00FAFEFFFFEA0E002DE900200FE12B
:10250000D33083E303F021E10D00A0E102F021E1EB
:102510000E00BDE81EFF2FE10E002DE946B9966CB6
:1025200001000000B82300A0000200004C4F8AE028
:1025300000200FE1D33083E303F021E10E00A0E19E
:1025400002F021E10E00BDE81EFF2FE10E002DE993
:1025500000200FE1D23083E303F021E10D00A0E180
:1025600002F021E10E00BDE81EFF2FE10E002DE973
:1025700000200FE1D23083E303F021E10E00A0E15F
:1025800002F021E10E00BDE81EFF2FE104F01FE57F
:102590004038F40304F01FE5D03AF40304F01FE5DB
:1025A0002C33F40304F01FE53041F40304F01FE57D
:1025B000015EF00304F01FE5D573F00304F01FE59E
:1025C0007D46F00304F01FE5F836F40304F01FE540
:1025D00087F2F30304F01FE5FD7DF00304F01FE52F
:1025E000DB80F00304F01FE5A131F00304F01FE5E8
:1025F0007D93F00304F01FE5015FF00304F01FE595
:102600008C17F00304F01FE5A017F00304F01FE59A
:10261000114DF00304F01FE51817F00304F01FE557
:10262000EB0BF40304F01FE5B50CF40304F01FE515
:10263000DB0CF40304F01FE5830CF40304F01FE546
:10264000AF0BF40304F01FE5A141F40304F01FE510
:102650000375F00304F01FE57905F40304F01FE5AA
:102660006542F40304F01FE53D42F40304F01FE566
:102670009438F40304F01FE54708F40304F01FE561
:10268000FB07F40304F01FE52108F40304F01FE541
:10269000FB08F40304F01FE5D907F40304F01FE579
:1026A0000837F40304F01FE59F5FF00304F01FE513
:1026B0001998F00304F01FE583ECF30304F01FE521
:1026C00067ECF30304F01FE5457EF00304F01FE51B
:1026D000637EF00304F01FE555ECF30304F01FE5FF
:1026E0000FDBF00304F01FE559ABF00304F01FE526
:1026F000039CF00304F01FE54D41F40304F01FE5D3
:1027000037ACF00304F01FE50BAAF00304F01FE55B
:10271000E43AF40304F01FE54B7EF00304F01FE5F8
:10272000939FF00304F01FE5558CF303B96DE46744
:1027300001000000B42500A00002000055B754902D
:1027400004F01FE5E99CF30304F01FE541C5F00325
:1027500004F01FE541C3F00304F01FE5E58BF3032C
:1027600004F01FE54BADF30304F01FE54DADF3039B
:1027700004F01FE57B8CF30304F01FE5CDA1F0030B
:1027800004F01FE58532F00304F01FE5A533F003E4
:1027900004F01FE55C39F40304F01FE5D764F1038E
:1027A00004F01FE51F9EF30304F01FE54FA1F303A0
:1027B00004F01FE5174DF20304F01FE50D80F00350
:1027C00004F01FE52580F00304F01FE5038CF303FC
:1027D00004F01FE5CD8BF30304F01FE5976AF203C5
:1027E00004F01FE51970F20304F01FE51F6AF203FD
:1027F00004F01FE5550BF30304F01FE5FD56F3034A
:1028000004F01FE5970BF30304F01FE58B0BF303B4
:1028100004F01FE5650BF30304F01FE56DD9F20327
:1028200004F01FE54149F40304F01FE51D4FF203D6
:1028300004F01FE543A4F30304F01FE5A119F0031E
:1028400004F01FE5997AF00304F01FE513EDF3039C
:1028500004F01FE55BECF30304F01FE5E7F0F3037E
:1028600004F01FE533C5F30304F01FE5D128F2039C
:1028700004F01FE5E9D9F00304F01FE5BFB3F2034C
:1028800004F01FE5DB24F10304F01FE515ACF003B1
:1028900004F01FE50D4AF10304F01FE5C148F403FD
:1028A00004F01FE50BB8F00304F01FE5C3ABF00321
:1028B00004F01FE571CFF00304F01FE5F543F403C6
:1028C00004F01FE585B9F20304F01FE5ABB9F2038C
:1028D00004F01FE5CB1BF30304F01FE51DF8F10323
:1028E00004F01FE5D3C0F20304F01FE57FBAF20342
:1028F00004F01FE51B69F10304F01FE595BAF2032C
:1029000004F01FE59FC3F20304F01FE5DC37F40376
:1029100004F01FE55DD1F10304F01FE5E5BCF2030F
:1029200004F01FE58353F10304F01FE535B5F2030E
:1029300004F01FE54927F20304F01FE5DE3D9FD3B5
:1029400001000000B02700A000020000A15FEA2DF6
:102950000118F20304F01FE5A114F20304F01FE5CF
:102960007543F20304F01FE52553F20304F01FE55D
:102970004150F20304F01FE5EF39F10304F01FE5C5
:10298000D9A5F20304F01FE5F797F20304F01FE561
:10299000F187F20304F01FE59584F00304F01FE5CE
:1029A000EB86F00304F01FE52186F20304F01FE537
:1029B000BB6CF20304F01FE513AAF20304F01FE559
:1029C0009F76F20304F01FE52D8CF20304F01FE55F
:1029D0004F89F20304F01FE511ACF20304F01FE588
:1029E000F38CF20304F01FE59DB3F20304F01FE53E
:1029F000C5B9F20304F01FE50D8CF30304F01FE5E5
:102A00002384F00304F01FE57371F20304F01FE563
:102A100099C9F30304F01FE505FEF20304F01FE576
:102A20000FA4F30304F01FE57152F30304F01FE554
:102A30009913F30304F01FE565D0F00304F01FE5DC
:102A4000412AF30304F01FE55B34F30304F01FE5B0
:102A5000B34DF30304F01FE5AB48F30304F01FE5A7
:102A60009D5EF30304F01FE51D57F30304F01FE51B
:102A7000F384F30304F01FE5D79EF30304F01FE58E
:102A8000159AF30304F01FE5539CF30304F01FE5CC
:102A9000DFB6F20304F01FE585A2F30304F01FE59F
:102AA0009FA3F30304F01FE573C4F30304F01FE5D1
:102AB00087CBF30304F01FE565DEF30304F01FE5A5
:102AC0003DE2F30304F01FE5CBC6F30304F01FE57A
:102AD000DFC0F30304F01FE55BA3F30304F01FE57D
:102AE00075B5F20304F01FE50DDDF30304F01FE5F7
:102AF000A7E2F30304F01FE50B0AF30304F01FE55C
:102B0000B9DDF30304F01FE5FFDAF30304F01FE57A
:102B100009A4F30304F01FE50BE3F30304F01FE53E
:102B20001FDBF00304F01FE595ABF00304F01FE595
:102B30006FBEF30304F01FE5054FF20304F01FE539
:102B4000C9ADF30304F01FE5D35BF20338A7B879EE
:102B500001000000AC2900A0000200006646E870F9
:102B600004F01FE57BA4F30304F01FE545C4F30361
:102B700004F01FE591B8F30304F01FE549B9F3032E
:102B800004F01FE58FC0F30304F01FE5C9BEF30393
:102B900004F01FE521ACF30304F01FE5C7EBF303DA
:102BA00004F01FE5590BF30304F01FE5DFA7F3035F
:102BB00004F01FE523CFF30304F01FE52BD8F30344
:102BC00004F01FE599D2F30304F01FE5C7D8F3031F
:102BD00004F01FE54DCDF30304F01FE5BBC3F30381
:102BE00004F01FE549E0F20304F01FE53BA5F30301
:102BF00004F01FE5D9D1F30304F01FE5A5DEF203CD
:102C000004F01FE535E0F20304F01FE5B1DEF20346
:102C100004F01FE517DFF20304F01FE521A1F30321
:102C200004F01FE531A1F30304F01FE553BAF303E9
:102C300004F01FE5E7B2F30304F01FE521B2F3034C
:102C400004F01FE5CBB1F30304F01FE5D5B5F303A2
:102C500004F01FE539A7F30304F01FE50923F1038E
:102C600004F01FE52312F20304F01FE5BF69F2032D
:102C700004F01FE54134F10304F01FE58169F2031C
:102C800004F01FE5E111F20304F01FE5293CF10314
:102C900004F01FE59F69F20304F01FE52731F103FB
:102CA00004F01FE5258BF10304F01FE5558CF103BB
:102CB00004F01FE501C4F10304F01FE51B0FF2034C
:102CC00004F01FE547DEF10304F01FE5170FF203E0
:102CD00004F01FE5210FF20304F01FE5FB0EF203E1
:102CE00004F01FE563BCF10304F01FE54341F10369
:102CF00004F01FE5E913F30304F01FE50D69F10388
:102D000004F01FE5699DF20304F01FE5759AF203D4
:102D100004F01FE5D97AF20304F01FE52582F203DF
:102D200004F01FE56770F20304F01FE5296DF2035C
:102D300004F01FE5BD7FF20304F01FE53911F20333
:102D400004F01FE5DDA5F20304F01FE53195F20361
:102D500004F01FE5A30BF30304F01FE5FDFB03D212
:102D600001000000A82B00A00002000092AE56CD8A
:102D70000B0FF20304F01FE5110FF20304F01FE53F
:102D8000FD1BF30304F01FE50F6DF20304F01FE5D4
:102D9000CD5FF10304F01FE58F84F00304F01FE51D
:102DA0003B97F30304F01FE54B8EF30304F01FE59C
:102DB000EF9CF00304F01FE5C933F10304F01FE5B5
:102DC000FD36F10304F01FE5FDF3F10304F01FE508
:102DD000711BF20304F01FE51919F10304F01FE55C
:102DE0006581F10304F01FE5251CF20304F01FE5E3
:102DF000C546F20304F01FE5C971F20304F01FE5B4
:102E00004D11F20304F01FE5259DF20304F01FE5C8
:102E1000A571F20304F01FE5A3A2F20304F01FE57D
:102E2000E583F20304F01FE5398EF20304F01FE599
:102E3000578BF20304F01FE525C6F30304F01FE5EA
:102E4000B5B7F30304F01FE5A9A1F30304F01FE5F0
:102E50002380F30304F01FE511EFF10304F01FE5F5
:102E60003B85F00304F01FE5E784F00304F01FE561
:102E7000EDA3F00304F01FE5EF9FF00304F01FE55E
:102E80008D9AF00304F01FE59D9AF00304F01FE50E
:102E9000639AF00304F01FE5EB88F00304F01FE5EC
:102EA0008513F40304F01FE58D9BF00304F01FE588
:102EB000350FF40304F01FE57B11F40304F01FE564
:102EC000556BF00304F01FE5CB74F00304F01FE52D
:102ED0006B74F00304F01FE55D11F40304F01FE5CB
:102EE000E10EF40304F01FE56D6BF00304F01FE541
:102EF000EB74F00304F01FE5736FF00304F01FE5BB
:102F0000A76EF00304F01FE5690EF40304F01FE55B
:102F1000190FF40304F01FE5FF0EF40304F01FE59E
:102F20005B75F00304F01FE5ED75F20304F01FE597
:102F30004780F00304F01FE53C39F40304F01FE57B
:102F4000EF96F00304F01FE56575F00304F01FE54C
:102F5000C83AF40304F01FE5B742F40304F01FE598
:102F60005542F40304F01FE5F582F1037C35315836
:102F700001000000A42D00A0000200008B5688BDB7
:102F800004F01FE5DF15F20304F01FE5EDA6F003E2
:102F900004F01FE5D999F00304F01FE5FBDEF3030D
:102FA00004F01FE575DFF30304F01FE5BDB5F20380
:102FB00004F01FE50F9AF00304F01FE5319AF003C7
:102FC00004F01FE5BD7EF00304F01FE5CF9AF00387
:102FD00004F01FE5B79CF00304F01FE5BB9EF0036F
:102FE00004F01FE5C19DF00304F01FE56B9DF003A5
:102FF00004F01FE5459EF00304F01FE5019BF0037C
:1030000004F01FE52B9CF00304F01FE51B99F0036F
:1030100004F01FE59398F00304F01FE50D4AF00358
:1030200004F01FE5AD35F00304F01FE5F5B5F2033C
:1030300004F01FE56571F20304F01FE55F92F203EF
:1030400004F01FE58186F00304F01FE54987F003D3
:1030500004F01FE54733F20304F01FE5ED0600B06E
:1030600004F01FE5490700B004F01FE5290700B090
:1030700004F01FE5410900B004F01FE50D0900B0A0
:1030800004F01FE5F947F00304F01FE53743F403AC
:1030900004F01FE5FB42F40304F01FE53394F00352
:1030A00004F01FE5A98FF00304F01FE5BF92F003C1
:1030B00004F01FE5D58FF00304F01FE58995F003B8
:1030C00004F01FE5A817F00304F01FE5B70EF403A2
:1030D00070B5040008000025E20704D0FFF7D0EA2D
:1030E00012491148086012480078012819D12007B8
:1030F00002D500F01FF80500600602D5FFF7C4EA0C
:103100000500200602D5FFF7C4EA0500A00502D598
:1031100000F06AF805006007800F02D0FFF7BCEAF4
:103120000500280070BD00003519010064B70004D7
:103130006CB000047FB525480078002843D1FFF724
:10314000B0EA00222248D2430021FFF7AEEA214E26
:103150001F2230600189520308181F49000C00909B
:1031600008681E4D90430F225203801808600A0021
:10317000A8692521FFF79CEA686925212E264B4A7C
:1031800001000000A02F00A0000200007FBE36005A
:103190006A46FFF798EA154AA8692621FFF792EADE
:1031A000144A68692621FFF78EEA134CE0803068E4
:1031B00000892081FFF78AEA60814004000C002129
:1031C000A0812180618031680A89019051180391A2
:1031D000A8692C2101AAFFF776EA002004B070BD8F
:1031E00088B00004100C00B078B00004500000B0AB
:1031F000AC0000B05C0000B0B00100B0FEB500242F
:10320000334E344D2721686901AAFFF75CEA019823
:10321000641CC00701D0B442F4D32F4C2F4E208839
:10322000002822D130680027002803D02C490968E3
:10323000884737602B48FFF74EEA002830600FD0F0
:1032400001890A182849521E89788A1812781207AB
:10325000120F22806780E78000894018A0800DE06F
:1032600022490868401C086008E068692D216A4608
:10327000FFF728EAE08800994018E080E1891C48BF
:103280000429218902D162898918FFE70268118126
:103290002188002913D0016832680A60A088E2887A
:1032A000052380183268108168690122FFF716EA49
:1032B0006088401C60802088401E208005E00068F7
:1032C000018908186189FFF70EEA0020FEBD0000A1
:1032D000FFFF0000AC0000B0B00100B07CB0000403
:1032E00084B000043C0000B0680000B090B000045E
:1032F00078B0000470B504001A4D0020E20708D031
:103300006868002802D1194A174810600800FFF7C2
:10331000EEE91749097801291AD1210704D5154882
:103320000078002815D00020610604D5124900203D
:103330000860FFF7E0E9210601D5FFF7E0E9E105C4
:1033400001D500F071F86107890F01D0FFF7DAE9C4
:1033500070BDFFF7DCE968680028E4D100F00EF8E2
:10336000E1E70000AC0000B03519010064B70004CB
:103370006CB0000488B00004980C00B07FB5002247
:10338000D24300212048FFF79AE9204EB6725B7DB8
:10339000010000009C3100A00002000001A591B0D6
:1033A000204D30600189204A0818000C0090E86820
:1033B0002521FFF792E9286925216A46FFF78CE964
:1033C000194AE8682621FFF788E9184A2869262162
:1033D000FFF782E9164CE080306800892081FFF712
:1033E00080E960814004000C0121A081218000213E
:1033F000618031680A89019051180391E8682C2195
:1034000001AAFFF76AE90B48E1880088FFF710E995
:103410000949C870002004B070BD0000100C00B055
:1034200074B00004AC0000B0500000B05C0000B00C
:10343000A00100B06EB00004680000B0F8B5002430
:10344000534D5448272100696A46FFF746E9009822
:10345000641CC00701D0AC42F3D34F4D4F4E688877
:10346000F1784F4F4F4C88424BD12368242018816C
:103470006888E988B2784843310080189880B0782D
:10348000F21C80180278F37812091B0712011B0F37
:103490001A430270B0783200093A80188278C378F3
:1034A00012021A43521C130A8370C2703A68130E38
:1034B0000371130C4371130A8371C2712268081DD2
:1034C0009288121F8A7122689288121F1212CA7182
:1034D00022689388083B0B729388083B1B12437148
:1034E000108980188A78091DFFF71EE921682E4887
:1034F0008A8800681123FFF7FCE8002068802060BC
:1035000002E02068002819D12848FFF712E90428B2
:1035100014D800222548D2430021FFF7DAE8112110
:103520002060C18020300221C170216824200881E0
:1035300000206880B0782430A88003E01C49086827
:10354000401C0860206800281AD01A4909680860E1
:103550006888EA885043AA88801822681081E88920
:103560000428288902D16A898018FFE70881094860
:10357000012200690423FFF7BCE86888401C6880CA
:103580000020E8813868401C38600020F8BD000049
:10359000FFFF0000AC0000B0A00100B0063DFADD66
:1035A00001000000983300A000020000F54D2F0D2F
:1035B000680000B0980C00B080B000045000000417
:1035C000100C00B08CB0000474B0000400207047F0
:1035D0000549012010B5087000F03CF8FFF7B6E887
:1035E000012000F08DF810BD440000047047102049
:1035F00010B500F0ADF810BD10B50CF085F910BD98
:1036000070B50500FFF7A6E8002803D100F02CF9FB
:10361000002801D0012400E00024002D02D0FFF793
:103620009EE800E00020204370BD0000042008B5A3
:10363000FFF798E80028009006D00449016004488C
:1036400001686846FFF792E808BD0000EF1300002C
:103650005058F403F8B521484569681C3DD0102046
:10366000FFF780E80028009037D01D49002402C0F1
:10367000FF220A21FEF7F6EF24E0E80720D0601EC3
:103680000D281DD8A0000019083800D50020010021
:103690001A314F2903DD4F210E2C00D03520009A1E
:1036A000091A121D41188C4608E04607C108760F1A
:1036B0000127535CB740BB43401C53548445F4D8A6
:1036C0006D08641C002DD8D10098001D00F036F85C
:1036D000044801686846FFF74AE8F8BD4400000462
:1036E000011400005058F40310B5044C6070A17030
:1036F000E27001206360207010BD0000D00D00B0AA
:103700001CB50C4A1178002912D09178D2786B46FA
:103710001A7058700A0A9970DA700A0C1A71090E38
:103720005971054C0300062120006A4600F030F86C
:103730001CBD0000D00D00B087FC00000200034853
:103740000A21012310B500F023F810BD89FC000008
:103750000D4A30B5040012880020C0210A4201D071
:10376000012030BD094D00210A224A435219137A23
:10377000022B02D15288A242F2D3491C0904090C3F
:103780000229F1D330BD00004EB00004A4A400040F
:10379000FFB581B006000D003C292CD82F00093759
:1037A0003806000EFEF7E6EF040024D0B90817D85B
:1037B00001000000943500A000020000ECB5F17D8E
:1037C00020891649001901600021017114492A005D
:1037D000096841711149C7800830783901608680D5
:1037E00085710399C01DFEF7B4EF0E4800220068F2
:1037F00021000123FEF790EF0498002803D1002157
:103800000120FEF7C6EF05B0F0BDB30512219B0DF8
:10381000B20A0420FEF7C0EFF5E700000A1400002A
:103820005058F4037C0D00B0034810B50068002226
:103830004B21FEF766EF10BD7C0D00B070B5064C55
:10384000258800F039F8054A20881388411BC918DB
:10385000401A1180208070BD04AA000406AA00044A
:103860000449054A497812780120914200D000208D
:1038700070470000000002A9000002A90248008869
:103880004007C00F704700004EB000040300002046
:103890008B4201DA401E70479342FCDD01207047E5
:1038A00010B580242000641C2404240C00F004F8CB
:1038B000BF2CF7D910BD0000F8B5002406008038F1
:1038C000104B11490004000C1A5C0D880F4F52195F
:1038D0000A801C5411E0A0003D58A8880005000D86
:1038E000B04207D11C3D2000FEF75AEF2800FEF73A
:1038F0005CEF02E0641C2406240E05480078844234
:10390000E9D3F8BD506A000404AA0004906A0004D8
:10391000F8A9000410B5C178827809020A43243856
:103920001C21431801810849C1610321197107490C
:1039300009685971111D418401000548042300687C
:10394000FEF7EAEE10BD00000B1400004C58F40323
:103950007C0D00B00A4930B40978002903D0094928
:103960000988002903D00849096830BC0847074A7C
:10397000074C11788B00491CE050117030BC704727
:10398000F7A9000404AA00040CAA0004F8A9000482
:10399000906A000470B504000D0000200DF04CF991
:1039A000052D19D1E188A088091D0A0410490005D8
:1039B0000978000D120C002912D00100E74F363BA8
:1039C00001000000903700A000020000185D4FC009
:1039D00080393F290ED80C4B1988491E19800B4994
:1039E000081880380178491C017003E0E088001F46
:1039F0000204120C0648210000681C392B00FEF757
:103A000096EE70BDF7A9000404AA0004506A0004F1
:103A1000540000040006001610B511F053FE0020FB
:103A2000FFF782FE10BD000070B50600107814008C
:103A3000E02886B004D120000DF068F9050000E010
:103A400011250021481EFEF7BEEE2279E178A0780C
:103A500003AB07C33300627821780191FF21029202
:103A600021310E2002A20095FEF7B0EE06B070BD27
:103A70005268626262626262000000000748417838
:103A8000002909D106490968012209024270090F7B
:103A900002002832515C817080787047100B00B0B2
:103AA00000200080F1B500200C490E680C4F340056
:103AB00005000AE0E10706D0A9007A58002A02D0E2
:103AC00000993000904764086D1C002CF2D1012849
:103AD00003D000990020FEF772EDF8BD009100A818
:103AE000E0F70200034881680122920411438160DB
:103AF00070470000009000A8F8B5012400253D4F54
:103B0000B888009072E03C49E000411808784E788F
:103B1000420660D503003F3BFEF75CEE0A6B1E1EBB
:103B200006130A0D1C181C1F641C2404240C5DE0E1
:103B300088783861F8E78878C97809020143798183
:103B4000F2E72E482022FEF70EEE03E08878787028
:103B5000C878B870301947E0891C49281CD07F28E4
:103B60001AD04888000B01D0088815E008780200B8
:103B7000AF3A072A01D9BF280ED10A7AD3030343EB
:103B800010091B0400011B0C00021843B22803D1CA
:103B9000497A0907090D0843184A002120320BE031
:103BA00006234B43D35A834203D16D1E2D062D0E9F
:103BB00004E0491C0906090EA942F1D30623594322
:103BC0005052881844804671301904046851D61E3A
:103BD000010000008C3900A000020000DF444D9D70
:103BE0006D1C240C2D062D0E0AE0022801D18978C7
:103BF00039700121002800D0310008190404240C78
:103C00000098844289D3F8BD001B00C0401D00C04D
:103C1000402700C010B504001248134A016812681A
:103C20000120904700281AD00122102C06D20F48FC
:103C30008168A24011438160006907E00B48403071
:103C4000416A103CA24011434162C06AE040084909
:103C5000C4070968E40F01208847200010BDFF2039
:103C600010BD000088A9000490A900040002009083
:103C700094A900040749401E8A780749424388787E
:103C800049781018401829300006000E442800D347
:103C900043207047E4A90004CC0C00B0F8B50C0038
:103CA000002706001500401E00971528177034D80D
:103CB0001C20FEF776ED002800902CD018490160FA
:103CC00021780172C90747721CD0012E1AD9072E1C
:103CD00013D36179102910D8A278617812021143A8
:103CE00081802279E17812021143C18062794272A7
:103CF000A11D0A30FEF740ED04E01220287068464E
:103D0000FEF776ED2878002804D106480168684659
:103D1000FEF74AEDF8BD072000E012202870F8BD3C
:103D20000E1400004C58F403F0B506000C001F0000
:103D3000002585B001F04EFC002804D0012816D0E3
:103D4000022814D10C25032E03D1A17860782A0013
:103D500002E01522002128000291019003922278AE
:103D600000920021FF205B2304A2FEF73AED002021
:103D700038700A98057005B0F0BD000056626262A6
:103D80006262000070B588B00C9D0C0012260428F9
:103D900020D100206B46D88361782078090208433F
:103DA0001883E178A0780902084358830E481C2143
:103DB000006806AAFEF7B8EC002800D02E702A781A
:103DC000E178A07802AB07C362782178019207A25C
:103DD000009102E02E7007A20096002154F7B2F97C
:103DE00001000000883B00A0000200002BACF32083
:103DF000FF206923FEF7FEEC08B070BD54000004FC
:103E0000566262626262620056626200F3B50C0042
:103E100081B0344F7878002804D02079FF2801D071
:103E200011F00CFC21793048FF29017109D1787813
:103E3000002804D011F002FC012011F033FB002017
:103E4000FEBD2178017061784170A1788170E178C0
:103E5000C1702179017161794171A1798171E17933
:103E6000C171217A01720091657A4572E17AA67A70
:103E700009020E434681217B0173019912290CD35B
:103E8000A27B617B12021143E27B237C12041B069E
:103E90001A4311430161617C02E0002101610421A8
:103EA00001751148019915301C2905D321000A22FA
:103EB0001231FEF76CEC03E0FF220A21FEF7FAEB69
:103EC000002E07D009496800085A864202D8009897
:103ED0000E2801D91220FEBDE806C00FB87011F0FF
:103EE00079FBACE7C00D00B0A49900B03C5BF403D3
:103EF000FEB538234343554C8E7A1C19CB7A4D7A44
:103F00001B021E430B7A2D022B430193A37C257CBD
:103F1000042B01D3002D79D10B795700022B05D04A
:103F2000032B36D0062B7FD1002058E07D220100E4
:103F30005201012001F0F0FA00210220617400908A
:103F400001980825112805D0132803D019286DD110
:103F500001250095207C002804D138212000FEF79F
:103F60008EEB0FE000208100625A002A05D109196A
:103F70004988002901D1E07404E0401C0006000ECD
:103F80000428F0D3E07C81000819C65325740098FA
:103F900049E0E07C800003190120002A00D00020C5
:103FA0004000185AB0423FD10220012D03D1012216
:103FB0002074627404E0082D02D109232374607414
:103FC000087B002805D1487B002802D1A07C401C3A
:103FD000A074E07C019982001019C15324E0810093
:103FE0000B19D95BB14212D10121002A60A4746A75
:103FF00001000000843D00A00002000032542D505A
:1040000000D000214900595A019B994209D18200F0
:10401000111900220A804A80A17C491EA17405E082
:1040200016E0401C0006000E0428E2D3002805D14B
:10403000082D05D0092D03D020746074002D08D000
:10404000207C002805D10CF05FFF00200CF068FFF9
:10405000FEBD607C0128FBD10CF056FFFEBD0000C8
:10406000500500041CB500200B490190009004008D
:10407000087020006A4601A900F064F8002801D009
:1040800000F04EF8641C2404240C082CF1D3009991
:1040900001980CF051FF1CBD84000004F1B500999B
:1040A0008A884E7B1005000D05000B2822D2920B4A
:1040B00000D00020164AC3009C182279002A19D08B
:1040C000E5808A888968120B002300F0FBFB002E34
:1040D00002D16079401C60710E480078012805D03B
:1040E0000D4801686846FEF774EBF8BD0098FEF7CE
:1040F00098EBF8BD88680949096888476846FEF763
:104100008CEB002EF5D10121280008F0B7FEF8BD98
:10411000F8690004F4A90004B85BF403C8B3000410
:10412000064810B50178002907D1012101707D20D2
:1041300003490022C000FEF778EB10BD84000004A4
:10414000F3130000F8B50D0000210091382116008E
:1041500041431A4A8C1800210FF0F2FD00282AD0A2
:10416000207DC11C8A07411C8000001983698907D2
:10417000920F890F002B0AD1876A002F07D1920076
:1041800012199769002F02D1926A002A01D00122E8
:104190000092002D08D0002E06D02A68D2182A607E
:1041A0003268806A1018306000228800001982612D
:1041B0008262627521750098F8BD00005005000408
:1041C00038B504000089011900910A7A052A0CD03B
:1041D000082A01D0142A0CD1C87A097B09020843A5
:1041E000002100F059F8002803D06846FEF714EBD0
:1041F00038BD07490868002802D10C60AACBA0018D
:1042000001000000803F00A000020000C6BC93ED4A
:1042100038BD080001680029FBD10460002020603F
:1042200038BD0000DC0C00B00FB410B50A486B4676
:10423000197B01715A7B002A09D01989018059899B
:10424000418003A94271891C801DFEF7B4EA10BCAD
:1042500008BC04B018470000E00C00B070B5114D68
:10426000286800281DD0281D0079C00719D00E4EDF
:104270002968C8880C68022805D12520425C30686E
:10428000921C022308E00889052340188278C07830
:10429000000202433068121DFEF770EA002C2C6009
:1042A000E6D170BDDC0C00B054000004F7B582B05C
:1042B000050000272F480468260053E0E188208984
:1042C00002292FD1049A0019002A01900BD0037BF8
:1042D000C27A1B021A43037A0498834240D1954262
:1042E0003ED1012729E0027A032A06D01B2A0AD1EF
:1042F000827AC07A0002024302E0C27A007BF9E7C8
:1043000095422DD119E0122A0AD0202A28D10A304C
:1043100003990622FDF72CFE002821D1E1880AE04E
:104320000B30F5E7001902784078000202431005CF
:10433000000DA84214D1002912D00E4B20001A689B
:104340009442226801D11A6000E032602468022998
:1043500003D101A8FEF76AEA04E00FF043FF01E091
:1043600026002468002C01D0002FA7D0380005B00B
:10437000F0BD0000DC0C00B038B50C00032812D1F1
:104380000820FEF72CEA09490090016021780171AC
:10439000A278617812021143C1800548016868461D
:1043A000FEF720EA38BD1220107038BDFD0C000069
:1043B000B45BF40338B50C0002280FD10820FEF7D7
:1043C0000EEA08490090016021780171617841711D
:1043D000054801686846FEF706EA38BD12201070ED
:1043E00038BD0000F40C0000B45BF4033EB50C00D3
:1043F0000C2810D10422210002A8FEF7DCE90822D3
:10440000211D6846FEF7D6E902A800F081C802DE49
:10441000010000007C4100A00002000023EBCEEA76
:1044200059FE684600F06EFE3EBD122010703EBD83
:1044300012230128137004D1087802490870002063
:1044400010707047C6F6020010B50400FEF704EACB
:104450000A21614308186038C07C012800D0002080
:1044600010BD000038B50C000D78497809020D43E5
:10447000290080393F2907D82200104B01001C6811
:104480000D480F4BA04738BD0820FEF7B2E9FF21C9
:104490007E31009001608580A1788171A07829002B
:1044A00000F074FF074801686846FEF7A6E9290096
:1044B0000120FEF7BAE938BD75FC000024AB00040A
:1044C0003C6B0004B45BF40384461000F8B5382359
:1044D00062465A431A4BD4188A78C97809020A43AB
:1044E000217C012907D0022905D0082901D00929FA
:1044F00003D1022302E0012300E000230121002870
:1045000000D000214E00A15B914206D1012B6374C3
:1045100002D101200CF00CFDF8BD01218D002D19F8
:10452000AD5B954206D1012B6374F5D161460BF06A
:1045300043FDF8BD491C0906090E0429EED3F8BD58
:1045400050050004F0B5482085B0FEF752E939491E
:10455000029009681522C01DFEF736E90298002571
:10456000817D467D0902027E0E43C17D1202114308
:104570000191417E0091C17E877E09020F433F2158
:10458000C41D81710520A073E57325746574A5743D
:10459000E07425756575A5753C20E5752076657612
:1045A000A076E5767D2025776077A577E5772034BE
:1045B00025706070A5700020E57000F08BFC207104
:1045C0006571A571E5710020257200F083FC6072B1
:1045D000A572E572257308206573A073E5732074D6
:1045E000657401990806800F039000F081FCA074A7
:1045F000039800F07DFCE074257501206575A075B9
:10460000E075102020766076300AA676E076380ACB
:10461000277760770099A1770298074AB11D82A297
:1046200001000000784300A000020000D70370578B
:10463000817911700449C01D0860FEF71CE902A8C9
:10464000FEF708E905B0F0BDB0AA000470AA0004A6
:10465000F0B5442085B0FEF7D6E8394902900968E4
:104660001122C01DFEF7BAE802980025817C467C25
:104670000902027D0E43C17C120211430191417D6A
:104680000091C17D877D09020F433B21C41D8171CB
:104690000520A072E57225736573A573E073257418
:1046A0006574A5743C20E57420756575A075E57585
:1046B0007D2025766076A576E57625776077A577E7
:1046C0000020E57700F010FC203420706570A570A4
:1046D000E5700020257100F007FC6071A571E5719F
:1046E000257208206572A072E572207365730199C6
:1046F0000806800F039000F005FCA073039800F0FB
:1047000001FCE073257401206574A074E07410202E
:1047100020756075300AA675E075380A27766076D0
:104720000099A1760298074A817911700449C01D49
:104730000860FEF7A4E802A8FEF78CE805B0F0BD1B
:10474000B0AA000470AA000410B50400FEF78EE8B9
:1047500000210A224A4312185279002A03D00A0083
:104760000832A24204D1491C0904090C0329F0D3E0
:1047700008310804000C10BDF8B500240600154FE0
:104780002500002128000FF0F9FA00281AD0002E89
:1047900003D1641C2406240E14E0012E08D1382015
:1047A0006843C019007C0128F3D00228F1D009E049
:1047B000022E07D138206843C019007C0828E8D0B1
:1047C0000928E6D06D1C2D042D0C082DD9D320000E
:1047D000F8BD000050050004002010B5FFF7CCFF25
:1047E00010BD000070B50125134C060063782A0047
:1047F000002B00D00022A0782900002800D0002142
:104800008A4203D1802B01D0607070BD002804D192
:10481000002E02D12178002902D100F07BF970BD71
:10482000E0780028FBD100220120044997175AF4B0
:1048300001000000744500A000020000CEFBAE277E
:1048400000031300E570FEF728E870BD4400000483
:104850000414000038B504000820FDF7DEEF00283E
:10486000009007D00449016004710448016868465B
:10487000FDF7D6EF38BD0000031400004C58F403D8
:1048800010B50400FEF70CE8FE20002C00D101203A
:10489000FFF7E0FF10BD000001000839022904D82D
:1048A00003494000085C012800D000207047000048
:1048B0006E71000410B50400FDF7E2EF0A216143B8
:1048C00008186038407D002800D0012010BD00008D
:1048D0007CB504000820FDF7A0EF0C4900900160B2
:1048E000002584800A4E857131686846FDF798EF8F
:1048F0000820FDF792EF05490190491C0160848072
:104900008571316801A8FDF78CEF7CBD9E13000016
:104910004C58F403FFB581B0060008284FD2382365
:10492000734328480D781C184878CB78000205435B
:1049300088781B029207677C1843920F012A3ED0A9
:10494000012806D000206074049A3000FFF7D0FDE3
:1049500003E0049A3000FFF7FDFA607C3200290082
:104960000BF01EFB04980028207D05D08000001964
:10497000816A4919816204E080000019816949193E
:104980008161FFF7F5FB607CB84218D0012801D1A6
:10499000012700E000270125022800D00025310072
:1049A0003800FDF782EF3100280000F01DFD3100D6
:1049B000380002F0EBFF607C31000BF00FFB05B01C
:1049C000F0BD00005005000438B54A780C7812029A
:1049D00014432200803A3F2A07D80E4B0A000100F8
:1049E0001C680B480023A04738BD0820FDF714EFD2
:1049F000FF217C310090016084800748016868468F
:104A0000FDF70EEF21000120FDF722EF38BD000079
:104A100074FC000024AB0004B45BF40370B5040024
:104A200008281CD2002211002000FFF7B3FBFFF77B
:104A3000DDFE00280CD10A4D28780028347FEC27B1
:104A400001000000704700A0000200003A13109A15
:104A500008D009480021FDF736EF0020010028703A
:104A60000CF09CFA38206043044940183821FDF7C7
:104A700042EE70BD84000004F313000050050004F2
:104A800071B581B0019A274E908894680B2839D26D
:104A9000254983001B1859188B78002B32D0FF232F
:104AA000F73300921360009A2389D3800A79521C4D
:104AB0000A711E490978012905D01D480168684618
:104AC000FDF7B8EE1BE021891C230D195843194945
:104AD00040181949407909688847009AA978D18017
:104AE000AA78E91CFDF78EEE0098FDF7F0EE2000A5
:104AF000FDF7B4EE306900221421FDF75CEE0020D2
:104B000001907CBD2000FDF7AAEE3069002214213F
:104B1000FDF750EE01980028F3D001A8FDF7AEEEA6
:104B20007CBD000044000004C06A0004F4A9000435
:104B3000B85BF40310820004D8B3000438B5040055
:104B400009F08EFC0820FDF772EE08490090002C59
:104B5000016001D0002100E001210171044844708E
:104B6000044801686846FDF766EE38BDCE0C0000CB
:104B700044000004C05BF40338B50C000D7849789C
:104B800009020D43290080393F2907D822000F4B25
:104B900001001C680C480E4BA04738BD0820FDF7EB
:104BA00046EEFF218031009001608580A1788171FF
:104BB000E178C171074801686846FDF73CEE2900BD
:104BC0000120FDF750EE38BDE9FC000024AB0004E5
:104BD0003C6B0004B45BF403026801231104090C6C
:104BE0009B07491C1A4011430A009A43082A01D323
:104BF0005940194001607047FEB5184C184E00220C
:104C00001648D243009201220321283801ABFDF758
:104C100062EE01980028F2D00128F0D1FDF76EFB7A
:104C2000104D070011E070680C230004000C58437D
:104C300040190AD00278052A05D29100615800294E
:104C400001D0002A00D121688847706805BB8040E8
:104C5000010000006C4900A000020000FD0A12C71C
:104C600031688842E9D13800FDF756FBD1E70000F2
:104C7000A8B200B0801300C0881300C00100034830
:104C8000002210B5FDF734EE10BD000080B200B078
:104C900070B50AF0EDF80A48002200680D21FDF712
:104CA00094ED084D2C6804E06068002800D080472F
:104CB0002468002CF8D10CF0F1F80AF0D1F8F1E7F3
:104CC0004C00000488000004134810B50168080077
:104CD000FF306130C28803231B039A43C280C2881D
:104CE00001231B031A43C2801622CA840B4ACA87B7
:104CF000018840221143018009480078012802D12F
:104D000000200EF0B7F8074948680A0C9043486045
:104D10000EF074F910BD000000AF000440800000E8
:104D2000CC0C00B040230080F7B51300140415002C
:104D30003E4E0700240C3668010082B0039A30A072
:104D4000B04703993800FDF7ECEC002955D10398E2
:104D5000854234DD03992800FDF7CEED681A334E05
:104D600004043268240C210031A0904723E0039909
:104D70002000FDF7D6EC002919D1002F3DD02B4E95
:104D8000009736682B00039A210033A0B047BC423D
:104D900005D939002000FDF7C4EC00292DD0BC4214
:104DA00005D821003800FDF7BCEC002925D0039878
:104DB000201A0404240C03988442D8D21DE01B4A14
:104DC00000261268290034A0904710E0174B019A82
:104DD0001B6839003AA0984701993800FDF7A0EC0C
:104DE000002901D1019C08E0B61C3604360CA81B32
:104DF0000004000C06280190E8D2200005B0F0BDA8
:104E0000756954736E6966662025642C2075695433
:104E10006573636F2025642C207569546172676522
:104E20007454736E6966662025640A00D8A900046C
:104E30004361736520313A20496E697469616C2061
:104E400075694E657754617267657454736E6966EF
:104E500066203D2025640A0075694E6595422F8FB6
:104E600001000000684B00A00002000009E2AC7ADB
:104E70007754617267657454736E69666620256441
:104E8000207569546573636F2025642075695461CA
:104E90007267657454736E6966662025642075694F
:104EA00054736E6966662025640A00004361736569
:104EB00020323A20496E697469616C2075695461C9
:104EC0007267657454736E696666203D2025640AB6
:104ED000000000004361736520323A207569547305
:104EE0006E696666202564207544697669736F7201
:104EF000202564203D2025640A000000F8B5060046
:104F00000F00FDF708ED05000C20FDF7A4EC88214B
:104F1000714300904D19E91D062280C0FDF786EC13
:104F20000099287D8872034801686846FDF796EC71
:104F3000F8BD000070AC0004002807D0012803D0A1
:104F4000022805D0032800D00020704702207047B7
:104F500001207047002807D0012807D0022807D079
:104F6000032807D1042070470120704702207047B2
:104F70000320704700207047FEB5FDF7D0EC050018
:104F80008007800FFFF7D8FF0D490C4E019009688C
:104F900030008847012801D0012400E0002409499D
:104FA0007D270968BF0130008847074B009021002A
:104FB0001C683A0001982B00A047FEBDFFFF0000CF
:104FC00028B5000424B5000434B500040C2358436C
:104FD00001494018008970479C9800B0F8B5060058
:104FE0000020FDF7A0EC0F4F0500796B00248842EC
:104FF00003D00D48C562FDF79AEC082E7D630CD0F6
:10500000102E06D0FDF792EC0406FDF790EC00049C
:105010000443FDF78CEC00020443FDF788EC2043C9
:10502000F8BD0000B0F6020080AC000438B5040002
:105030002AD016481C234088154958434018007947
:10504000A04221D11348007800281DD01249012028
:10505000C874FDF770EC1149600009684018018DB3
:10506000022211430185FDF76AECD125046319D5AD
:1050700001000000644D00A000020000101A720A36
:105080002D0121002800FDF768EC0A48290002687C
:105090000092220004200023FDF762EC38BD0000DE
:1050A000E0AC0004108200044CAF0004B0F6020033
:1050B000B0AE0004C05BF4031C235843134910B581
:1050C00040180079124C002809D1E17E1148FDF703
:1050D0004CEC1048E17F0838FDF746EC10BD0D4858
:1050E000617F001FFDF740EC0320FDF742EC002834
:1050F000F4D109480068018849084900018007483F
:105100000068018849084900018010BD1082000430
:105110004083000404AD0004ACAE000498AE00046B
:10512000F8B505000E001700FDF7FEEB8821694376
:105130000C182034A07C012806D13A003100280048
:10514000FDF71AEC0020A074F8BD00000178427849
:10515000C907D206C90F920E11438278C078D207D0
:10516000D20DC0061143800C014303480068FF3094
:10517000FF30801CC183704700AF00040178CA076C
:105180004178D20FC906890E0A438178C906490DB4
:105190000A43C178C9020A430A490B68112149012F
:1051A00059180A8002794379D207DB06D20F9B0E89
:1051B0001A438379C079DB065B0D1A43C0020243B0
:1051C0004A80704700AF00040249488102490880C4
:1051D00070470000CC0C00B098AD000402498881F3
:1051E0000249088070470000CC0C00B09AAD000462
:1051F0000849C97900290BD00749FF220968521CC8
:1052000040310028888801D0104300E09043888016
:105210007047000040660004E0AE0004F8B50C00E2
:10522000070015001E00FDF7ACEB74217943081848
:105230004030818A2180418B2980C08B3080F8BD2D
:1052400010B50400FDF79CEB74216143425C002A19
:1052500006D0081840300079032801D1012010BD84
:10526000002010BDF3B5040083B02F4D68790128EC
:105270003FD12E4B00201A68C100565ACE8B99425E
:1052800001000000604F00A000020000E4F2CCB773
:105290003607360F0A2E04D1565A36093601761CC7
:1052A0005652401C0004000C0E28EED3AE8901209B
:1052B0004002864201D9060002E0402E00D240267C
:1052C0000020FDF744EB07001020FFF79BFE3100A4
:1052D000FDF744EA781886011A48B609EE640068BA
:1052E000008FC107184800D001210174017C0172B0
:1052F000AA89E989019200912B7C144D01222D6825
:1053000031000C20A84712480078002813D008204C
:10531000FDF7B4EAFF215C31029001602178017150
:1053200061784171A17881710499C171094801685E
:1053300002A8FDF7A8EA05B0F0BD000004A1000432
:10534000A4AE000400AF000444A10004CCB50004E6
:1053500038AD000470AC000410B504000020FDF767
:105360001EEBFF21193161430818817C002901D00F
:105370000D2905D140300078002803D0092801D03C
:10538000012010BD002010BD042008B5FDF776EA0D
:10539000044900900160044801686846FDF772EA1C
:1053A00008BD0000A40F00003058F4030121814023
:1053B0000248827F1143817770470000B0F60200F7
:1053C00070B504000C4E008A01252A00B178824095
:1053D000114203D0FDF7E6EA607600E06576208AA8
:1053E0002900727881402B000A4203D0FDF7DEEAE3
:1053F000207670BD237670BD10A4000470B50D003A
:105400001400012A07D9401B0019401E2100FDF796
:1054100092EA4443601970BD0122054B8A40597DD0
:10542000002802D00A435A75704791435975704756
:10543000B0F6020010B5FDF7EEE82021081A0004CE
:10544000000C02D0401E0004000C10BD10B50C0072
:10545000002814D02000FDF7AEEA00280FD01C2051
:105460006043074940180079002808D10548005DCD
:10547000002804D1012212212000FDF7A0EA10BD6E
:105480001082000498AF000400B5008A4C9ECD74D1
:10549000010000005C5100A0000200009AE96B07C7
:1054A000FFF7B2FD904201D9012000BD002000BDF0
:1054B0000100034810B54078FDF78EEA10BD0000EA
:1054C000D0F60200014949780840704710A4000452
:1054D0000300084800B5407FFFF7F4FF002806D01E
:1054E000998A0720072900D20800988200BD024847
:1054F0000088FAE7B0F6020046B000040121034A32
:105500008140907F8843907770470000B0F602009A
:10551000F7B504001600807E0025002859D12E48DA
:105520000078012855D94020005D002851D1208AFB
:10553000FDF756EA002815D1284F208A01217A78F4
:1055400081400A420ED1264A019912689047397962
:10555000884207D3618A01E005042D0C4819B04246
:10556000FAD336E0618A4800B04232D81D481E4A5C
:1055700000781278104301D00D002AE0207E627E70
:1055800000268018E28A4008002A01D1A28D00E09E
:10559000A28A401E1018030414481B0C807F0028A8
:1055A00002D05B1C1B041B0C994200D20B00FFF7BE
:1055B00089FF002801D00A2606E00D48807EFFF70B
:1055C00081FF002800D00826608A9919814200D9FD
:1055D00005002800FEBD000044B0000410A4000433
:1055E00044B500044CAF00044BAF0004B0F6020019
:1055F000D0A0000470B5160001228A408C00094931
:10560000074D4B78002805D01A434A70FDF7ECE9A6
:10561000801902E0934300204B70285170BD0000B8
:10562000EC9700B0D0F6020030B50122054D064BD4
:10563000285C9C688240002901D0144300E0944318
:105640009C6030BDA0AF000450A0000401228A403D
:10565000044900280B7802D01A430A70704793431C
:105660000B707047D0F6020070B50C000978144D2D
:1056700001290AD0022908D003291FD101281DD1F0
:105680002878012816D0022202E0012804D1012244
:10569000002108000B0008E003280FD19D037E5E67
:1056A00001000000585300A0000200006E01D5BAAE
:1056B000A0786378000203430021012208000BF068
:1056C00013FB2078002801D020782870012070BDBD
:1056D000002070BDC80B00B038B500240878F12850
:1056E00007D0F22805D10320009001206946FFF77A
:1056F000C5FF200038BD0000F8B504000600194FB2
:105700000D0038781C3E00280AD017480079C007E1
:105710000BD000200BF0A8F9002806D0032D04D0F0
:105720003000F580FEF7BAFDF8BD00200BF01AFB43
:10573000207A0E280CD1207BE17A8207920D11434A
:1057400080083F2804D15A2902D100200BF01EFB0B
:10575000FEF7E8FD627A3869921C2B003100FDF7F4
:1057600072E8F8BD44000004E00C00B0F1B5009808
:10577000C17A857A047A4068090206060D43360E1E
:105780006846FDF7B8E82A00210030000BF0DCF98C
:10579000F8BD0000F8B5150006000A4C302021784D
:1057A0001A004843084B069FC018491C30602170FE
:1057B00000922B003A00611CFDF724E90006000E60
:1057C000F8BD0000600000046C9500B00C4900209A
:1057D00010B508700B48416900290FD101214161C2
:1057E000002000F0B5F8002801D100F053FA00F0D5
:1057F000A1F8002000F07CF8FEF70AFA10BD0000C6
:10580000402700C0001B00C0002310B51A008370A1
:1058100004E0845CE3181B061B0E521C8A42F8D37A
:105820000121C91A817010BDFFB5FF2100240500B8
:10583000491C204881B0FCF79AEF1E4A28680821CD
:105840001060042029E02B5CE340A41C9B07240685
:105850009B0F240E082C03D1401C00240006000ED0
:10586000032B12D12B5C002C04D1401C0006000E2F
:1058700053540FE0401CE3400006000E0827535429
:105880002E5C3F1BBE401E4303E0FF26022B00D0D0
:105890001E005654491C0906090E029B9842D2D399
:1058A0000498017003980260049800781479F2EF6C
:1058B00001000000545500A00002000077F90BCA57
:1058C000508005B0F0BD0000401B00C00B4910B572
:1058D0000888702210430880094B002005240A889C
:1058E0001A400A800A8822430A80401C3C28F6DBC2
:1058F00008882F22D2431040088010BD2406009053
:10590000F0FF0000F8B504000D4D0E4F13E0A001AC
:10591000060000F027F800280AD0300000F088F9CF
:105920002A89D300DB1903C3601C521CE8802A813A
:10593000641C2404240CA8888442E8D3F8BD000029
:10594000001B00C0401D00C00249FF20403088807D
:1059500070470000001B00C00148408970470000EC
:10596000001B00C010B50400FBF7E0FD0021200083
:1059700000F00EF805480088800701D5012400E0FA
:105980000024FBF7F9FD200010BD00001806009070
:105990000C4A1369984209D010610B4B0204920D16
:1059A0001A80094A8006800E2032108008010649BC
:1059B000401C0C3108800449091D08880004FCD5EE
:1059C00070470000201B00C01C060090F8B5144D65
:1059D0002888702108432880124F002426003B208D
:1059E000021B11493800FCF7E2EAC007C00F310082
:1059F000001871418100014328880F22D2431040D2
:105A0000084328802888052108432880641C3C2CF2
:105A1000E5DB28882F21C94308402880F8BD000015
:105A200024060090C61A6BACB1C61A0BFFB5C3B002
:105A3000684600F093F800282DD06B465C884498A7
:105A4000844228D800256E4605E07059FCF7E8EF3F
:105A5000439948512D1DA542F7D345982018FCF7CE
:105A6000E0EF4399486043982100FFF7D7FE38489C
:105A7000002762E009065DD53549449B40184088FF
:105A8000C1003448081881880A0B0E05360DA1198B
:105A90009942419202D9012047B0F0BD002A02D1BB
:105AA000801C42900EE02C4B92003106D218090E59
:105AB000801C403AD56B40AA41ABA84710C255F6AE
:105AC00001000000505700A0000200008311B577CC
:105AD000409840AB42901E79006880218843FCF7D3
