:1000000001000000000000A0000200000AB6BD1BB5
:100010001CF09FE51CF09FE51CF09FE51CF09FE5A0
:100020001CF09FE51CF09FE51CF09FE51CF09FE590
:1000300000280EFF6C220000B4210000C421000043
:100040001C2200002C2200003C2200004C22000058
:1000500058220000000000EA510700EA28008FE261
:10006000000C90E800A08AE000B08BE001704AE24A
:100070000B005AE14A07000A0F00BAE814E04FE209
:10008000010013E303F0471013FF2FE1C811030031
:10009000081203000030A0E30040A0E30050A0E3FA
:1000A0000060A0E3102052E27800A128FCFFFF8A44
:1000B000822EB0E13000A128003081451EFF2FE1E3
:1000C00004309FE503308FE013FF2FE1991F0000FC
:1000D0001D48802110B502F0D2E91C48582102F0D9
:1000E000CEE91B4800210A0006C0202117485830DD
:1000F00002F0C4E9002010BDF0B50024144F083709
:10010000012609E0C51968682DF0E4FB6968300034
:10011000884010498860641CE00039580029F1D1FA
:100120000B4F0024283709E0C51968682DF0D2FB71
:1001300069683000884008498860641CE0003958CC
:100140000029F1D10020F0BDE8130300D40400041D
:1001500008000004009000A8009100A8574804225D
:10016000062102704170027241727047F8B514F0B6
:1001700053FB002803D014F0F7FA002879D14F4838
:1001800000241838046000F0FEF903F047FC4C49E5
:100190000D5C0FF075FE290002F074E9494E230052
:1001A000320002F074E9401C614105042D0C03F09B
:1001B00035FC454940000F5A14F0C4FD390002F0E7
:1001C00062E92300320002F062E9401C6141000450
:1001D000000C290000F0E6F903F020FC3B490D5C1F
:1001E0000FF04EFE290002F04EE92300320002F02B
:1001F0004EE9401C614105042D0C03F00FFC34490D
:100200000F5C0FF03DFE390002F03CE98585CDD34F
:1002100001000000FC0100A000020000CE6362307B
:100220002300320002F03CE9401C61410004000C54
:10023000290001F02CFD082001F018FD0FF02AFE26
:10024000310002F032E9401C0004000C01F017FDFF
:100250000FF020FE052102F020E9234A230002F0DE
:1002600020E91922801861410006000E01F015FDF9
:10027000601E12F083FFFF24641C200013F08EFD2B
:10028000200013F093FD12F035FF12F057FF4020CD
:1002900016F0E8FC00F0B9F900F0A5F90C200FF019
:1002A00051FEC0200FF04EFE13F008FD13F02AFDA2
:1002B00013F04AFD13F01AFD30200FF043FE032027
:1002C00000020FF03FFEFFF753FF00F0ADF8F8BD5E
:1002D000280A00B030F8020040420F001AF802006D
:1002E00046F802003BF80200C0C62D0010402DE980
:1002F000B21600FA78409FE5000094E5000050E354
:100300000300000AF30000FA000094E5000050E347
:10031000EE52001B7F0100FA0000A0E3D14F00FA6B
:10032000090100FB0000A0E3E40000FBE40000FA88
:10033000000094E5000050E3D500001B280100FAFE
:10034000580100FB000094E5000050E30100000AA2
:10035000250100FB555100FA220100FB00000FE1CE
:10036000BF0000E200F021E1435A00FA0000A0E3E0
:100370001080BDE8841700B010B500F0BBFB02F0A0
:1003800098E814F015FA00F08FFB002801D0012046
:1003900010BD15F00DFD002010BD10B5FFF7F0FEEB
:1003A00001F07CFE0400012012F0B0FD200001F0FD
:1003B00079FE14F03BFA002805D014F0DFF900288C
:1003C00001D013F08BFF002010BD10B515F01AFB03
:1003D00010BD30B59408002203E09300CD58521CA4
:1003E000C550A242F9D330BD9308002210B502E0F7
:1003F0009400521C01519A42FAD310BD4B22094875
:100400001202002110B5FFF7EFFF03220B2052026A
:1004100000210007FFF7E8FF00F0F6F902125AA6E4
:1004200001000000F80300A0000200003A8BDC8D00
:1004300000F068F8002010BD605E00047047000006
:10044000084810B50168084B0A001031080019600F
:10045000111D5960242102F026E80449022015F0FC
:1004600087FC10BD647900B06C0A00B081200100E7
:10047000F8B5002425001C48A70014266643C55182
:100480001A481421301802F00EE8184814211430CC
:10049000301802F008E8154814212830301802F00E
:1004A00002E8114830222838C159104862433C30D4
:1004B0001018C4608160456185610D49C5610161A5
:1004C0000C4901620C498562416202F000E8641C3B
:1004D000012CD0DB094908202DF010FA0849FF2033
:1004E000401C8860F8BD0000F81700B058B400B098
:1004F00081E7020065E8020025E40200E5E502006C
:10050000009000A80F490E4810B508600F490E482A
:10051000086010490E48086010490F4808601149EA
:100520000F4808601048802101F0BCEF0E48802180
:10053000803001F0B8EF0D48802101F0B4EF10BD1C
:10054000D52F01008CA90004C52F010090A900043B
:10055000292F010094A900044054890084A90004B3
:10056000A086010088A90004D87D00B0D87E00B024
:1005700010B5084C00206062DF200002E0620648EF
:10058000A06201210548490201F08CEF0120606260
:10059000002010BDC09B00A800ADDEEF587F00B06A
:1005A0003F484068C1683F4A1143C160704700B589
:1005B000FFF7F6FF3A4840684168012252021143B2
:1005C00041604168D2001143416000BD090401430C
:1005D000334840688161704731484068C0300168E5
:1005E000402211430160704770472D484068C03079
:1005F0004168372211434160704729484068FF3005
:10060000413041681D229143416070472448406851
:10061000FF30413041681D2211434160704720483E
:100620004068FF304130416802229143FFCAF2B175
:1006300001000000F40500A000020000237302FD89
:10064000416070471B484068FF30413041680222DA
:100650001143416070471748406880304168062266
:1006600091434160704713484068803041680622DA
:100670001143416070470F4A52688032536A090142
:100680001B0F1B0709090B435362116A4003C90C76
:10069000C904400B0143116210681F2109048843FB
:1006A00001210905401810601068490008431060D6
:1006B00070470000740A00B08F0300008DC08FE205
:1006C0001CFF2FE10121092000070160002141608A
:1006D0007047594801210160002141607047574827
:1006E000016B80221143016370477047544800B585
:1006F0000068002801D0FFF7F2FFFFF7EAFF00BD16
:1007000010B5504C05F02CFCA04220D04E494F4B68
:10071000084099690F22D2059143020752090A4302
:100720009A614A4B403319683022914302400A4390
:100730001A60000A4107464A490F0429117001DD79
:1007400004211170000702D510784042107010BDCE
:10075000FF2310B5C133202403F07EF9052803D010
:1007600003F07AF9012801D101235B02210018006E
:1007700012F007FC10BD70B513F008FE13F024FF53
:1007800011F0D8FE7D24E4010021200013F028FFA1
:100790000021200013F02AFF0021200013F0C2FFE7
:1007A0000021200013F0C4FF2A4C0221200013F086
:1007B0001DFF0221200013F0BBFF214D264C2868AD
:1007C000002804D020680121C905884320606068A2
:1007D000224908406060E068172149020843E06050
:1007E00013F0ACFF2168C2061D4801D5014300E0AB
:1007F000814362686260216021680143216028684A
:10080000002802D0B52016F07BFA70BD7047704703
:1008100070477047704710B514F0B8FA114C0028B3
:1008200002D014F0BDFA01E014F0CCFAE06010BD83
:100830000E490D4808607047003000A8D75727CAF6
:1008400001000000F00700A000020000D79BBC40A0
:10085000400C0090841700B0FFFF00003F0F000025
:1008600000290080740A00B0409C00000021008034
:10087000FF7FFF7F00000020700B00B009300100F7
:10088000F40C00B0F8B5304800680002000F0828EA
:1008900028D12E4C6069E5042843606160694000FE
:1008A0004008606120680826304320602068EF120D
:1008B000B84320604821452013F058FE0421482009
:1008C00013F054FE206830432060206838432060D5
:1008D000322012F0C9FB606928436061606921051C
:1008E00008436061F8BD1A4810B5006800282AD096
:1008F0002EF046FEFFF7C6FF2021192013F01AFE46
:100900000221162013F016FE3721332013F02EFE9D
:100910009421242013F02AFE262013F0FFFD8008E6
:100920008000022108430106090E262013F01EFE56
:100930006621412013F01AFE2EF072FD13F0A4FC84
:10094000642012F091FB10BD002000800028008080
:10095000841700B0F8B5594C594D2068002804D0D0
:10096000E8172860686013F009FB5648016A4900DF
:1009700049080162544807210161052141610621AE
:1009800081615249002088600B20514900070122F3
:100990001204036880188842FBD300200168801885
:1009A0009042FBD30120800600684448006800287C
:1009B0007ED02EF0E5FD2EF033FD4148416B020D57
:1009C0001143416301686F2291430160C168890945
:1009D0008901C1603F48416A702291434162816947
:1009E00091438161816A020C1143816213F0B0FE70
:1009F000040080070DD53848C168090109D5C168D0
:100A00000F2212059143C160C1680722920511436C
:100A1000C160304D0326314F2107803D36020F2043
:100A2000002922DA610610D4A00712D43868022106
:100A3000884338602869B043286128698843286161
:100A400028690D21084328611FE0A107DA04077017
:100A500001000000EC0900A0000200001082BE1D91
:100A600001D4610612D516F01DF9212817D3286983
:100A70003043286138680A21884338600FE06106F6
:100A800001D4A10702D52969314304E02969B143A2
:100A90002961296901432961396801433960A00648
:100AA00005D40C49C868192292039043C8600848CD
:100AB0000068002809D00848012149044162891CC6
:100AC000816200E001E00B49C1620020F8BD000036
:100AD000841700B000210080C0900090000800A89A
:100AE00000230080000001B000290080802F0080DA
:100AF000802700800202020000B50D49002087B067
:100B00000860020001001E2003AB07C30200094871
:100B1000FF21491C6B4607C3A838074A002307A1D9
:100B200001F0F6EC0006000E00D0012007B000BD79
:100B300088000004940D0004994C000049646C6521
:100B40000000000010B5FFF7B1FC10F04DFE15F0ED
:100B5000D5FC15F061FC15F0A3FC10BD12483C213A
:100B600010B501F0BEEC1048114A42600F49114A1D
:100B70000160826081610021016201630E4A41636C
:100B8000C2620E4C81630E48EE22210001F0C4ECDB
:100B90000B480C4B0422210001F0C2EC10BD10B533
:100BA00000F040FB002010BD000000B0BD3100008F
:100BB000AD2F00006D3400001DEC0000DC050000CE
:100BC000100700045FF2F303F8B5BF4D28680C214D
:100BD00088432860BD4CE068A10C0843E060E068F1
:100BE000072149020843E060E06801210906084343
:100BF000E060E06880098001E060E06809148843F3
:100C0000E060E06809018843E060E0684F03B843B2
:100C1000E060E0680721C9068843E060E068F910F9
:100C20000843E0602068AA49084320607D20002135
:100C3000400213F0E9FC7D26F6010021300013F09C
:100C400085FD0021300013F0E5FC0021300013F099
:100C500083FDA048016A1026314301621FBF7F1344
:100C600001000000E80B00A000020000E46A00A000
:100C700028680C218843286068686105884368609B
:100C800013F008FEA868E1040843A860286903215E
:100C900009068843286128693843286193494868D0
:100CA00000204860486819221206104348608F48A7
:100CB0008030036840229343036003680F273F029C
:100CC000BB430360036803277F023B430360036861
:100CD0000F273F03BB430360036803277F033B43A6
:100CE000036003681B091B010360036806273B437D
:100CF00003602868104328602868302398432860E0
:100D00002868304328600868012318430860086891
:100D1000B8430860E068090D0843E060A06A10432A
:100D2000A062180013F02CFF012013F089F9F8BD20
:100D300010B510F0B3FB6E4908806E486E49000C88
:100D4000000408606E496D4808606F496D4808608E
:100D50006F496E48086070496E48086070496F4876
:100D6000086071496F4808607149704808607249AD
:100D7000704808607249714808607349714808609A
:100D8000734972480860744972480860744973482E
:100D90000860754973480860754974480860764969
:100DA0007448086076497548086077497548086056
:100DB00077497648086078497648086078497748E6
:100DC00008607949774808607848794908607A4925
:100DD000784808607A49794808607B497948086012
:100DE0007B497A4808607C497A4808607C497B489E
:100DF000086010BD0121080010B50DF019FC02F0CB
:100E000049FE78494000085A7749086000F06CFABA
:100E1000022101200DF00CFCFFF7E0FE0321012070
:100E20000DF006FC00F052FB042101200DF000FC47
:100E3000FF226E4919321C2001F080EB05210120B0
:100E40000DF0F6FB062101200DF0F2FBFFF770FF1D
:100E5000072101200DF0ECFB6549E120400208600C
:100E60002CF0F2FD082101200DF0E2FBB48E88B4D5
:100E700001000000E40D00A000020000FD92DED0A1
:100E80006049042207202CF08BFE092101200DF07F
:100E9000D9FB5D4800210A0006C05B4A5B495C48FB
:100EA0005C4B01F05AEB0A2101200DF0CBFB00F066
:100EB00033FA0B2101200DF0C5FB00F0ABF90C213A
:100EC00001200DF0BFFB00F0A7F80D2101200DF06F
:100ED000B9FB0E2101200DF0B5FB002010BD10B5AF
:100EE00000F02AFA00F05EFB00F098F9002010BD37
:100EF000002F00800021008000081C2000280080B6
:100F00008026008040AD00046C2100B034AF0004A6
:100F10000BEE0000D8A90004858B0000C8A90004CE
:100F2000C58B0000CCA90004D78B0000D4A9000415
:100F3000DD8B0000D0A9000459F3000018AB0004B9
:100F4000DDEE00001CAB0004C1EE000020AB00048D
:100F50000DEE000024AB0004B965000054B000049D
:100F6000D165000058B000040D6600005CB00004BC
:100F7000ED47000050B0000441F2000028AB00042F
:100F8000E5F100002CAB00045DF3000038AB000479
:100F9000A9F300003CAB0004ADF3000040AB00043B
:100FA00061F2000008AB000441F300001CB500042E
:100FB000EDDB000018AA0004314D010030AB000445
:100FC000154D010034AB000469DB000010AA0004D9
:100FD00019DB000014AA00048DDD00000CAA000437
:100FE000CDDE000008AA0004E916010000AB0004F1
:100FF000A116010004AB000404F80200E8A90004F3
:10100000902B0004F0A90004080C00B0F81C0000AC
:10101000980E0004AC0900B00449034810B54860BC
:10102000080014F0EBFE10BDBD1F01002C0C00B039
:1010300011491048086012491048086012491148C7
:1010400008601349114808601349124808601449A0
:10105000124808601449134808601549134808608D
:10106000154914480860164914480860164915487F
:1010700008607047E9DC0000CCB30004FC9CAD2F95
:1010800001000000E00F00A000020000097A606D7E
:101090003DDC0000BCB3000475DC0000C0B30004FC
:1010A00081DC0000C4B30004ADDC0000C8B3000460
:1010B00045DD0000DCB3000461DD0000E0B30004A6
:1010C000EDDC0000D0B3000409DD0000D4B300045F
:1010D00079DD0000E4B3000431DD0000D8B3000482
:1010E00010B50124A4022048EE22210086B001F0B0
:1010F00032EA27F0D9FB23F071FD012200210C20F8
:1011000003AB07C30200184802920090174A001967
:10111000002317A1019401F01AEA00281DD11948F3
:1011200015A101F028EA18481A4A41681748816059
:1011300017490161002141618261174AC161026260
:1011400041621649816201F0FEE9002805D1144987
:1011500011202CF00FFC002802D0012006B010BD99
:1011600000F086FD0020F9E7503400046DE3010033
:101170004E66635461736B004E6663466C616773C1
:1011800000000000F83800049C0C00B0989500B0F6
:10119000917D0200C98F020051C10200C1510200BD
:1011A0009160010010B500F0BFFF1B4C6060A168AA
:1011B000002904D0491CA16000F0BAFF10BD002135
:1011C000012011F033FFA068401CA0600020C04344
:1011D00020610020E06011480168820B114301602A
:1011E00010490F480880091F088005F0A5F810BDB8
:1011F00010B5094CA068012802D9401EA06010BD9E
:1012000005F07EF80020A060012011F0C5FE6068A6
:1012100000F08EFF10BD0000201B00C000210080E8
:10122000FFFF00005006009006490020088070472C
:101230000649054808600749054808600749064807
:1012400008607047189800B0392D01002CBB0004CD
:10125000092D010028BB0004852C010024BB0004DB
:101260001149104808601249104808601249114895
:1012700008601349114889680860134911480860DB
:1012800013491248086014491248086084325263B6
:1012900001000000DC1100A0000200007761C7DD42
:1012A000144913480860154913480860184814A1E8
:1012B000016018A141607047C5AA0000ECB60004A7
:1012C000DDAA0000F0B6000471A70000E0B600043B
:1012D000600E00A9FC0C00B011AC00002CB700049B
:1012E000E9AA000000B7000401AB000008B7000441
:1012F000D1AB000020B70004081000A9A4B000047E
:101300006D6465765F6169757265636F7264000014
:10131000C0B000046D6465765F616975706C617959
:101320000000000070B500240B4D04E04019406837
:101330002CF02AFB641CE00029580029F6D170BD6E
:1013400006488168FF22521C114381608168102287
:1013500011438160704700001C0D00B0009000A890
:1013600010490F4810B5086010490F48086011492E
:101370000F480860114910480860FFF76DFE00F043
:101380002BF800F091FC0F490D4808600F490E48FA
:10139000086001F0FEE80F490D48086010BD00002C
:1013A000A71E010050B400049D1E010048B40004B3
:1013B000A51E01004CB40004BD7500004CB3000430
:1013C000F5DE000068B7000479E200006CB70004A5
:1013D000E5D60000E8BA0004164915480860174928
:1013E00015480860174916480860184916480860EB
:1013F00018491748086019491748086019491848DA
:1014000008601A49184808601A49194808601B49B9
:10141000194808601B491A4808601C491A480860A6
:101420001C491B4808601D491B48086070470000A4
:101430002979000000B4000401790000F8B3000429
:1014400015790000FCB30004E179000004B4000445
:101450000D7A000014B40004297A000018B40004C6
:101460003D7A00001CB40004F979000010B40004B7
:1014700001DA000008B40004E97900000CB40004AB
:10148000ED780000F4B30004D9780000F0B3000454
:1014900039D9000094BB0004B1F30000ECC498E912
:1014A00001000000D81300A00002000083897960C9
:1014B00090BB0004F7B5012082B00D0001900888B0
:1014C00046082EF045F8710002980F0012F0D8FD82
:1014D000012409E0029A6000295A8018801E000445
:1014E000000C12F0CDFD641CB442F3DD7819418884
:1014F000029812F0C5FD2DF0AFFF2EF053F84920F1
:1015000012F0BAFD04990842F9D0000601D5002076
:1015100001902DF0B1FF019805B0F0BD2B4970B5D9
:1015200048680E0C304348602EF03CF8092012F059
:10153000A3FD0C210143092012F0A6FD152012F095
:101540009BFDBF210140152012F09EFD4A2012F0A4
:1015500093FD0621050001434A2012F095FD002469
:10156000472012F089FD641C0A2CF9DB2900F920C0
:1015700001404A2012F088FD492012F07DFD102123
:101580000143492012F080FD002012F075FD104942
:101590000870012012F070FD0E4908702DF06CFFEC
:1015A0000D4920223000FFF785FF002807D01F20BB
:1015B0000A494022C002FFF77DFF002800D1FEE764
:1015C00000F058FB012012F07DFD70BD402300802B
:1015D00090000004910000046C2100B00C1800B0D1
:1015E00070B50025BB49BA480860BC49BA480860D4
:1015F000BC49BB480860BD49BB480860BD49BC4800
:101600000860BE49BC480860BE49BD480860BF4983
:10161000BD480860BF49BE480860C049BE48086070
:10162000C04CBF48E064C149E062BF480860C1499E
:10163000BF480860C149C0480860C249C048086046
:10164000C249C1480860C349C1480860C349C2488B
:101650000860C449C2480860C449C3480860C44817
:10166000C5498571C3480860C44901208877C549C8
:10167000C3480860C448C5490860C649C4480860F2
:10168000C649C5480860C749C5480860C749C64833
:101690000860C849C6480860C849C7480860C949C1
:1016A000C7480860C949C8480860CA4994E17B1521
:1016B00001000000D41500A0000200009A71A710DC
:1016C000C8480860CA49C9480860CB49C948086089
:1016D000CB49CA480860CB482061CC492062CA483F
:1016E0000860CB48CC49C577CA480860CC49CB488C
:1016F0000860CD49CB480860CD49CC480860CE4948
:10170000CC480860CD4905200870CE49CC48086017
:1017100015F004FB212802D2CC49CB480860CD4902
:10172000CB480860CD49CC480860CE49CC48086019
:10173000CE49CD480860CF49CD480860CF49CE4852
:101740000860CF48A064D049A062CE480860CF4866
:10175000D0496063CE480860D049CF480860D1497D
:10176000CF480860D149D0480860D249D0480860C5
:10177000D148D3496065D1480860D349D148086051
:10178000D349D2480860D448D2490162D349D54AE6
:101790004162D3491160D54AD3491160D54AD44931
:1017A0001160D64AD4491160D64AD5491160D74A4A
:1017B000D5491160D74AD6491160D84AD649116037
:1017C000D84AD7491160D94AD7491160D94AD8496E
:1017D0001160DA4AD8491160DA4AD9491160DB4A06
:1017E000D9491160DB4ADA491160DC4ADA491160F3
:1017F000DC4ADB491160DD4ADB491160DC4981606C
:10180000DC49DE4AC161DC491160DD496161DE4AC3
:101810006162DC491160DE4ADC491160DE4ADD4963
:101820001160DF4ADD491160DF4ADE491160E04A9C
:10183000DE491160DF49E14A0D70DF491160E14A7C
:10184000DF491160E14AE0491160E24AE049116074
:10185000E24AE14911603849E14A8031CA60E14910
:10186000A165E24AA163E0491160E24AE0491160E2
:10187000E24AE1491160E2492163E2490160E2493B
:101880004160E349E1480860E349E2480860E4490F
:10189000E2480860E348E5492065E3480860E54917
:1018A000E3480860E549E4480860E649E448086020
:1018B000E649E5480860E749E54808608EF5916526
:1018C00001000000D01700A0000200006E9919ADC1
:1018D000E749E6480860E849E6480860E849E7481B
:1018E0000860E949E7480860E949E8480860EA49CA
:1018F000E848086070BD00008DC9000070BB00049E
:10190000816D000078B20004ADB50000D4B90004C8
:1019100041A7000060B7000439A700005CB70004CD
:10192000B9B200007CB9000445C8000000BB000447
:1019300005B60000D8B9000425B1000038B900048C
:101940001997000054B5000445910000B4AF00049D
:1019500089BD0000F8B90004B5C800006CBB0004E4
:10196000B593000040B50004F59E000090B6000459
:10197000BD6A0000F0B1000455B00000FCB70004DF
:1019800071B40000ACB90004817F000010B5000400
:10199000CDB3000080B9000440AD0004AD76000076
:1019A0005CB3000440AA0004A1AD000094B7000499
:1019B00049AD000090B700047DAE00009CB7000464
:1019C0007DAC00008CB70004C176000038B600047E
:1019D000A9700000D4B20004A978000080B300040C
:1019E000597E0000A0B4000465C5000098BA000448
:1019F000F1B40000C8B90004116E000088B2000400
:101A000065B50000CCB90004A1720000E0B200048A
:101A100055870000A8B5000485A300006DA4000050
:101A2000A8B6000484120300E9A20000A0B60004D6
:101A30002194000054B6000409D9000088BB0004BA
:101A400041AC0000A8AA0004E1690000ECB1000468
:101A500065AA00049DCB0000D0B900049573000076
:101A600004B3000459BE00005CBA0004717E00009B
:101A7000A8B40004A1870000ACB5000431860000C2
:101A8000A0B50004B18400007CB50004ABCA00001E
:101A900068B900046D8C0000A199000060B60004D4
:101AA000318C00003DD700004CB9000481B000002B
:101AB00060B8000425C0000064BA000479C50000C5
:101AC000E4BA00047D880000BCB50004FC98145DF5
:101AD00001000000CC1900A000020000A9801BF04A
:101AE00051920000D57600006CB300049DCF000039
:101AF000E4B90004B1CF0000F4B900043B78000061
:101B000054AD000431780000F98000004CB60004A8
:101B100089CB0000A8B900049DD1000084BA00045C
:101B2000316D000000B20004D9B00000F0B800042C
:101B3000B9BD000048BA000469CF0000DCB9000458
:101B40007DAF0000E8B70004FDC70000FCBA000448
:101B5000259C000088B60004F173000014B3000453
:101B60006996000058B60004719900005CB6000444
:101B7000ED880000CCB50004BD880000C0B50004AD
:101B8000F9890000ECB50004559A00006CB6000419
:101B90006175000028B3000471750000ED76000047
:101BA0004D890000D8B5000441A60000F582000070
:101BB00068B60004959B000084B6000459A000009C
:101BC00094B60004C99E00008CB60004497200005F
:101BD00058AC0004E9CA000078B9000490AD0004D4
:101BE00069CA0000D0B70004799B000078B60004F1
:101BF000419A000064B60004C17E0000C8B400042D
:101C0000C17D00006CB40004AD91000009A2000089
:101C10006DD8000078BB0004157D000044B40004BA
:101C200061880000B4B50004E58B0000DD7B000096
:101C3000A97B00008D76000058B3000439820000B3
:101C40005CB500046583000060B50004F5910000F8
:101C5000FD630000C0B10004419B000074B60004A5
:101C6000F97C000040B40004617F0000ECB4000483
:101C7000516D000058B20004F17E0000DCB4000495
:101C80007D84000078B50004A56F0000BCB200049C
:101C9000F1640000CCB10004B9630000B4B10004E9
:101CA00069650000E0B10004B9640000C8B1000437
:101CB000054810B50078102804D1044904484C2286
:101CC0002DF0F2FD10BD0000910000049E00000404
:101CD000CE0100040548064910B500784B672EC2B6
:101CE00001000000C81B00A0000200005D68A54DB7
:101CF000097800F029F804480068804710BD00000A
:101D0000004000AA004000AADC0100040749064880
:101D100008600849064808600849074808600949FA
:101D20000748086070470000753A0000F4B10004ED
:101D3000B18A000000B60004BF8A000004B60004A7
:101D4000A98A0000FCB50004064808B502680092A4
:101D5000054A0649130008000C386C3300F04EECBD
:101D600008BD00006400000490D600B0EC1600B07E
:101D700013494968CA681204120C00040243CA607D
:101D800070470F4949684A69120C120402434A61BC
:101D90007047090401430A484068C1637047084915
:101DA00049684A68120A120202434A6070470448AE
:101DB000406801690122120411430161704700006B
:101DC000740A00B0203052E20400005A203062E26F
:101DD0003002A0E1110380E13112A0E11EFF2FE1EA
:101DE0003103A0E10010A0E31EFF2FE1194930B438
:101DF00017220A6036224A60174A184C0021030C49
:101E00008D001B185351164B491C58430019372994
:101E1000F5DB30BC70470120E8E770B40D4C0E4D87
:101E20006068216883008E00EA58AE59491E401E42
:101E30009219EA5036230029216002DA236060609B
:101E400003E00028606000DA6360500070BC400866
:101E5000704700007C1700B01CB300B0E119D666D3
:101E6000CD0D010010B4042A0ED303000B439B07D1
:101E70000AD108C810C9A34202D1121F042AF8D2FD
:101E8000A34201D0001F091F002A02D1002010BC6C
:101E90007047D30701D0521C05E003780C78401C32
:101EA000491CA34207D103780C78401C491CA3426B
:101EB00001D1921EF1D1181BE9E700000000A0E15A
:101EC000230000EB03002DE9830000EB0300BDE8D5
:101ED0004B0000FA0F002DE9820000EB0F00BDE877
:101EE0001CC09FE50FC08CE001001CE35E7E0D8BE3
:101EF00001000000C41D00A00002000044907B3DD2
:101F00000DE08F120FE0A0011CFF2FE101C08FE256
:101F10001CFF2FE100F01CF8D145010001402DE924
:101F20000000A0E16A0000FA0140BDE8000000EAFC
:101F30000000E0E30000A0E10C109FE51800A0E322
:101F4000563412EF1EFF2FE1C401000026000200EC
:101F500010B5C046C0460400C046C0462000FFF78A
:101F6000DEEF10BC08BC18470E40A0E1670000EB94
:101F700004E0A0E101402DE97C0000EB0040A0E17D
:101F80000140BDE813402DE90100A0E3121DA0E3CC
:101F9000081084E5000084E51340BDE80010A0E1CE
:101FA000040084E50EF0A0E110402DE903002DE9C6
:101FB0006E0000EB0040A0E10300BDE8042094E5C2
:101FC0000D30A0E100E082E003005EE1002081E549
:101FD0000B00008A0E3093E0011A8EE26330A0E11C
:101FE000071081E20730C3E30710C1E3030051E1AA
:101FF0000310A081041084E51040BDE8020041E018
:102000001EFF2FE10020A0E10000A0E30000A0E1FE
:102010001040BDE81EFF2FE1F0B585B0C046C046B8
:1020200005000C002DF080EC002001950294C046C4
:10203000C046039001A8FEF7DAE8040001A80D00ED
:10204000009303C81600C046C046C046C046FFF70E
:10205000ECFE00210800C046C046070000F090E8F2
:102060000490002107600800C046C046411C049847
:10207000416000210800C046C0460100049881600C
:1020800000210800C046C04601000498C16000213C
:102090000800C046C046010004980161C046C04621
:1020A000C046C046C046C046C046C046C046C04600
:1020B000C046C046C046C046C046C046C046C046F0
:1020C000009B05B02000049C29003200A646F0BC0D
:1020D00001B0704710B5C046C0460020C046C0469B
:1020E000C046C046C046C04610BC08BC18470000E9
:1020F0000000E0E30210E0E31EFF2FE1C236BFC59F
:1021000001000000C01F00A000020000B078C580E0
:1021100010402DE90000A0E11040BDE81EFF2FE1B6
:102120001EFF2FE10E50A0E11F0000EB05E0A0E133
:102130000050A0E10700C0E30D10A0E10A30A0E1CB
:1021400000D0A0E160D08DE220402DE9F63400FA05
:102150002040BDE80060A0E30070A0E30080A0E3A1
:1021600000B0A0E30710C1E305C0A0E1C009ACE8DE
:10217000C009ACE8C009ACE8C009ACE801D0A0E1F6
:102180001EFF2FE104009FE51EFF2FE11EFF2FE140
:1021900008B400B004009FE51EFF2FE11EFF2FE1F1
:1021A00018B400B010B410BC7047000000009FE5E8
:1021B0001EFF2FE1F8B300B004009FE51EFF2FE1E2
:1021C0001EFF2FE1FCB300B010B500F030EA10BDE7
:1021D000802810B502D100F02AEA10BD00F02AEAEA
:1021E00010BD10B5040000F02AEA206010BD0F48B1
:1021F00070B504680E4EA10706D500210161F26C8E
:10220000012090470220844300250AE0E00706D021
:10221000A8003258002A02D0210028009047640804
:102220006D1C002CF2D1002070BD0000009000A8B1
:10223000E8130300913082E00300A0E10210A0E166
:102240001EFF2FE100A0004750129FE5001091E50E
:10225000D100A0E300F021E101D0A0E174129FE5DC
:1022600034229FE5DB00A0E300F021E1021081E0D1
:102270000310C1E3041041E201D0A0E100A0A0E3FB
:1022800000B0A0E318229FE5D200A0E300F021E116
:10229000021081E00310C1E3041041E201D0A0E18B
:1022A000D300A0E300F021E1E8319FE5001083E5D1
:1022B000E0119FE5000091E5040080E2E8219FE540
:1022C000000082E510229FE510029FE52C0082E5C8
:1022D0000700A0E3300082E50900A0E3000082E5EA
:1022E0000B10A0E3101082E50130A0E3243082E55A
:1022F000283082E5E8219FE51030A0E3083082E530
:102300001EFF2FE10100A0E30E10A0E1489488E336
:1023100001000000BC2100A000020000B8A7345D4D
:10232000840000EBFEFFFFEAFF402DE900004FE1D3
:1023300001002DE9C0119FE5002091E51F2002E278
:10234000B8319FE5823193E70FE0A0E113FF2FE161
:10235000A8019FE50810A0E3920102E00410A0E3A9
:10236000012082E0021090E724209DE5012082E018
:1023700024208DE50100BDE800F069E1FF80FDE863
:102380000200A0E30E10A0E16A0000EBFEFFFFEAEE
:102390000300A0E30E10A0E1660000EBFEFFFFEAE1
:1023A0000400A0E30E10A0E1620000EBFEFFFFEAD4
:1023B000A80000EAFFF725FF52480047FF402DE93B
:1023C0000E00A0E1F30500FAFF40BDE804F05EE274
:1023D00030019FE50010E0E3001080E5001090E57B
:1023E00024019FE5100F01EE20F19FE5900F07EE0D
:1023F0001EFF2FE1FC009FE50010E0E30C1080E5DC
:10240000F0009FE508119FE5081080E504019FE5B5
:10241000001090E5081081E3001080E5001090E5C1
:10242000081011E2FCFFFF0A900F07EE1EFF2FE1DC
:10243000100F11EE1EFF2FE1100F01EE1EFF2FE116
:10244000010050E2FDFFFF1A1EFF2FE1C8109FE5BB
:10245000A520A0E30000A0E3040081E4012052E2F3
:10246000FCFFFF1AB4009FE5B4109FE5001080E563
:10247000B0009FE5B0109FE5001080E5AC009FE53F
:10248000AC109FE5001080E51EFF2FE100000FE17A
:102490001F0000E2120050E30100A0030000A0139F
:1024A0001EFF2FE1100F6FE11EFF2FE1ACBD0004F6
:1024B000100000004000000400040000E0030000E1
:1024C0009CBD000401C05EE50C0053E10330DE3723
:1024D0000C30DE2783C08EE01CFF2FE10396A0E3C3
:1024E00019FF2FE10396A0E319FF2FE16814030001
:1024F000009400A83F1F0000009000A8B0380080A2
:10250000587F00B00016F003002100807C17000007
:102510004400000002004000C4200080D55818D0BC
:1025200001000000B82300A0000200004C4F8AE028
:102530006CBD0004F4BD0004F5200000F8BD0004EB
:1025400085F70200FCBD00045122000000204FE18D
:1025500000300FE1D170A0E307F021E15E4100FA05
:10256000FEFFFFEA0E002DE900200FE1D330A0E3CB
:1025700003F021E10D00A0E102F021E10E00BDE831
:102580001EFF2FE10E002DE900200FE1D330A0E364
:1025900003F021E10E00A0E102F021E10E00BDE810
:1025A0001EFF2FE10E002DE900200FE1D230A0E345
:1025B00003F021E10D00A0E102F021E10E00BDE8F1
:1025C0001EFF2FE10E002DE900200FE1D230A0E325
:1025D00003F021E10E00A0E102F021E10E00BDE8D0
:1025E0001EFF2FE104F01FE54038F40304F01FE55F
:1025F000D03AF40304F01FE52C33F40304F01FE594
:102600003041F40304F01FE5015EF00304F01FE520
:10261000D573F00304F01FE57D46F00304F01FE5D9
:10262000F836F40304F01FE587F2F30304F01FE526
:10263000FD7DF00304F01FE5DB80F00304F01FE5EF
:10264000A131F00304F01FE57D93F00304F01FE5D2
:10265000015FF00304F01FE58C17F00304F01FE5A1
:10266000A017F00304F01FE5114DF00304F01FE57F
:102670001817F00304F01FE5EB0BF40304F01FE55B
:10268000B50CF40304F01FE5DB0CF40304F01FE5C4
:10269000830CF40304F01FE5AF0BF40304F01FE513
:1026A000A141F40304F01FE50375F00304F01FE5F6
:1026B0007905F40304F01FE56542F40304F01FE517
:1026C0003D42F40304F01FE59438F40304F01FE5E1
:1026D0004708F40304F01FE5FB07F40304F01FE5CB
:1026E0002108F40304F01FE5FB08F40304F01FE5E0
:1026F000D907F40304F01FE50837F40304F01FE5DD
:102700009F5FF00304F01FE51998F00304F01FE544
:1027100067ECF30304F01FE5457EF00304F01FE5CA
:10272000637EF00304F01FE54B7EF0038085038198
:1027300001000000B42500A00002000055B754902D
:1027400004F01FE555ECF30304F01FE50FDBF00385
:1027500004F01FE559ABF00304F01FE5039CF00300
:1027600004F01FE54D41F40304F01FE537ACF0031E
:1027700004F01FE50BAAF00304F01FE5E43AF403AC
:1027800004F01FE5939FF00304F01FE5558CF3035D
:1027900004F01FE5E99CF30304F01FE595ABF0039B
:1027A00004F01FE541C5F00304F01FE541C3F00349
:1027B00004F01FE5E58BF30304F01FE54BADF303D5
:1027C00004F01FE515ACF00304F01FE57B8CF30368
:1027D00004F01FE5CDA1F00304F01FE58532F003FE
:1027E00004F01FE5A533F00304F01FE55C39F403A2
:1027F00004F01FE5D764F10304F01FE51F9EF30307
:1028000004F01FE54FA1F30304F01FE5174DF20399
:1028100004F01FE50D80F00304F01FE52580F003B0
:1028200004F01FE5038CF30304F01FE5CD8BF303E5
:1028300004F01FE5976AF20304F01FE51970F20334
:1028400004F01FE51F6AF20304F01FE5B1A2F303D1
:1028500004F01FE585A2F30304F01FE5550BF30315
:1028600004F01FE5FD56F30304F01FE54149F403AE
:1028700004F01FE5D35BF20304F01FE59FA3F3030D
:1028800004F01FE5970BF30304F01FE58B0BF30334
:1028900004F01FE509A4F30304F01FE5650BF3033F
:1028A00004F01FE56DD9F20304F01FE51D4FF2039C
:1028B00004F01FE543A4F30304F01FE5A119F0039E
:1028C00004F01FE5997AF00304F01FE5210FF203ED
:1028D00004F01FE55BECF30304F01FE519ECF303D0
:1028E00004F01FE5DBECF30304F01FE5D128F2034D
:1028F00004F01FE5BFB3F20304F01FE5DB24F1038E
:1029000004F01FE50D4AF10304F01FE5C148F4038C
:1029100004F01FE50BB8F00304F01FE5C3ABF003B0
:1029200004F01FE571CFF00304F01FE5F543F40355
:1029300004F01FE585B9F20304F01FE575664DDE6E
:1029400001000000B02700A000020000A15FEA2DF6
:10295000ABB9F20304F01FE5CB1BF30304F01FE552
:102960001DF8F10304F01FE5D3C0F20304F01FE5E6
:102970007FBAF20304F01FE51B69F10304F01FE5C1
:1029800095BAF20304F01FE59FC3F20304F01FE5BC
:10299000DC37F40304F01FE55DD1F10304F01FE51B
:1029A000E5BCF20304F01FE58353F10304F01FE5D7
:1029B000F582F10304F01FE579B5F10304F01FE59A
:1029C00035B5F20304F01FE54927F20304F01FE5D3
:1029D0000118F20304F01FE5A114F20304F01FE54F
:1029E0007543F20304F01FE52553F20304F01FE5DD
:1029F0004150F20304F01FE5EF39F10304F01FE545
:102A0000D9A5F20304F01FE5F797F20304F01FE5E0
:102A1000F187F20304F01FE59584F00304F01FE54D
:102A2000EB86F00304F01FE52186F20304F01FE5B6
:102A3000BB6CF20304F01FE513AAF20304F01FE5D8
:102A40009F76F20304F01FE52D8CF20304F01FE5DE
:102A50004F89F20304F01FE511ACF20304F01FE507
:102A6000F38CF20304F01FE59DB3F20304F01FE5BD
:102A7000C5B9F20304F01FE50D8CF30304F01FE564
:102A80002384F00304F01FE5E7A2F30304F01FE53D
:102A9000B5B7F30304F01FE57371F20304F01FE50B
:102AA00099C9F30304F01FE505FEF20304F01FE5E6
:102AB0000FA4F30304F01FE57152F30304F01FE5C4
:102AC0009913F30304F01FE565D0F00304F01FE54C
:102AD000412AF30304F01FE55B34F30304F01FE520
:102AE000B34DF30304F01FE5AB48F30304F01FE517
:102AF0009D5EF30304F01FE5B713F30304F01FE535
:102B00001D57F30304F01FE5F384F30304F01FE5FE
:102B1000D79EF30304F01FE5159AF30304F01FE5B5
:102B2000539CF30304F01FE5DFB6F20304F01FE546
:102B300073C4F30304F01FE587CBF30304F01FE530
:102B400055E1F30304F01FE565DEF303DB28F356DC
:102B500001000000AC2900A0000200006646E870F9
:102B600004F01FE573D4F30304F01FE5CBC6F303B1
:102B700004F01FE5D9A2F30304F01FE5DFC0F3035F
:102B800004F01FE55BA3F30304F01FE575B5F20342
:102B900004F01FE581DCF30304F01FE50DDDF30312
:102BA00004F01FE5A7E2F30304F01FE50B0AF303AB
:102BB00004F01FE5B9DDF30304F01FE5FFDAF303CA
:102BC00004F01FE50BE3F30304F01FE51FDBF00344
:102BD00004F01FE56FBEF30304F01FE5054FF20399
:102BE00004F01FE5C9ADF30304F01FE57BA4F30374
:102BF00004F01FE545C4F30304F01FE591B8F303A7
:102C000004F01FE58FC0F30304F01FE5C9BEF30312
:102C100004F01FE521ACF30304F01FE5C7EBF30359
:102C200004F01FE5590BF30304F01FE5DFA7F303DE
:102C300004F01FE523CFF30304F01FE52BD8F303C3
:102C400004F01FE599D2F30304F01FE5C7D8F3039E
:102C500004F01FE54DCDF30304F01FE5BBC3F30300
:102C600004F01FE549E0F20304F01FE53BA5F30380
:102C700004F01FE5D9D1F30304F01FE5A5DEF2034C
:102C800004F01FE535E0F20304F01FE5B1DEF203C6
:102C900004F01FE517DFF20304F01FE521A1F303A1
:102CA00004F01FE531A1F30304F01FE553BAF30369
:102CB00004F01FE5E7B2F30304F01FE521B2F303CC
:102CC00004F01FE5CBB1F30304F01FE5D5B5F30322
:102CD00004F01FE539A7F30304F01FE50923F1030E
:102CE00004F01FE52312F20304F01FE5BF69F203AD
:102CF00004F01FE54134F10304F01FE58169F2039C
:102D000004F01FE5E111F20304F01FE5293CF10393
:102D100004F01FE59F69F20304F01FE52731F1037A
:102D200004F01FE53FBCF10304F01FE5258BF10320
:102D300004F01FE5558CF10304F01FE501C4F10315
:102D400004F01FE51B0FF20304F01FE547DEF1035B
:102D500004F01FE5170FF20304F01FE5996D0D2431
:102D600001000000A82B00A00002000092AE56CD8A
:102D7000FB0EF20304F01FE563BCF10304F01FE552
:102D80004341F10304F01FE5E913F30304F01FE5E9
:102D90000D69F10304F01FE5699DF20304F01FE5DE
:102DA000759AF20304F01FE5D97AF20304F01FE5E7
:102DB0002582F20304F01FE56770F20304F01FE5BB
:102DC000296DF20304F01FE5BD7FF20304F01FE557
:102DD0003911F20304F01FE5DDA5F20304F01FE54D
:102DE0003195F20304F01FE5A30BF30304F01FE594
:102DF0000B0FF20304F01FE5110FF20304F01FE5BF
:102E0000FD1BF30304F01FE50F6DF20304F01FE553
:102E1000CD5FF10304F01FE58F84F00304F01FE59C
:102E20003B97F30304F01FE54B8EF30304F01FE51B
:102E3000EF9CF00304F01FE5C933F10304F01FE534
:102E4000FD36F10304F01FE5FDF3F10304F01FE587
:102E5000711BF20304F01FE51919F10304F01FE5DB
:102E60006581F10304F01FE5251CF20304F01FE562
:102E7000C546F20304F01FE5C971F20304F01FE533
:102E80004D11F20304F01FE5259DF20304F01FE548
:102E9000A571F20304F01FE5A3A2F20304F01FE5FD
:102EA000E583F20304F01FE5398EF20304F01FE519
:102EB000578BF20304F01FE525C6F30304F01FE56A
:102EC000A9A1F30304F01FE52380F30304F01FE539
:102ED00011EFF10304F01FE53B85F00304F01FE55B
:102EE000E784F00304F01FE5EDA3F00304F01FE511
:102EF0009D8EF00304F01FE5E114F40304F01FE5D8
:102F00004519F40304F01FE5131DF40304F01FE555
:102F1000791AF40304F01FE5F71DF40304F01FE52C
:102F2000FD1AF40304F01FE5EF9FF00304F01FE522
:102F30008D9AF00304F01FE59D9AF00304F01FE55D
:102F4000639AF00304F01FE5EB88F00304F01FE53B
:102F50008D9BF00304F01FE5350FF40304F01FE52B
:102F60007B11F40304F01FE5556BF00300C5964890
:102F700001000000A42D00A0000200008B5688BDB7
:102F800004F01FE5CB74F00304F01FE56B74F0034D
:102F900004F01FE55D11F40304F01FE5E10EF403F6
:102FA00004F01FE56D6BF00304F01FE5EB74F00314
:102FB00004F01FE5736FF00304F01FE5A76EF00344
:102FC00004F01FE5690EF40304F01FE5190FF40384
:102FD00004F01FE5FF0EF40304F01FE55B75F0033A
:102FE00004F01FE5ED75F20304F01FE54780F003E0
:102FF00004F01FE53C39F40304F01FE5EF96F003FD
:1030000004F01FE56575F00304F01FE5C83AF4030A
:1030100004F01FE5B742F40304F01FE55542F40342
:1030200004F01FE5DF15F20304F01FE5EDA6F00341
:1030300004F01FE5D999F00304F01FE5FBDEF3036C
:1030400004F01FE575DFF30304F01FE5BDB5F203DF
:1030500004F01FE50F9AF00304F01FE5319AF00326
:1030600004F01FE5BD7EF00304F01FE5CF9AF003E6
:1030700004F01FE5B79CF00304F01FE5BB9EF003CE
:1030800004F01FE5C19DF00304F01FE56B9DF00304
:1030900004F01FE5459EF00304F01FE5019BF003DB
:1030A00004F01FE52B9CF00304F01FE51B99F003CF
:1030B00004F01FE59398F00304F01FE50D4AF003B8
:1030C00004F01FE5AD35F00304F01FE5F5B5F2039C
:1030D00004F01FE56571F20304F01FE55F92F2034F
:1030E00004F01FE58186F00304F01FE54987F00333
:1030F00004F01FE54733F20304F01FE5ED0600B0CE
:1031000004F01FE5490700B004F01FE5290700B0EF
:1031100004F01FE5410900B004F01FE50D0900B0FF
:1031200004F01FE5F947F00304F01FE53743F4030B
:1031300004F01FE5FB42F40304F01FE57114F403EF
:1031400004F01FE56D19F40304F01FE5A98FF003E7
:1031500004F01FE53394F00304F01FE5BF92F00381
:1031600004F01FE5D58FF00304F01FE58995F00307
:1031700004F01FE50780F00304F01FE5FD90C1F5A2
:1031800001000000A02F00A0000200007FBE36005A
:10319000A817F00304F01FE5B70EF40370B50400A0
:1031A00008000025E20704D0FFF7A0EA1249114801
:1031B000086012480078012819D1200702D500F0D4
:1031C0001FF80500600602D5FFF794EA0500200607
:1031D00002D5FFF794EA0500A00502D500F06AF8D1
:1031E00005006007800F02D0FFF78CEA0500280079
:1031F00070BD0000A12D010064B700046CB0000494
:103200007FB525480078002843D1FFF780EA0022E7
:103210002248D2430021FFF77EEA214E1F22306070
:103220000189520308181F49000C009008681E4DC0
:1032300090430F225203801808600A00A8692521D4
:10324000FFF76CEA686925216A46FFF768EA154AC4
:10325000A8692621FFF762EA144A68692621FFF768
:103260005EEA134CE080306800892081FFF75AEA5B
:1032700060814004000C0021A081218061803168C0
:103280000A89019051180391A8692C2101AAFFF71E
:1032900046EA002004B070BD88B00004700C00B095
:1032A00078B00004500000B0AC0000B05C0000B08A
:1032B000B00100B0FEB50024334E344D27216869BB
:1032C00001AAFFF72CEA0198641CC00701D0B442A0
:1032D000F4D32F4C2F4E2088002822D130680027AD
:1032E000002803D02C490968884737602B48FFF72E
:1032F0001EEA002830600FD001890A182849521EA2
:1033000089788A1812781207120F22806780E78066
:1033100000894018A0800DE022490868401C086020
:1033200008E068692D216A46FFF7F8E9E08800990E
:103330004018E080E1891C480429218902D1628972
:103340008918FFE7026811812188002913D00168DC
:1033500032680A60A088E2880523801832681081EC
:1033600068690122FFF7E6E96088401C60802088D8
:10337000401E208005E00068018908186189FFF778
:10338000DEE90020FEBD0000FFFF000024A97160FF
:10339000010000009C3100A00002000001A591B0D6
:1033A000AC0000B0B00100B07CB0000484B00004F8
:1033B0003C0000B0680000B090B0000478B0000499
:1033C00070B504001A4D0020E20708D06868002894
:1033D00002D1194A174810600800FFF7BEE91749E3
:1033E000097801291AD1210704D515480078002849
:1033F00015D00020610604D5124900200860FFF7AF
:10340000B0E9210601D5FFF7B0E9E10501D500F0EB
:1034100071F86107890F01D0FFF7AAE970BDFFF7C6
:10342000ACE968680028E4D100F00EF8E1E700009C
:10343000AC0000B0A12D010064B700046CB0000422
:1034400088B00004F80C00B07FB50022D243002100
:103450002048FFF76AE9204E204D30600189204A5C
:103460000818000C0090E8682521FFF762E9286938
:1034700025216A46FFF75CE9194AE8682621FFF72B
:1034800058E9184A28692621FFF752E9164CE080CE
:10349000306800892081FFF750E960814004000C0A
:1034A0000121A08121800021618031680A89019079
:1034B00051180391E8682C2101AAFFF73AE90B485B
:1034C000E1880088FFF7E0E80949C870002004B0EF
:1034D00070BD0000700C00B074B00004AC0000B00F
:1034E000500000B05C0000B0A00100B06EB000045D
:1034F000680000B0F8B50024534D544827210069F6
:103500006A46FFF716E90098641CC00701D0AC4278
:10351000F3D34F4D4F4E6888F1784F4F4F4C884250
:103520004BD12368242018816888E988B278484301
:10353000310080189880B078F21C80180278F378F7
:1035400012091B0712011B0F1A430270B0783200D8
:10355000093A80188278C37812021A43521C130A5F
:103560008370C2703A68130E0371130C4371130A0F
:103570008371C2712268081D9288121F8A712268A5
:103580009288121F1212CA7122689388083B0B722C
:103590009388083B1B12437110898018536A90C8A6
:1035A00001000000983300A000020000F54D2F0D2F
:1035B0008A78091DFFF7EEE821682E488A8800689E
:1035C0001123FFF7CCE800206880206002E020682B
:1035D000002819D12848FFF7E2E8042814D800226F
:1035E0002548D2430021FFF7AAE811212060C180BD
:1035F00020300221C17021682420088100206880C9
:10360000B0782430A88003E01C490868401C08609A
:10361000206800281AD01A49096808606888EA8872
:103620005043AA88801822681081E88904282889D4
:1036300002D16A898018FFE70881094801220069E0
:103640000423FFF78CE86888401C68800020E8812C
:103650003868401C38600020F8BD0000FFFF000003
:10366000AC0000B0A00100B0680000B0F80C00B0E1
:1036700080B0000450000004700C00B08CB0000456
:1036800074B00004002070470549012010B508708F
:1036900000F03CF8FFF786E8012000F08DF810BD3F
:1036A000440000047047102010B500F0ADF810BDC4
:1036B00010B50DF013FB10BD70B5050000F05EF9FC
:1036C000002803D103F09AF8002801D0012400E07B
:1036D0000024002D02D0FFF76AE800E0002020431C
:1036E00070BD0000042008B5FFF764E800280090D2
:1036F00006D004490160044801686846FFF75EE8A7
:1037000008BD0000EF1300005058F403F8B521483D
:103710004569681C3DD01020FFF74CE80028009058
:1037200037D01D49002402C0FF220A21FEF7C6EF50
:1037300024E0E80720D0601E0D281DD8A000001945
:10374000083800D5002001001A314F2903DD4F2130
:103750000E2C00D03520009A091A121D41188C46F3
:1037600008E04607C108760F0127535CB740BB430A
:10377000401C53548445F4D86D08641C002DD8D1E6
:103780000098001D00F036F8044801686846FFF70D
:1037900016E8F8BD44000004011400005058F4037A
:1037A00010B5044C6070A170E27001200BE5A19689
:1037B00001000000943500A000020000ECB5F17D8E
:1037C0006360207010BD0000340E00B01CB50C4AC0
:1037D0001178002912D09178D2786B461A705870FF
:1037E0000A0A9970DA700A0C1A71090E5971054C9F
:1037F0000300062120006A4600F05EF81CBD0000B0
:10380000340E00B087FC0000020003480A210123A7
:1038100010B500F051F810BD89FC00000D4A30B51C
:10382000040012880020C0210A4201D0012030BDCE
:10383000094D00210A224A435219137A022B02D160
:103840005288A242F2D9491C0904090C1029F1D36B
:1038500030BD00004EB00004489800B03EB50400F2
:1038600000200190A0790A30FEF7AEEF0090A27917
:10387000E11DC01DFEF798EF0098A179801D085644
:1038800001AA02A913F008FA0098A2796B46197AE6
:10389000C01D1154A079009A401C0106090E9171B7
:1038A000A088908023681360D21D002300F004F8E4
:1038B0006846FEF792EF3EBDFFB581B006000D00F1
:1038C0003C292CD82F0009373806000EFEF788EF68
:1038D000040024D0208916490019016000210171DB
:1038E00014492A00096841711149C78008307839A4
:1038F0000160868085710399C01DFEF756EF0E4862
:103900000022006821000123FEF732EF049800280E
:1039100003D100210120FEF768EF05B0F0BDB3052B
:1039200012219B0DB20A0420FEF762EFF5E70000BA
:103930000A1400005058F403E00D00B0034810B51D
:10394000006800224B21FEF708EF10BDE00D00B02B
:1039500070B5064C258800F097F8054A2088138832
:10396000411BC918401A1180208070BD04AA0004B0
:1039700006AA00040449054A4978127801209142B8
:1039800000D0002070470000000002A9000002A93A
:10399000024800884007C00F704700004EB0000486
:1039A000F8B5010001254379154C164E0F79D80062
:1039B00032880019002F15D151084900F168A1D8AB
:1039C00001000000903700A000020000185D4FC009
:1039D00031800821FEF7DAEE0020C100091989883C
:1039E000002903D03088284330800EE0401C0006B8
:1039F000000E0428F1D308E02A4332800370CA88FD
:103A000042800A8982804989C1800449002009686E
:103A10008847F8BDE89800B04EB00004DCB100045F
:103A2000F8B5C18800910689134D891903794A08B0
:103A30002C880221002B06D18C43104808212C80B1
:103A4000FEF7A4EE12E00C432C8047891000791C8D
:103A5000FEF738EE4021012801D80C4300E08C43EA
:103A600006482C80009941808680C7800449002048
:103A700009688847F8BD00004EB00004D812030062
:103A8000DCB1000410B580242000641C2404240C44
:103A900000F004F88F2CF7D910BD0000F8B5002411
:103AA00006008038104B11490004000C1A5C0D8888
:103AB0000F4F52190A801C5411E0A0003D58A888ED
:103AC0000005000DB04207D11C3D2000FEF79EEE20
:103AD0002800FEF7A0EE02E0641C2406240E054830
:103AE00000788442E9D3F8BD506A000404AA0004B7
:103AF000906A0004F8A9000410B5C1788278090220
:103B00000A4324381C21431801810849C16103215B
:103B10001971074909685971111D4184010005484F
:103B200004230068FEF72EEE10BD00000B14000009
:103B30004C58F403E00D00B00A4930B4097800296C
:103B400003D009490988002903D00849096830BC15
:103B50000847074A074C11788B00491CE050117048
:103B600030BC7047F7A9000404AA00040CAA0004A2
:103B7000F8A90004906A000470B504000D0000204C
:103B80000EF08CFA052D19D1E188A088091D0A04D0
:103B9000104900050978000D120C002912D001000F
:103BA00080390F290ED80C4B1988491E19800B49F2
:103BB000081880380178491C017003E0E088001F74
:103BC0000204120C0648210000681C3958C5DE8822
:103BD000010000008C3900A000020000DF444D9D70
:103BE0002B00FEF7DAED70BDF7A9000404AA00046B
:103BF000506A0004540000040006001610B513F0CB
:103C000082F80020FFF7F6FD10BD000070B5060039
:103C100010781400E02886B004D120000EF0A2FA3B
:103C2000050000E011250021481EFEF702EE227972
:103C3000E178A07803AB07C3330062782178019163
:103C4000FF21029221310E2002A20095FEF7F4ED31
:103C500006B070BD5268626262626262000000007B
:103C600007484178002909D106490968012209025B
:103C70004270090F02002832515C817080787047D1
:103C8000700B00B000200080F1B500200C490E68D8
:103C90000C4F340005000AE0E10706D0A9007A586D
:103CA000002A02D000993000904764086D1C002C57
:103CB000F2D1012803D000990020FEF7B6ECF8BD40
:103CC000009100A8E81303000348816801229204D0
:103CD0001143816070470000009000A8F8B50124EE
:103CE00000253D4FB888009072E03C49E000411843
:103CF00008784E78420660D503003F3BFEF7A0ED02
:103D00000A6B1E1E06130A0D1C181C1F641C2404BB
:103D1000240C5DE088783861F8E78878C978090272
:103D200001437981F2E72E482022FEF752ED03E0AD
:103D300088787870C878B870301947E0891C4928AD
:103D40001CD07F281AD04888000B01D0088815E0C5
:103D500008780200AF3A072A01D9BF280ED10A7AA3
:103D6000D303034310091B0400011B0C000218437A
:103D7000B22803D1497A0907090D0843184A0021DE
:103D800020320BE006234B43D35A834203D16D1EEE
:103D90002D062D0E04E0491C0906090EA942F1D397
:103DA0000623594350528818448046713019040440
:103DB0006D1C240C2D062D0E0AE0022801D18978F5
:103DC00039700121002800D0310008190404240CA6
:103DD0000098844289D3F8BD001B00C0F8E39CDD45
:103DE00001000000883B00A0000200002BACF32083
:103DF000401D00C0402700C010B504001248134AFF
:103E0000016812680120904700281AD00122102C66
:103E100006D20F488168A24011438160006907E023
:103E20000B484030416A103CA24011434162C06AD5
:103E3000E0400849C4070968E40F012088472000D2
:103E400010BDFF2010BD000088A9000490A9000447
:103E50000002009094A900040849401E897841435B
:103E60000748007908180649083949784018293068
:103E70000006000E442800D343207047E4A9000444
:103E8000340D00B0F8B50C00002706001500401EE8
:103E900000971528177034D81C20FEF7B4EC0028C2
:103EA00000902CD01849016021780172C90747722F
:103EB0001CD0012E1AD9072E13D36179102910D8DE
:103EC000A27861781202114381802279E17812028E
:103ED0001143C18062794272A11D0A30FEF782EC63
:103EE00004E0122028706846FEF794EC2878002839
:103EF00004D1064801686846FEF788ECF8BD072043
:103F000000E012202870F8BD0E1400004C58F40395
:103F1000F0B506000C001F00002585B002F008F87F
:103F2000002804D0012816D0022814D10C25032E15
:103F300003D1A17860782A0002E015220021280030
:103F4000029101900392227800920021FF205B23CE
:103F500004A2FEF77CEC002038700A98057005B0CA
:103F6000F0BD0000566262626262000070B588B007
:103F70000C9D0C001226042820D100206B46D8830B
:103F800061782078090208431883E178A078090253
:103F9000084358830E481C21006806AAFEF7FAEB76
:103FA000002800D02E702A78E178A07802AB07C3F1
:103FB00062782178019207A2009102E02E7007A298
:103FC00000960021FF206923FEF740EC08B070BD89
:103FD00054000004566262626262620056626200CD
:103FE000F3B50C0081B0344F78780028D4F0FFD0BE
:103FF00001000000843D00A00002000032542D505A
:1040000004D02079FF2801D012F01EFE217930481B
:10401000FF29017109D17878002804D012F014FE2C
:10402000012012F045FD0020FEBD2178017061786D
:104030004170A1788170E178C17021790171617955
:104040004171A1798171E179C171217A0172009187
:10405000657A4572E17AA67A09020E434681217B90
:104060000173019912290CD3A27B617B12021143C7
:10407000E27B237C12041B061A4311430161617C1D
:1040800002E00021016104210175114801991530F8
:104090001C2905D321000A221231FEF7AEEB03E002
:1040A000FF220A21FEF73CEB002E07D009496800E9
:1040B000085A864202D800980E2801D91220FEBD67
:1040C000E806C00FB87012F08BFDACE7240E00B00C
:1040D00048A000B03C5BF403FEB538234343564C84
:1040E0008E7A1C19CB7A4D7A1B021E430B7A2D0255
:1040F0002B430193E37C257C042B01D3002D7CD141
:104100000B795700022B05D0032B37D0062B5CD13F
:1041100000205BE07D2201005201012001F0AAFE97
:10412000002102206174009001980825112806D012
:10413000132804D0192870D101250095A174207C82
:10414000002804D138212000FEF7CEEA0FE000203D
:104150008100625A002A05D109194988002901D134
:10416000207504E0401C0006000E0428F0D3207DDA
:1041700081000819C653257400984BE0207D80000B
:1041800003190120002A00D000204000185AB04234
:1041900041D10220012D05D1012220746274002238
:1041A000A27404E0082D02D1092323746074087BF3
:1041B000002805D1487B002802D1E07C401CE07437
:1041C000207D019982001019C15324E081000B1950
:1041D000D95BB14212D10121002A00D0002149004F
:1041E000595A019B994209D18200111900220A8073
:1041F0004A80E17C491EE17405E016E025F2A54401
:1042000001000000803F00A000020000C6BC93ED4A
:10421000401C0006000E0428E2D3002805D1082D1A
:1042200005D0092D03D020746074002D08D0207CA7
:10423000002805D10EF094F800200EF09DF8FEBD88
:10424000607C0128FBD10EF08BF8FEBD4C0500040C
:104250001CB500200B49019000900400087020005C
:104260006A4601A900F064F8002801D000F04EF879
:10427000641C2404240C082CF1D3009901980EF03E
:1042800087F81CBD84000004F1B500998A884E7B34
:104290001005000D05000B2822D2920B00D0002043
:1042A000164AC3009C182279002A19D0E5808A8812
:1042B0008968120B002300F093FC002E02D1607974
:1042C000401C60710E480078012805D00D48016837
:1042D0006846FEF7B0EAF8BD0098FEF7D4EAF8BDEC
:1042E00088680949096888476846FEF7A8EA002EE9
:1042F000F5D10121280009F031FFF8BDF86900046B
:10430000F4A90004B85BF403C8B30004064810B570
:104310000178002907D1012101707D200349002285
:10432000C000FEF7B4EA10BD84000004F3130000DF
:10433000F8B50D00002100913821160041431A4ABA
:104340008C18002110F066FF00282AD0607DC11C67
:104350008A07411C8000001983698907920F890F21
:10436000002B0AD1876A002F07D192001219976992
:10437000002F02D1926A002A01D001220092002D62
:1043800008D0002E06D02A68D2182A603268806AC7
:104390001018306000228800001982618262A275C4
:1043A00061750098F8BD00004C05000438B50400A4
:1043B0000089011900910A7A052A0CD0082A01D037
:1043C000142A0CD1C87A097B09020843002100F0A5
:1043D00059F8002803D06846FEF730EA38BD07498F
:1043E0000868002802D10C6038BD08000168002967
:1043F000FBD104600020206038BD0000400D00B0FB
:104400000FB410B50A486B46197B0171D912E0FA56
:10441000010000007C4100A00002000023EBCEEA76
:104420005A7B002A09D0198901805989418003A942
:104430004271891C801DFEF7F4E910BC08BC04B071
:1044400018470000440D00B070B5114D28680028D1
:104450001DD0281D0079C00719D00E4E2968C888C4
:104460000C68022805D12520425C3068921C02238A
:1044700008E00889052340188278C07800020243CA
:104480003068121DFEF7B0E9002C2C60E6D170BD3B
:10449000400D00B054000004F7B582B005000027BD
:1044A0002F480468260053E0E188208902292FD193
:1044B000049A0019002A01900BD0037BC27A1B02D8
:1044C0001A43037A0498834240D195423ED1012792
:1044D00029E0027A032A06D01B2A0AD1827AC07AFE
:1044E0000002024302E0C27A007BF9E795422DD137
:1044F00019E0122A0AD0202A28D10A30039906226C
:10450000FDF76EFD002821D1E1880AE00B30F5E7C8
:10451000001902784078000202431005000DA842FD
:1045200014D1002912D00E4B20001A689442226840
:1045300001D11A6000E032602468022903D101A889
:10454000FEF786E904E011F0B7F801E026002468E0
:10455000002C01D0002FA7D0380005B0F0BD00001E
:10456000400D00B038B50C00032812D10820FEF72A
:1045700068E909490090016021780171A2786178A9
:1045800012021143C180054801686846FEF75CE9E4
:1045900038BD1220107038BDFD0C0000B45BF40370
:1045A00038B50C0002280FD10820FEF74AE9084967
:1045B00000900160217801716178417105480168BE
:1045C0006846FEF742E938BD1220107038BD000081
:1045D000F40C0000B45BF4033EB50C000C2810D1C1
:1045E0000422210002A8FEF71CE90822211D6846CA
:1045F000FEF716E902A800F0EBFE684600F000FFA7
:104600003EBD122010703EBD12230128137004D14C
:104610000878024908700020107070471B26AA868F
:1046200001000000784300A000020000D70370578B
:104630009912030010B50400FEF740E90A21614316
:1046400008186038C07C012800D0002010BD000090
:1046500010B504000021481E86B0FEF71CE9202298
:104660002100283102920492039122000021083295
:1046700000913921019249013E20082303A2FEF74F
:104680000EE90448FEF71EE906B010BD62626D6DCA
:10469000000000003E0800003EB500210400481E56
:1046A000FEF7F8E82022A11D00206B4607C3392140
:1046B00049013E20092303A2FEF7F0E80248FEF775
:1046C00002E93EBD62626D003E09000038B50C0093
:1046D0000D78497809020D43290080390F2907D840
:1046E0002200104B01001C680D480F4BA04738BD3D
:1046F0000820FEF7B0E8FF217E3100900160858040
:10470000A1788171A078290001F04AFA0748016870
:104710006846FEF7A4E829000120FEF7BCE838BD92
:1047200075FC000024AB00043C6B0004B45BF40394
:10473000F7B53823009858431F4BC518C8788B78B5
:1047400000020343287C012807D0022805D008284E
:1047500001D0092803D1022402E0012400E0002452
:104760000120002A00D000204600A85B984206D114
:10477000012C6C7402D101200DF006FEFEBD01205B
:1047800081004919895B99420FD1012C6C74F5D1D4
:104790000220002A00D10120A8740CF035FDA97C6C
:1047A000009A20000CF002FEFEBD401C0006000E28
:1047B0000428E5D3FEBD00004C050004F0B54820F8
:1047C00085B0FEF748E83949029009681522C01DF6
:1047D000FEF730E802980025817D467D0902027EC1
:1047E0000E43C17D120211430191417E0091C17EB1
:1047F000877E09020F433F21C41D81710520A073EC
:10480000E57325746574A574E07425756575A575E3
:104810003C20E57520766576A076E5767D202577C7
:104820006077A577E577203425706070EC6731BD3F
:1048300001000000744500A000020000CEFBAE277E
:10484000A5700020E57000F0D7FC20716571A5719E
:10485000E5710020257200F0CFFC6072A572E57250
:10486000257308206573A073E5732074657401993E
:104870000806800F039000F0CDFCA074039800F0B0
:10488000C9FCE074257501206575A075E0751020E0
:1048900020766076300AA676E076380A2777607749
:1048A0000099A1770298074A817911700449C01DC7
:1048B0000860FEF716E802A8FDF7DEEF05B0F0BDD0
:1048C000B0AA000470AA0004F0B5442085B0FDF73A
:1048D000CCEF3949029009681122C01DFDF7B4EFF1
:1048E00002980025817C467C0902027D0E43C17C32
:1048F000120211430191417D0091C17D877D090222
:104900000F433B21C41D81710520A072E572257300
:104910006573A573E07325746574A5743C20E57414
:1049200020756575A075E5757D2025766076A57680
:10493000E57625776077A5770020E57700F05CFCC9
:10494000203420706570A570E5700020257100F09E
:1049500053FC6071A571E571257208206572A07223
:10496000E5722073657301990806800F039000F0CB
:1049700051FCA073039800F04DFCE07325740120F6
:104980006574A074E074102020756075300AA675F7
:10499000E075380A277660760099A1760298074A72
:1049A000817911700449C01D0860FDF79EEF02A8CF
:1049B000FDF762EF05B0F0BDB0AA000470AA0004D4
:1049C00010B50400FDF784EF00210A224A431218B3
:1049D0005279002A03D00A000832A24204D1491CAD
:1049E0000904090C0329F0D308310804000C10BD98
:1049F000F8B500240600154F25000021280010F00E
:104A000027FC00281AD0002E03D1641C2406240E93
:104A100014E0012E08D138206843C019007C012819
:104A2000F3D00228F1D009E0022E07D138206843E4
:104A3000C019007C0828E8D00928E6D081A66EDCE1
:104A400001000000704700A0000200003A13109A15
:104A50006D1C2D042D0C082DD9D32000F8BD0000AD
:104A60004C050004002010B5FFF7CCFF10BD00007E
:104A700070B50125134C060063782A00002B00D086
:104A80000022A0782900002800D000218A4203D10A
:104A9000802B01D0607070BD002804D1002E02D19F
:104AA0002178002902D100F0EBF970BDE0780028F0
:104AB000FBD100220120044900031300E570FDF73B
:104AC00022EF70BD440000040414000038B5040057
:104AD0000820FDF7D4EE0028009007D004490160BB
:104AE0000471044801686846FDF7CCEE38BD00004B
:104AF000031400004C58F40310B50400FDF706EF52
:104B0000FE20002C00D10120FFF7E0FF10BD0000C7
:104B100001000839022904D803494000085C012833
:104B200000D00020704700006E71000438B50D0001
:104B3000154C402822D14820FDF7A0EE13490090E3
:104B4000016000218180202246210A542900801D15
:104B5000FDF784EE00982022A9182630FDF77EEE9E
:104B600000210120FDF7AAEE21880020FDF7D2EEFA
:104B7000074801686846FDF786EE38BD2188122097
:104B8000FDF7C8EE38BD000090AA0004A70F000092
:104B90003058F403082008B5FDF770EE094900907D
:104BA00001600021818081710120FDF788EE0648B7
:104BB00001880020FDF7AEEE044801686846FDF765
:104BC00062EE08BDA50F000090AA00043058F4035F
:104BD00010B50400FDF786EE0A216143081860381D
:104BE000407D002800D0012010BD00007CB50400ED
:104BF0000820FDF744EE0C490090016000258480F8
:104C00000A4E857131686846FDF73CEE0820FDF7D5
:104C100036EE05490190491C016084808571316838
:104C200001A8FDF730EE7CBD9E1300004C58F40344
:104C3000FFB583B0050008285CD238236B432E48AB
:104C400092071C18677CA07C02904878EA895292EF
:104C5000010000006C4900A000020000FD0A12C71C
:104C60000E780002CB78064388781B021843920F17
:104C7000012A49D0069A012803D02800FFF776FDC3
:104C800002E02800FFF764FA607C2A0031000CF093
:104C90008DFB06980028607D05D080000019816A90
:104CA0008919816204E08000001981698919816194
:104CB000FFF75EFB607CB84208D1002824D00128B1
:104CC00022D16B46A17C1A7A91421DD0012801D1D4
:104CD000012600E000260127022800D000270C2032
:104CE000FDF7D6ED0A490190016085808671A17CAF
:104CF0000172C7710748016801A8FDF7CEEDA17CDC
:104D0000607C2A000CF070FB07B0F0BD4C0500047D
:104D1000120D0000BC5BF40338B5030048781500A1
:104D2000742A03D10C780002044303E08A7812024B
:104D300010430400200080380F280AD83F222800A2
:104D4000920210430A0019000D4B1C680023A04773
:104D500038BD0820FDF79CEDFF217C3100900160FB
:104D60000121742D848000D10021817105480168E2
:104D70006846FDF792ED21000120FDF7AAED38BD50
:104D800024AB0004B45BF40370B5040008281CD203
:104D9000002211002000FFF7FDFAFFF76DFE00284A
:104DA0000CD10A4D2878002808D009480021FDF7C9
:104DB000C0ED0020010028700DF01CFB382060437E
:104DC000044940183821FDF7CCEC70BD8400000484
:104DD000F31300004C05000471B581B0019A274E11
:104DE000908894680B2839D2254983001B185918DC
:104DF0008B78002B32D0FF23F73300921360009A98
:104E00002389D3800A79521C0A711E490978012925
:104E100005D01D4801686846FDF73EED1BE021897D
:104E20001C230D195843194940181949407909683C
:104E30008847009AA978D180AA78E91CFDF718ED77
:104E40000098FDF77AED2000FDF73EED3069002275
:104E50001421FDF7E6EC002001907CBDD318A49E40
:104E600001000000684B00A00002000009E2AC7ADB
:104E70002000FDF734ED306900221421FDF7DAEC53
:104E800001980028F3D001A8FDF714ED7CBD0000C7
:104E900044000004C06A0004F4A90004B85BF403F1
:104EA00010820004D8B3000438B504000AF0CAFC2C
:104EB0000820FDF7F8EC08490090002C016001D0B3
:104EC000002100E001210171044844700448016898
:104ED0006846FDF7ECEC38BDCE0C00004400000441
:104EE000C05BF40338B50C000D78497809020D4316
:104EF000290080390F2907D822000F4B01001C68B8
:104F00000C480E4BA04738BD0820FDF7CCECFF2124
:104F10008031009001608580A1788171E178C17154
:104F2000074801686846FDF7C2EC29000120FDF73B
:104F3000DAEC38BDE9FC000024AB00043C6B000453
:104F4000B45BF403026801231104090C9B07491C9C
:104F50001A4011430A009A43082A01D359401940C4
:104F6000016070471CB50024E44307480122032177
:104F700001AB0094FDF7EEEC01980028F5D0012874
:104F8000F3D111F029F8F0E76CB900B00100034843
:104F9000002210B5FDF7E2EC10BD00006CB900B0C6
:104FA00070B50BF057F90A48002200680D21FDF793
:104FB00042EC084D2C6804E06068002800D080476F
:104FC0002468002CF8D10DF095F90BF03BF9F1E7CE
:104FD0004C00000488000004134810B50168080064
:104FE000FF306130C28803231B039A43C280C2880A
:104FF00001231B031A43C2801622CA840B4ACA87A4
:10500000018840221143018009480078012802D11B
:1050100000200FF06FF9074948680A0C9043486078
:105020000FF02CFA10BD000000AF0004408000001B
:105030002C0D00B040230080F7B5130014041500B8
:105040003E4E0700240C3668010082B0039A30A05F
:10505000B04703993800FDF79AEB002955D1039822
:10506000854234DD03992800FDF77CEC9CD66B3932
:1050700001000000644D00A000020000101A720A36
:10508000681A334E04043268240C210031A0904782
:1050900023E003992000FDF784EB002919D1002FAC
:1050A0003DD02B4E009736682B00039A210033A089
:1050B000B047BC4205D939002000FDF772EB00294A
:1050C0002DD0BC4205D821003800FDF76AEB00293D
:1050D00025D00398201A0404240C03988442D8D2C3
:1050E0001DE01B4A00261268290034A0904710E0FA
:1050F000174B019A1B6839003AA09847019938006C
:10510000FDF74EEB002901D1019C08E0B61C3604E6
:10511000360CA81B0004000C06280190E8D22000E1
:1051200005B0F0BD756954736E6966662025642C00
:10513000207569546573636F2025642C207569544C
:10514000617267657454736E6966662025640A002F
:10515000D8A900044361736520313A20496E69740F
:1051600069616C2075694E65775461726765745426
:10517000736E696666203D2025640A0075694E6578
:105180007754617267657454736E6966662025642E
:10519000207569546573636F2025642075695461B7
:1051A0007267657454736E6966662025642075693C
:1051B00054736E6966662025640A00004361736556
:1051C00020323A20496E697469616C2075695461B6
:1051D0007267657454736E696666203D2025640AA3
:1051E000000000004361736520323A2075695473F2
:1051F0006E696666202564207544697669736F72EE
:10520000202564203D2025640A000000F8B5060032
:105210000F00FDF7B6EB05000C20FDF74EEB8821E3
:10522000714300904D19E91D062280C0FDF734EB53
:105230000099287D8872034801686846FDF740EBB5
:10524000F8BD000070AC0004002807D0012803D08E
:10525000022805D0032800D00020704702207047A4
:1052600001207047002807D0012807D0022807D066
:10527000032807D10420704701207047DBB1F9B73C
:1052800001000000604F00A000020000E4F2CCB773
:10529000022070470320704700207047FEB5FDF7DD
:1052A0007EEB05008007800FFFF7D8FF0D490C4EFD
:1052B0000190096830008847012801D0012400E0EE
:1052C000002409497D270968BF0130008847074B42
:1052D000009021001C683A0001982B00A047FEBDF9
:1052E000FFFF000028B5000424B5000434B5000415
:1052F0000C2358430149401800897047B89900B001
:10530000F8B506000020FDF74EEB0F4F0500796C55
:105310000024884203D00D48C562FDF748EB082EF3
:105320007D640CD0102E06D0FDF740EB0406FDF78F
:105330003EEB00040443FDF73AEB00020443FDF7A3
:1053400036EB2043F8BD00008412030080AC00045B
:1053500038B504002AD016481C2340881549584304
:1053600040180079A04221D11348007800281DD0B0
:10537000124901208874FDF71EEB1149600009688D
:105380004018018D022211430185FDF718EBD1254C
:105390002D0121002800FDF716EB0A4829000268BC
:1053A0000092220004200023FDF710EB38BD00001E
:1053B000E0AC0004108200044CAF0004841203002F
:1053C000B0AE0004C05BF4031C235843134910B56E
:1053D00040180079124C002809D1E17E1148FDF7F0
:1053E000FAEA1048E17F0838FDF7F4EA10BD0D48ED
:1053F000617F001FFDF7EEEA0320FDF7F0EA0028C9
:10540000F4D109480068018849084900018007482B
:105410000068018849084900018010BD108200041D
:105420004083000404AD0004ACAE000498AE000458
:10543000F8B505000E001700FDF7ACEA88216943B6
:105440000C182034A07C012806D13A003100280035
:10545000FDF7C8EA0020A074F8BD0000017842788A
:10546000C907D206C90F920E11438278C078D207BD
:10547000D20DC0061143800C014303480068FF3081
:10548000FF30801CC183704700AF0004126B738033
:10549000010000005C5100A0000200009AE96B07C7
:1054A0000178CA074178D20FC906890E0A4381786C
:1054B000C906490D0A43C178C9020A430A490B6863
:1054C0001121490159180A8002794379D207DB0674
:1054D000D20F9B0E1A438379C079DB065B0D1A430A
:1054E000C00202434A80704700AF00040249C880EE
:1054F00002490880704700002C0D00B098AD0004F0
:105500000849C97900290BD00749FF220968521CB4
:1055100040310028888801D0104300E09043888003
:105520007047000040660004E0AE0004F0B50400DF
:10553000002085B003900D00608AE17A40180004D5
:10554000000C0290688AE97A40180004000C01906F
:10555000268A288A864200D30600E0683100FDF7DB
:1055600020EA02980F043F0C3818401E0004000C7B
:10557000B042009007D2B819070400983F0C801978
:105580000004000C0090E8683100FDF70AEA080406
:105590000199000C4118491E0904090CB14205D2B9
:1055A000801900048919000C0904090CC21B9446D7
:1055B000120412140023002A11DB009A121A160496
:1055C00036140CD46146A182511CE1820E00AB82DC
:1055D000019901208E4200DC511CE98211E03A1A47
:1055E000100400141ED4C91B080400141AD4A3828A
:1055F000029B01204E1C9E4200DC4B1CE382AA82CF
:10560000EE82A28AE37A04219A4200D90021AA8A72
:10561000EB7A014302209A4200D90020084303900C
:1056200005B0F0BDEB82AB82E382A3820398F7E77B
:10563000F7B590B015000E00C8680F900020070065
:105640000E900D90182107A8FDF7B2E8182101A8C7
:10565000FDF7AEE86B4607A901A81D83FDF7D0E969
:10566000708AF17A40180004000CA842F08202D33C
:105670000F9813B0F0BD10980468002C2DD0E0688E
:105680002900FDF78EE9A182608AE17A40180004C2
:10569000000CA842E08201D301200E9060CF099057
:1056A00001000000585300A0000200006E01D5BAAE
:1056B0002000FDF7B4E9079807A905E0A28A838ACC
:1056C0009A4203D9010000680028F7D12000FDF7B5
:1056D000A2E9A08AE18A4018A842D6D96B46598E21
:1056E000401B884200DD01006B465986CDE70E98CD
:1056F000002831D16B465A8E0798002A07A91AD183
:105700001A8B838AD2186B461A8314E08A8AC98A54
:10571000F38A51180A04818A120C891A8B4201DC1F
:1057200017000AE00D9B994203DD17000904090CDC
:105730000D91010000680028E8D1F06829000400FC
:10574000FDF738E96843C11900E0491B081B002830
:10575000FBDC880180090F9001A8FDF760E9089A39
:105760000799109806C08DE7F8B50C0007001500E2
:105770001E00FDF758E97421794308184030818AEA
:105780002180418B2980C08B3080F8BD10B504008A
:10579000FDF748E974216143425C002A06D00818ED
:1057A00040300079032801D1012010BD002010BD38
:1057B00010B50400FDF736E974216143425C002A0C
:1057C00004D0081840300079012800D0002010BD16
:1057D00010B50400FDF726E97421614308184078EC
:1057E00010BD0000F3B5040083B02F4D6879012887
:1057F0003FD12E4B00201A68C100565A3607360F8B
:105800000A2E04D1565A36093601761C5652401CCF
:105810000004000C0E28EED3AE890120400286421F
:1058200001D9060002E0402E00D240260020FDF7FC
:10583000CEE807001020FFF777FD3100FCF7CEEF30
:10584000781886011A48B609EE640068008FC1070F
:10585000184800D001210174017C0172AA89E989EC
:10586000019200912B7C144D01222D6831000C20F7
:10587000A84712480078002813D00820FDF73AE81E
:10588000FF215C31029001602178017161784171E2
:10589000A17881710499C1710948016802A8FDF7D6
:1058A0002EE805B0F0BD000004A10004F3FBB6EF44
:1058B00001000000545500A00002000077F90BCA57
:1058C000A4AE000400AF000444A10004CCB5000461
:1058D00038AD000470AC000410B504000020FDF7E2
:1058E000B0E8FF21193161430818817C002901D0FB
:1058F0000D2905D140300078002803D0092801D0B7
:10590000012010BD002010BD042008B5FCF7FCEFFD
:10591000044900900160044801686846FCF7F8EF0C
:1059200008BD0000A40F00003058F403F8B50423AC
:105930001026214C214F207E214D002833D02000FD
:105940002030C2781F482049007809780843002A8F
:105950000DD0002803D11D480078012803D930203C
:10596000E075A67515E03C20E075A37511E00028F0
:1059700001D0202000E02D20E07510F021FC00284F
:1059800005D00CF0D5FD002801D1182000E00C2036
:10599000A075207F002803D13868C18E3143C186AD
:1059A0000320E870F8BD3868C18EB143C18600207D
:1059B000E0762077EB70F8BD84120300E0AE0004BF
:1059C00010A400044BAF00044CAF000444B000042A
:1059D000F8B506000F4800250068408F0E4C000601
:1059E000070F318A207EFDF730E800280BD0308A7F
:1059F0000A49085C052806D109483A00C17B3000F5
:105A000000F0ACF805000021002D00D1E17E280057
:105A1000E176F8BD00AF00048412030098AF0004E3
:105A200070A00004F1B5002501264949CD76484F04
:105A30003100387EFDF708E800283BD0482171434B
:105A400044480C182000FCF7F4EF3800007F0128D0
:105A500030D038002030C0783100FCF7F6EF218AD2
:105A60003D4A515C052917D06437002800D1083F12
:105A7000FCF7EEEF282171434018407821002031D7
:105A8000385C0A000875A17E00290BD00A210A287B
:105A900000D90100117505E03C21002800D12D211D
:105AA000342001553420015D2948C27E8918C17611
:105AB000C07DA085761C3604360C072E6648D89B20
:105AC00001000000505700A0000200008311B577CC
:105AD000B7D9244F387F012806D0F87E3900401E00
