:100000000100000000000000000400000094511AEC
:100010001CF09FE51CF09FE51CF09FE51CF09FE5A0
:100020001CF09FE51CF09FE51CF09FE51CF09FE590
:1000300024440E11EC740200C4740200C87402005F
:10004000CC740200D0740200D4740200D874020090
:10005000E5740200000000EA6A8600EA28008FE2E8
:10006000000C90E800A08AE000B08BE001704AE24A
:100070000B005AE16386000A0F00BAE814E04FE271
:10008000010013E303F0471013FF2FE1187B020078
:10009000587B02000030A0E30040A0E30050A0E342
:1000A0000060A0E3102052E27800A128FCFFFF8A44
:1000B000822EB0E13000A128003081451EFF2FE1E3
:1000C00004309FE503308FE013FF2FE17D1C020019
:1000D0000020704710B5144C206800280CD100F0A7
:1000E000BFFC2060114A2021A0600BF3A4F9104A44
:1000F000606820210BF39FF910BD10B50A4C2068F1
:10010000002808D0002213210BF395F920680BF387
:1001100076F90020206010BD0200034810B5006889
:1001200068210BF388F910BD80EF00C07D1D02002F
:100130009B1D020010B527F026EA05F33FFF0020C3
:1001400010BDB64810B5006800022FD5B44CB54AB2
:100150000020C11C09016161236981005350031D06
:100160001B01636123698918801C0C284B60F0DB3C
:10017000AD48FFF7D1FF27F06AEAFF21AB4A2D31E6
:1001800002E0401C8842FCDB50780028F9D0A848E7
:100190006061A8482061012040036061A648206199
:1001A000A348E03860610520206105E09E48401CBE
:1001B000FFF7B2FF27F04AEA012010BD9B4910B5B6
:1001C000486000F0D3FE10BD202800D3FEE79B4A14
:1001D00080001358002B00D0FEE71150002070471C
:1001E000964A002180001150080070470268836819
:1001F000C1681000184770B5052804D2904D8400DE
:100200002B59002B01D0012070BD2C238C4E434371
:10021000DC3E9B192B5135000401F0352851601943
:10022000C2608160002141608649196158610020E7
:1002300070BDFEB50E001700052815D280490201D9
:100240001431551869687E4B840000290DD10122B4
:1002500001970096029218594369026907F390FAD0
:10026000002801D101206860FEBD18591D0007F368
:10027000C3FA28593A00310007F370FA285907F3F6
:100280005DFAFEBD694970B50878401C0006000E95
:100290000870012149044018FFF73EFF6A4D6C6A5F
:1002A000E00705D003F388EF0BF318F9A81768628D
:1002B000664EA0070CD5A86A02218843A8622020B8
:1002C000F060491F6962B1680143B1600BF3FEF849
:1002D000600705D5A86A04218843A8620BF31FFCB8
:1002E00020070AD5A86A08218843A8628020F06008
:1002F000C9436962B1680143B160012070BD70B546
:100300000124524D8440EC60002022F05DFCA8687E
:100310002043A860012070BD01214C4A814010B5E6
:10032000D1600F3800D5FEE7022800DBFEE7484C1D
:100330000023800004192360454C403400190362F7
:10034000906808439060012010BDF8B5414DEC68FD
:10035000E00702D0A817E8600440200606D58020F8
:10036000C043E8608020844300F0D3FC200407D51C
:100370000126F603300000F0CCFCF043E860B44303
:100380006003400F06D00720000421000140C9434C
:10039000E96084432002000F09D00F273F052600A3
:1003A0003E40300000F06AFCF043E860BC43E000EF
:1003B000400F09D00727BF0626003E40300000F05E
:1003C000F7FBF043E860BC43E0060FD51020C043C4
:1003D000E8601020844322F0E7FA002806D004F0F9
:1003E00048FD002802D0102000F044FB002C05DA64
:1003F0000120C00700F0F7FB1748E8601349886840
:100400000122920510438860F8BD104B7DEDC8C3F2
:1004100001000000FC030000000400005AEF5E131E
:100420000122920510B5DA60FFF799FF012010BD97
:100430000031008080290080005E02C04000010081
:10044000D47B0200F0200000FF0C0000070080FFBA
:10045000B0430004F87D0200DD010000003400809C
:100460000030008040E8008080220080FFFFFF7F96
:1004700030B504002020208165692018AD7A057010
:100480006469E47A44700171090A4171110A827148
:10049000C171190A8370C17030BDF7B50700487883
:1004A0000E00097805020D43203528003430010480
:1004B000090C0022FF481DF36BF8040021D028002E
:1004C0001430A08067612027E019142127811CF3D4
:1004D0009EEB2B04029A1B0C14212000FFF7C8FF8F
:1004E0003420208120182A0031001CF3CAEA0021A0
:1004F000200021F0EEFC207B202804D1200021F0F8
:10050000D9FC0020FEBD278124F0E5F8002802D0A8
:1005100005200AF038FA21F091FCE84B0500E64886
:1005200021001C68002200680523A047280021F054
:1005300089FC0120FEBDFFB50120904083B0039FE0
:100540000406240EFF376137F87B0E0015002042A9
:100550002FD1FF229132462301A902A804F043FFC4
:10056000002826D0F87B17212043F873019C103413
:1005700020001CF34CEB0698002801D1052000E078
:100580000D20607225722000627A0C990A301CF3EB
:1005900078EA310006220C31A01C1CF372EA607A62
:1005A00001990A308872000AC8720299039804F00F
:1005B000E5FE07B0F0BDFFB59FB006000800376844
:1005C0000021179121997C69002910D040301E909C
:1005D0001CF398EB229905004118C07820314006A1
:1005E00002D4B88823B0F0BD2888682801D800203C
:1005F000F8E719AA18910092219918981AAA17AB2E
:1006000010F308F9280010F32CF9002853D0AC4857
:10061000002104AA01AB07C318ABAA4A00921D79B6
:1006200010AB1A7F38002B001AA90EF34CFB050003
:100630002DD12000FF306130C17B090624D5002C6C
:100640000CD00521C9016118496A002906D018ABF0
:100650001A79920068328B585B1C8B50C17B49061B
:10066000490EC1731E981CF34EEB18AB1D792199EE
:100670002A01521B52180E320092010010AB1B7F50
:100680002A002000FFF757FF00203060AFE73560F9
:1006900028891E9940191CF346EB0088A880200089
:1006A000FF30613018AB1B7901263200C17B9A40C4
:1006B0009143C1731DE010AB197F009101952A8809
:1006C00018991898643A091D1AAB12F3A8FD060090
:1006D0001CD0200018AB1A79FF3061300123C17B98
:1006E00093409943C173288808382880B88808380F
:1006F000B880002C08D00520C0012018406A0028CE
:1007000002D0416E491C416630006BE7002C14D0CA
:100710000520C0012018416A00290ED018AB1A79B3
:10072000920068328B585B1C8B50416A0A69521CDC
:100730000A61406AC168491CC1601E981CF3E2EA64
:10074000010018AB1879219A03011B1A9A180E326E
:100750000092020010AB1B7F2000FFF7ECFED3E7F6
:1007600000280CD00521C9014118486A002806D08C
:100770000269521C0261486AC16C491CC16470471D
:10078000FFB583B004001E000C9F0E9D24F022FDD7
:10079000002820D0607A02281DD0082E1BD3082FF5
:1007A00001D3012005E738001DF378FB030080002A
:1007B000B3250019AD00119A109940196D4607C56F
:1007C0005800B7210019890043180D9A059904981B
:1007D0000FF374FFEDE60FA807C86C462B0007C4A3
:1007E000F3E7F7B592B014000F00129800680D906F
:1007F00000200A900D9845690800403011901CF3C4
:1008000082EA06002430099028000DF092F82100B9
:100810002C311091091D203700280F919F3726C8D1
:1008200001000000F80700000004000009358D7F7A
:1008300022D0109807AA08A903AB07C36B46E0793A
:100840000F9A0107387E090F4007400F07C30021A8
:10085000B078099A03092800FFF79CFF00280BD005
:10086000002D08D00520C0012818406A0028F8D0C3
:10087000016D491C016595E030886828FBD922008C
:100880004C3268380304111F081F0692021F05919D
:10089000049003920C3938381C3A0291019000926E
:1008A000387E1B0C47077F0F1A00099930003B0068
:1008B00012F3D7FB070030000FF3DDFF002849D00B
:1008C00000200BAA0AA909E04000000484EF00C040
:1008D000C0EF00C0305E02C0081D01C0009101924F
:1008E0000A900D9B099A310038000FF3A4FE0028EE
:1008F00058D0624A0092624A624B0D9831001CF354
:1009000053FF002802D1129908604BE012990600AB
:1009100008600189081811991CF30EEA0E900A98D4
:1009200000284AD00BAA009209990E9823003200A1
:100930000FF3B0FE070040D1002D08D00520C00104
:100940002818406A002802D00168491C01600E98EE
:10095000807922E0002F28D03807800F0FD0002D9B
:1009600020D00520C0012918486A00281AD0C26C7E
:10097000521CC264486A0169491C016112E0B8074F
:1009800010D5002D08D00520C0012818406A002885
:1009900002D00168491C0160B079C107C90F280065
:1009A00026F06CEE002015B0F0BD30881438308091
:1009B0000D980D99808814388880079C6B461A8C96
:1009C00010990F9823000FF380FE002F0AD1002DFD
:1009D00008D00520C0012818406A002802D0416EC6
:1009E000491C41660120DEE7F7B582B0140007001C
:1009F0000068009001900398002540301CF38CE9BA
:100A000006000198F1784069490605D42030807EBF
:100A1000400731D401252FE0002C02D1002005B081
:100A2000F0BDA17AC90720D0E0790007000F0128A6
:100A300005D1039922006846FFF7DDFE05E0039922
:100A4000220004236846FFF7C0FD050000983860C7
:100A5000B079C00710D1002D0ED0A07980070BD53A
:100A6000A07AFD210840A07206E00521C9014018C6
:100A7000406A8168491C81602800D0E7FC1C01C0E5
:100A8000041D01C0305E02C0010002A010B50AF3CF
:100A90009AFC10BD7364696F0000000010B504007B
:100AA000C0200DF0AEFB00F008FAE00602D50BF016
:100AB0004AF910BD0BF0EBF810BD0020EEE7000086
:100AC000052803D259498000085C7047FF20704711
:100AD0000A00032010B5FFF7F3FF904201D1FFF7A2
:100AE000ECFF10BDFF280BD0504A00218B00D35CD7
:100AF000834202D10806000E7047491C0529F5D330
:100B0000FF207047FF280CD0484A00218B009B181B
:100B10005B78834202D18800105C7047491C05292C
:100B2000F4D3FF207047052804D2404980004018C4
:100B300040787047FF207047FF280CD03B4A0021C7
:100B40008B00D35C834203D18800801840787047C3
:100B5000491C0529F4D3FF207047FF280CD0334AE5
:100B600000218B00D35C834203D1880080188078F9
:100B70007047491C0529F4D3FF2070472B4A0021F8
:100B80008B00D35C834206D188008018C078400770
:100B9000C017401C7047491C0529F1D3002070473D
:100BA00070B505000C00100000F041F9200000F0C5
:100BB000C4F82800FFF7A6FF022805D0032803D0B9
:100BC000042801D0052803D1200000F06BF870BD87
:100BD00020000DF048FB70BD10B50400C00005D525
:100BE0000122120311040C20FFF7DAFF200105D5C2
:100BF0000122D20211040B20FFF7D2FF600105D5BC
:100C00000122920211040A20FFF7CAFF10BD012041
:100C1000C00310B500F00BF90120C00700F08DF8FB
:100C20000349C86880229043C86010BDD0F7DBAB91
:100C300001000000F40B000000040000FD5AF8CB96
:100C400058F200C000280080F3B581B00F00019871
:100C5000FFF752FF05000198FFF778FF06000198A3
:100C6000FFF785FF0400032D07D1042E05D11020C6
:100C700000F0E7F8B00400F073F8002F16D10198E7
:100C8000FFF786FF002811D0231F1CF32AE9060F67
:100C90000F0F0F07040F0021102005E02649A800C0
:100CA0004018C0780021C00809F38BFEFF2201998B
:100CB0001000FFF717FFFEBD10B50400C00203D5FA
:100CC00001210220FFF7C0FFA00203D5012103206C
:100CD000FFF7BAFF600203D501210420FFF7B4FF3C
:100CE000200203D501210520FFF7AEFF01200007F8
:100CF000844205D04010844202D0401084421AD170
:100D0000FF208206A11808D0891804D0C2068918CD
:100D100004D10C2002E00B2000E00A20FFF7FCFECB
:100D2000022805D0032803D0042801D0052802D1C9
:100D30000121FFF789FF10BD58F200C013490A686E
:100D400002430A608A6802438A60012070470F49A3
:100D50000A6882430A608A6882438A600120704779
:100D60000A49C043C8600120704710B5074C803461
:100D7000216962690F23DB0199439A43002801D05E
:100D80001A4300E019432161626110BD8022008096
:100D900083480068416801225204914341607047D2
:100DA0007F48006841680122520411434160704746
:100DB0007B480068816B0901090C01D00020704755
:100DC000816B002904DA816B0906090FFBD100E071
:100DD000806B01207047724909688A69120C1204FD
:100DE00002438A6170476E480068816BC907FCD076
:100DF00041680122D2039143416070476849096804
:100E00000A6B086348680122D203104348607047A8
:100E100063480068406A70476149096880314A6ADE
:100E20000001120F1207000902434A6270475C4832
:100E30000068C06A70475A490968CA698243CA6132
:100E4000704757490968CA690243CA6170475449E3
:100E500009680A6A02430A627047514909680A6AC6
:100E600082430A6270474E480068803041684908F2
:100E70004900416070474A4800688030416801225B
:100E800011434160704770B5454D28688030016856
:100E90000122114301600168424C490205D50168F5
:100EA000A14301600A2026F086EB286880300168A3
:100EB0002143016070BD3A480068010080310A6832
:100EC000520852000A60816BC900FCD47047344854
:100ED000006880300168334A9143016070473048B0
:100EE00000688030C068704770B52D4D29680E6964
:100EF0000C00012109040E432661210080310E6996
:100F0000086148694B618869F0208861C869CA61D5
:100F1000A06810210843A060A06820229043A06030
:100F20002868416B436B8B42FCD0FFF7D8FF002849
:100F3000F6D128688168114381604168012252031B
:100F40001143416070BD16480068803000697047E9
:100F5000134800688168202211438160704710485F
:100F60000068816820229143816070470C490968BC
:100F700080310A681F23DB05C0069A43000902433B
:100F80000A6008680122120710430860704704488D
:100F9000006880300168FF22521C114301607047D5
:100FA00094EF00C00000400038B500240C4D01E073
:100FB0008047641CA00028580028F9D109480B4933
:100FC00002680092084A0A480A4B07F3BFFC0AF07D
:100FD0007EFD09480168002901D00020884738BDFE
:100FE0005CB602C084F200C0504F00043800000418
:100FF0002C000004008002C098EF00C0FEB50D0078
:101000001600089F0A9A0999002800D1FEE7046893
:10101000002C00D1FEE7029201913200290020004D
:1010200000970EF077FDFEBD10B506F383FA0006BB
:10103000000E10BD10B506F30FFA0006F12398421A
:1010400001000000F00F000000040000AE802BA79C
:10105000000E10BD002810B501D006F343FA10BDF4
:1010600038B514006A4606F39DF9009820700020F8
:1010700038BD10B5040006F3EFF82060002010BD65
:1010800010B506F3BFF910BD7CB50D001600079A28
:101090000699002800D1FEE70468002C00D1FEE785
:1010A000019200913200290020000EF01BFE002862
:1010B00000D165637CBD10B5416B0EF02AFE10BDFA
:1010C0007CB50C001500069A002800D1FEE70068E8
:1010D000002800D1FEE70021019200912A002100A2
:1010E0000EF050FD7CBD10B50EF06BFD10BD00285C
:1010F00010B500D1FEE70068002800D1FEE70EF031
:10110000D7FD10BD002810D00521C9014218516A31
:1011100000290AD00B695B1C0B61516ACB685B1C10
:10112000CB60516A0A6E521C0A66FF306130C17B87
:1011300080221143C173704770470648142110B5CF
:101140001BF358ED04480121017000218160C1604A
:1011500010BD0000305E02C0FC1C01C09048416818
:1011600010221143416070477047F1B582B00026EC
:1011700020F082FE00908B4800210068012806D1F3
:101180008848029A00694369934200D141618648C8
:101190004468019425001BE0A0008718B868029BF2
:1011A0004169994206D1761C002120F055FE0020AD
:1011B000B86008E0A900891888600020102D01950A
:1011C00000D0681C05000020102C00D0601C04001A
:1011D000754A00201168102900D0481CA042DBD1BC
:1011E000002E07D070484168A94201D1446001E057
:1011F000019901606B484068012807D16B4802994A
:10120000006842698A4201D10021416166484C3040
:10121000446801942500002728E024206043029BB5
:101220008618F0684169994208D17F1C21F05EFE62
:1012300030000C3024211BF3DEEC12E02421694342
:101240008B18D860306918613100180014311430DF
:101250001C221BF39EEC0020372D019500D0681C4A
:1012600005000020372C00D0601C04004E4A0020EE
:101270004C321168372900D0481CA042CDD1002F34
:1012800008D049484C304168A94201D1446001E08E
:1012900001990160009820F0F3FDFEBDF8B505004E
:1012A000002420F0E9FD3F490A68012A04D10969B8
:1012B0004969A94200D101243B4F00263B68796867
:1012C0000BE08A00D21992685269AA4200D1012427
:1012D0003200102900D04A1C1100002C05D1320028
:1012E000102B00D05A1C8A42EBD120F0C9FD2000FF
:1012F000F8BD70B50E0004981D0001890C18207807
:101300004007400F90420FD1E06D2900FF31801D52
:101310000622723120F0D4FA002805D16820065543
:101320002100280021F03CFE70BDFFB581B01E00F9
:101330001C480168012906D1026901A8009207C86A
:101340003300FFF7D6FF184900270D683800102D2D
:1013500000D0681C4C68A04215D00EE01249A000D5
:101360004018826801A8009207C83300FFF7C1FF48
:101370003800102C00D0601C04003800102D00D064
:10138000681CA042EAD105B0F0BD07480021C9435E
:10139000002206C044304260016004498160704709
:1013A00000A000900400000468020004304400041F
:1013B0000020704710B512F011FC10BD0100FD486F
:1013C00010B5C068072221F02DFB002010BDF8B534
:1013D0000700F84D0AF388F804000E00F6493800BB
:1013E0000FF365FA0AF380F8041BE86BB1410B00B8
:1013F0000021001B994100D3EC6BEC63F8BDF1B503
:1014000084B0EC4CA06A401CA0620AF36DF8EB4F6C
:101410000290FE6A0D00EA48F862EA48406921003D
:101420000190E9481E221C310FF34FFA002802D028
:10143000A06B401CA063FE62E248806960620AF310
:1014400053F8029A676B861AA9410D003A521C9B09
:1014500001000000EC1300000004000011450E1410
:101460007A1C0020206B616B002348430021801907
:1014700069411BF30CE92063606B401C6063E06A08
:101480000021801BA94100D3E66AE662E069216A77
:10149000884201D9E06900E0206A2062049A01993B
:1014A000CE481143884301D0FFF79BFFA26BE16A4E
:1014B000112019F031F905B0F0BDC94800880028A5
:1014C00004D0C84901200978042900D000207047C1
:1014D00020207DE7F8B50024BB4D6868002801D1C5
:1014E0002000F8BD20F0D2FC0090A86901273B0045
:1014F000002800D00023002039008140AA690E0096
:10150000164202D10C000A43AA61401C002C01D1F2
:101510001F28F1DD002B04D010F3D5FCFF20FFF7CE
:1015200078FF009820F0B6FCDAE770B5040020F0F0
:10153000ADFC0500A44800224168002901D12260C9
:1015400070BD2368816999438161226007D1FF20C2
:10155000FFF747FF10F3AFFC0120FFF739FF28002A
:1015600020F098FC70BD38B5040041696A4622F04D
:1015700097FF002802D12000FFF726FF002802D1A4
:1015800020001CF303F838BD38B505228E4C00212D
:10159000E06821F051FA944805220068002121F00A
:1015A0004BFA02E000981BF3F1FF206904220023AC
:1015B000694621F03DFA0F28F4D18C4800250570CA
:1015C0008B4812211BF320EB8A4825700560002010
:1015D00038BD60235843884A10B58418A088E28833
:1015E000824201D1012010BD8200A21892680A60D7
:1015F0001421401C1BF3BCEFA180A06D401EA06510
:10160000002010BD70B50C00417A160002290AD1E5
:1016100006F0A9F8012806D130001C3802210AF092
:10162000B2FA01280BD06021614373480C18E58899
:101630001421681C1BF39CEFA088884201D1012073
:1016400070BDA80020188660E180A06D401CA065D8
:10165000002070BD6848602110B51BF3D6EA5A49D6
:101660000020486110BD001F10B50406240E042C94
:1016700013D2602060436049401860211BF3C4EA24
:10168000514A01205169A04008431021A140014363
:10169000FF20401CA0408143516110BDF8B5041FDC
:1016A000042C24D220F0F2FB0600474DFF20401C02
:1016B0006969A04008420AD003E000981C3821F074
:1016C00099FC20006946FFF784FF0028F5D0FF2130
:1016D00012316869A14088436861602060434649CF
:1016E000401860211BF390EA300020F0D3FBF8BDD6
:1016F000F8B5041F042C25D220F0C8FB0600324D9B
:10170000FF20401C6969A04008420BD004E000980B
:1017100000211C3820F0AAFB20006946FFF759FF82
:101720000028F4D0FF2112316869A1408843686124
:10173000602060433049401860211BF366EA3000A6
:1017400020F0A8FBF8BDF8B5002425002A4EFF279D
:101750007F1C602060431C49355438004969A04013
:10176000084202D00120FFF733FE641C042CF0DB9A
:10177000F8BDF8B5050020F089FB06001F49204898
:1017800025F09EEFFFF7A6FE00902800FFF7F7FC7C
:1017900000242006000E290011F0CCFE641C042C4D
:1017A000F7DB6846FFF7C1FE300020F073FBF8BDA1
:1017B0000B480088002805D00A480178032901D188
:1017C00004210170704700002C7C0200FFFF000024
:1017D000C0A60080FF7FFF7F40A20080FF030000C3
:1017E000C43B01C0ADF100C0887C020028000004A9
:1017F000FC4500047C7C02007C4400041111FFFFC6
:10180000BBBBBBBBFF49002048607047FD490020BF
:1018100088607047F7B582B00600FA4DA8680028C6
:101820004AD1FF21F84800222D311BF3D9FE0400D4
:1018300042D001200221A86021736661617B0143CF
:10184000F2486173A061AC202081FF207930825B77
:10185000EF480092006832000379BB204ED1F58A30
:1018600001000000E817000000040000429FDD783E
:1018700080003118A23220000EF39BFE07001C20CE
:1018800025182081702128001BF3C8E9280060304A
:101890000499019041723000EF6512F0C2FAE34AF8
:1018A000A8701279E049920605D4002803D0A868F0
:1018B0004A071043A860019803220272200012F028
:1018C00015FA002805D120001BF36AFE002005B0A0
:1018D000F0BD0120FBE7FFB587B0070000200490B2
:1018E0000A98002803D0CC48406800287ED1FF2405
:1018F0002D3402E00120FFF7C1FB2100380004F085
:10190000FCFC0500F6D028894619380023F094FC29
:10191000002801D00C2000E00420BB210590387A7B
:1019200089003A007918A2320628019200910AD162
:101930001300059ACF33022130000EF377FEF078C2
:101940004008400008E01300059A022130000EF321
:101950006DFEF07801210843F070F078EF21084027
:1019600008992C00C907C90E0843F070FF20C01C5D
:101970003071000A70710020307070701C20288156
:1019800002202900287330311C340391702120007B
:101990001BF344E9210060311198069177284872C1
:1019A00001D0782804D1A068012149060843A0602D
:1019B000E6650A9800280AD00120C0079649A06071
:1019C00001204860697B014399486973A861002040
:1019D000208005980C2821D10999380023F038FC83
:1019E00041072078490FC008C00000E06CE00843C0
:1019F00041072070490F380023F046FD0101E06DDA
:101A0000028B1207120F0A430283E06D017E09095F
:101A10000901017620789F2108402070099A210051
:101A20003800002323F042FC1098804E002806D195
:101A3000069909200872380012F0F3F91FE000211E
:101A4000380016F0D1FF0328A0701CD93079C006E9
:101A500004D576484030807D40060CD5787A02283F
:101A600011D1032000023818806813214901401861
:101A70000079000707D50321380012F07EF9A07025
:101A80000120000304903079800607D4A078002854
:101A900004D0A068012189070843A0600399049835
:101AA000C8613900280002AA22F004FD01280BD0E9
:101AB0000499280012F01AF9002805D128000CF02A
:101AC000DBFA28001BF36CFD0BB0F0BDFFB5FF2166
:101AD0002D31060085B004F010FC07007ED03000E8
:101AE000FF30317A72300129049002D0707A0228D6
:101AF00004D10499300023F093FB02E0300023F07E
:101B00009BFB6B460390187EF32108400830187643
:101B10000399002903D00007000FC03002E000073E
:101B2000000F40306B46187638893200C519BB204B
:101B30008000A2323118019200911C7E049B200784
:101B4000810F220928000EF371FDFF20C01C2871AF
:101B5000000A68716B46AC70587EE870707A022893
:101B60000DD10221300025F0BAEDE9788A06D20FB6
:101B70001043C007DF22800E11400143E9701C2092
:101B800038813C183800BD6708997C3041720E9945
:101B900001720398002835D06B46988B2080707AAC
:101BA000032820D130001CF061FC0100300023F03C
:101BB0004FFB41072078490FC008C0000843410788
:101BC0002070490F300023F06FFC0101E06D028BA3
:101BD0001207120F0A430283207800E033E09F21AE
:101BE000084020700EE00C4A50880101401C5080D3
:101BF000687E2A7E000210430007000F0843287603
:101C0000000A68760021300016F0EEFEA0700898F9
:101C100031281BD002AA0DE00C1D01C06800000491
:101C200099170000ECF500C002140000365C0004B7
:101C3000911700003100380022F03CFC012805D14A
:101C4000029800280CD0012009B0F0BD0021380016
:101C500012F04CF8012803D038001BF3A1FCF2E786
:101C60000020F1E70200894810B500681D3104B278
:101C700001000000E41B000000040000B6F0A8CC46
:101C800004210023FFF74DFA002804D10220FFF7BA
:101C9000B3FB002010BD012010BD70B50400814DC4
:101CA00028680079A04201D000F073FB2868047115
:101CB0007D48446170BD10B522F041FD002801D17E
:101CC000012010BD002010BD784970B50125096BB9
:101CD000490719D5FF2804D1002412F088FA010021
:101CE00001E001000400724B1E1F0AE0E000C21870
:101CF000126880190068824200D00025641C012D02
:101D000008D18C42F2D905E06A48816AC06A8142F2
:101D100000D00025280070BDFF2010B5FFF7D4FFCC
:101D2000002801D012F0EEF810BD634870B50078BD
:101D300000284BD1614800220068082109F3C1FB4B
:101D4000002843D1FFF7E8FF00283FD05C4806F3A6
:101D500074FE04005A48082106F3FEFD05005848A9
:101D6000102106F3F9FD281884422FD1554806F3B7
:101D700064FE04005348082106F3EEFD05005148B7
:101D8000102106F3E9FD281884421FD14E4806F3BE
:101D900054FE04004C48082106F3DEFD05004A48C5
:101DA000102106F3D9FD281884420FD1474806F3C5
:101DB00044FE04004548082106F3CEFD05004348D3
:101DC000102106F3C9FD2818844201D0002070BDFF
:101DD000012070BD70B501200BF0F6FA00285ED12D
:101DE0003B4C354D354E08E02078401C20700120DA
:101DF000FFF702FB0120FFF74BF928780028F3D109
:101E000030680022082109F35CFB0028ECD102E0D5
:101E10000120FFF73DF9FFF77FFF0028F8D02848A1
:101E200006F30BFE04002648082106F395FD050085
:101E30002348102106F390FD28188442E8D1214858
:101E400006F3FBFD04001F48082106F385FD05008D
:101E50001C48102106F380FD28188442D8D11A4866
:101E600006F3EBFD04001848082106F375FD050094
:101E70001548102106F370FD28188442C8D1134874
:101E800006F3DBFD04001148082106F365FD05009B
:101E90000E48102106F360FD28188442B8D170BDA9
:101EA0003C7C0200ECF500C040A6008040A300800E
:101EB00034A9008000A000802800000480EF00C04A
:101EC0002C0000046800000448010004F80000042D
:101ED0000C1D01C0FF30853089080E2210B516F3A5
:101EE00028FF800010BD10B504000C235843FF49A3
:101EF000401800210A000B000EC0200010F372F9F8
:101F0000200010F37AF9200010F361F910BDF7B545
:101F100086B004001600F64A0025009207983100AA
:101F200004AA03AB04950EF352F96B46187C001F0C
:101F3000032859D83006000E05901BF3EBFF1BF366
:101F4000FAFF0600607A032806D16B461B7B0599D1
:101F5000320020001CF0A3FA6B46187C31001CF004
:101F600021FB1FF0A7FF0700FFF7C8FA6B4602909E
:101F7000187BA423DD4958433031401880306B462C
:101F80000576DC4A187C68390EF3D7F86B46197C65
:101F9000187B11F330FC6B46187CFFF793FB6B4604
:101FA000187C059A31002300FFF7DDF96B46197B99
:101FB000300011F32EFB6B46187C2200310011F02B
:101FC0000DFB02A8FFF7C5FA38001FF077FF6B463C
:101FD000197B079A200012F07AFD6B46187BFFF7F9
:101FE00082FF012009B0F0BD0020FBE7F7B584B007
:101FF00005001600BE4A009200240598310003AA8D
:1020000002AB03940EF3E3F8BC4FBB49380025F054
:102010006CEB6B46187B001F032847D8F913380078
:1020200025F062EB3006000E1BF374FF1BF383FFF9
:1020300001006B46187B1CF0B5FA1FF03BFF060051
:10204000FFF75CFA6B460190187AA423A74958431E
:102050003031401880306B460476A64A187B6839C8
:102060000EF36BF86B46197B187A11F3C4FB6B46C1
:10207000187BFFF751FB2800FFF795F8D7B7E3A5CA
:1020800001000000E01F000000040000E52A7BA022
:102090006B46187A11F361FB6B46187B290011F02F
:1020A00067FA01A8FFF75FFA30001FF011FF6B46D7
:1020B000197A059A280012F014FD012007B0F0BD2E
:1020C0000020FBE7F8B50D00060000241FF0FCFE21
:1020D0008C4A07002906090E603230001BF37EFC93
:1020E0000A280DD2874A002100016032115480185D
:1020F000C1602900300011F3D2FC0BF00FF901246C
:1021000038001FF0E5FE2000F8BDF0B50500002006
:1021100085B0019008780C000007400F16D111F32C
:1021200061F90700042811D077480EF342F8060041
:10213000401C0BD03806000E3106090E0200049038
:102140000F00200011F30BFA002802D1002005B087
:10215000F0BD687A022831D1280022F099FF1321BE
:1021600049014018807B800706D56320405D8007C9
:10217000002801DA012001900199049811F060FA19
:10218000220004991432280012F095FC201D1AF345
:1021900000EE0006000E1BF3C7FE1BF3D6FE0290F6
:1021A000687A03280DD1201D1AF3F2ED0106049B75
:1021B000090E3A0028001CF07CF908E0E8680006E7
:1021C000D6E7022803D1029930001CF0FFF9022063
:1021D0001BF3BBFE010030001CF0EEF94D484E4AE7
:1021E000416A029840003030085A904200D1886A13
:1021F0000104090C380011F0CAFA380011F3C6FBCB
:10220000300011F3B5FB3E4A0120B100383A50507E
:102210003C4A0092049A3B00210028000DF3C8FEBE
:102220003800FFF73EFA1FF04FFE0600FFF770F987
:102230000390201D1AF3ACED02060298120E2B003B
:102240003900FFF79AF8201D1AF3A2ED0206029951
:10225000120E2B00380011F0D7F903A8FFF783F90D
:1022600030001FF035FE012071E7F3B581B00600A4
:102270001FF02AFE234F0024009018206043395C91
:1022800000290BD0C51968781BF34EFE1BF35DFEC9
:10229000B04203D1E878029911F079FA641C24065F
:1022A000240E042CE9D300981FF012FEFEBDF8B5F1
:1022B0000025144F18206843395C002933D0C41915
:1022C000201D22F05EFF06002DD061780022300034
:1022D0000BF071FA6B46198800010907090F0143D9
:1022E00000911878000900011870A078009911F386
:1022F00002F96B46188800096081002020730DE008
:1023000000820200C8800200707C02006666FFFF47
:10231000BBBBBBBBE4580004FFFF00006073290097
:10232000300001F0F7F96D1C2D062D0E042DC1D3E0
:10233000F8BD70B505000C000FF369FF0C2169436F
:102340004E4B5A5812185A50226070BD70B5050095
:102350000C000FF351FF0C226A43484951188A6858
:1023600012188A60226070BD70B505000C000FF372
:1023700038FF0C226A43414951184A6812184A60D2
:10238000226070BD10B504001FF09EFD3C4A012183
:102390001368A140194311601FF09AFD01208002CB
:1023A000FFF734F810BD36490F2010B50860012042
:1023B0008002FFF72BF810BD70B51FF085FD2F4D83
:1023C00000212F4E0C0030353268D30704D0A423EF
:1023D0004B435B1980331C765208491C0429326038
:1023E000F2D31FF075FD70BDA4232449584330314A
:1023F00040187047F7B505000026204F34003037ED
:10240000A4206043C0198030017E01291ED1697863
:10241000027D91421AD12978827D914216D1297B81
:10242000427D914212D1C17D002902D1697BC9064A
:1024300008D501690198FF31723106221FF068FA50
:10244000002803D102980126047002E0641C042CC9
:10245000D6D33000FEBD30B51C00A4235843074B33
:102460004D783033C018030080331D750D789D758D
:102470001A61097B5975DC7530BD000000820200CD
:102480006C7C0200F8B503242600032861C2FF8B90
:1024900001000000DC23000000040000CDBBFE1D95
:1024A00001D1002437E0032835DA0400461C32E06D
:1024B000FC4861010A1882206043FB4B95680021AB
:1024C000C0188173C173417CF84B4906490E4174B1
:1024D00001211888A14088431880202110001AF398
:1024E000BCEB002D16D00B2080012F18B86B0021FB
:1024F000C943E030C183280000F0E0FA002804D08E
:10250000E868012109048843E860B86BE030C18BBA
:10251000E6488160641CB442CADBF8BDF0B50C002B
:1025200007000120002985B003D10320FFF7B4FF85
:1025300073E0E178A278090211430A00FF3A193AE0
:102540006CD1617A4D066D0E032D67DAD54A6901AB
:10255000891803918968002901D0B9425ED1E07AD7
:10256000A17A000208430B21890179180028029101
:1025700003D12800FFF790FF49E082216943CA4850
:102580000E186079217902020A433000921D210061
:1025900008301AF3C6EAF17BB27B080210437D23B0
:1025A000DB0058430090C1170191082230006946B2
:1025B0001AF3B6EA039820211AF34EEB0398BB49AD
:1025C000876001200A88A84010430880607AC0090B
:1025D0001DD0F07BB17B0002084318D0F8680121C0
:1025E00009040843F860F07BB27B010202981143B2
:1025F000846BE01DF93000691AF3E2EFE034E18BFF
:10260000AB4A0004000C914200D00818E083029805
:10261000806BE030C18BA5488160002005B0F0BD23
:10262000F8B506009F4F0024822161439E48081898
:10263000C17B827B0802104307D06001C519A868DE
:10264000B04202D10FF338FB03C5641C032CEBDB53
:10265000F8BD032010B5FFF71FFF9248002160303E
:102660000A000B000EC00EC0080090494860886048
:10267000C86010BDF0B5002089B0040007900FF3CA
:102680001BFB0E00069082216143874808180890C2
:10269000C27B817B1002084345D0824861010D183E
:1026A0002A6806986B683100801A994106D32A6817
:1026B00006986B683100801A994106E028686968BD
:1026C000069AC043C943801871417D220023D2007D
:1026D0001AF304E8049006980F0041C508220899EF
:1026E00002A81AF31EEA02A807C83B00121A8B417F
:1026F00010D20899082202A81AF312EA02A807C801
:10270000801AB941019100900898082269461AF38D
:1027100008EA08E00898082266A11AF302EA079876
:10272000012108430790641C032CACD3079809B01F
:10273000F0BDF3B581B08E1C0A2700245948610111
:10274000081881680198814217D182216143564857
:102750000D18687B297B02020A432900121D0A31E9
:1027600030001AF3DEE9687B297B00020843361D3E
:1027700086193F1DC01907043F0C641C032CDDDBC8
:102780003800FEBDF8B5420182234649584354182B
:102790004549A6684018407CC0094042304256D0A6
:1027A0000B2080013518A86B414AFF30401C01887E
:1027B00091424CD02269A169914235D8E1686069A3
:1027C00088423AD90FF378FAAB6B384FFF335B1C72
:1027D0001A88521C1204120C1A80AB6B7A609C4649
:1027E000FF335B1C002A28D0344F1A6957436246D6
:1027F000FF3209320CCA801A994100233A1A8B41E0
:102800001BD22A490122C8680223401CC860A86B59
:102810000021FF30C943401C01803100FF3172317B
:10282000300017F023F908E0002101800FF344FA8B
:10283000AA6BFF32521CD16090606069E060A069B1
:102840002061A86BFF30401C018818484160F8BD2A
:10285000F7B582B00D0014000298410111480F181D
:10286000BE68002D7ED0002C7CD0002E7AD002983D
:10287000FFF788FFFF21124800222D311AF3D8FEFE
:102880000028206008D1FF210E4800222D311AF3C4
:10289000CFFE0028206065D0687AC0099217CC4628
:1028A00001000000D8270000000400009E612D7187
:1028B000786913D114E00000A83401C0203301C0AE
:1028C000A4EF00C0FFFF00000000000000000000B7
:1028D00040420F0068000004F8000004401C7861CA
:1028E0000299944A8900505020684661216802206C
:1028F000087321681C20088120685A217C304172AD
:102900002168AC20088124681221AC3420001AF31D
:10291000D8E9142027180190B07A2070F07A2100AD
:102920006070083100201AF358EA0020A073A071EB
:10293000E07101982071000A6071E87AA97A0002BA
:102940000843010AA0700E28E1700CD2E87AA97A37
:10295000000208430E21091AC0191AF3B2E90E2029
:10296000A0700020E070300022F08EFC002800D023
:10297000287A2073607B00E02CE040084000F121C1
:1029800008406073E87AA97A02020A4329000C31F0
:102990000C0038001AF3CEE8200018F0C7F9BB2469
:1029A000A40000280BD0687AC00902D00622311991
:1029B00002E006223100A23138001AF3BCE82800F8
:1029C000123018F0B3F9002804D006223119B81DCE
:1029D0001AF3B0E82CE6FEB50027574E3C000297EC
:1029E000822060438519E87BA97B0002084322D03E
:1029F0000822290068461AF39EE801990098794058
:102A0000084318D18220604302AA811908312000AE
:102A1000FFF728FFE87BA97B00027D230843DB004A
:102A200058430090C11701910822280069461AF303
:102A300082E80298FEBD641C032CD1D30020FEBDA9
:102A40003E48008870473D4A010012880020002A55
:102A500005D0002903D0C968C90400D501207047FA
:102A600070B500281BD0334C0C34002918D12168D4
:102A70000022491C21600B2189014418A06BFF3002
:102A8000401C02800FF322F9A26BFF32521CD1606E
:102A90009060A06B2949FF30401C0088486070BDE1
:102AA000244D0021603D4B015B199E6886420BD18D
:102AB0009E69761C002A9E6103D063685B1C63607C
:102AC00002E0A3685B1CA360491C0329EBDB70BD1B
:102AD000F8B5002406000B20012780013018009073
:102AE00014486101603808188068B0421CD1822007
:102AF000604311494018417CC90915D0C17B807BD6
:102B00000027090201430FD00098856BE81DF930BA
:102B100000691AF360EDE035E98B094A0004000C06
:102B2000914200D00818E883641C032CD8DB3800DD
:102B3000F8BD0000083501C0203301C0A4EF00C07B
:102B4000FFFF000070B50500002422F0B5FA060072
:102B5000280009F0D6FD2B7A1AF308EA07050F05BD
:102B6000051818141800697A022902D13400643457
:102B700013E0002911D004680FE003200002281898
:102B800084680AE06120C0002C1806E01FF0B0F94C
:102B9000FF48FDF725FB24F0BEED200070BD70B5A9
:102BA0000500002409F0ADFD297A002908D001298B
:102BB00008D003290CD1697A032901D001290FD14A
:102BC00044680DE00320000228188468183407E0E8
:102BD0001FF08EF9EE48401CFDF702FB24F09AED41
:102BE000200070BD70B50500002409F08AFD297A27
:102BF000002908D0012908D003290CD1697A0329BA
:102C000001D001290FD1C4680DE00320000228186B
:102C10008468253407E01FF06BF9DD48801CFDF760
:102C2000DFFA24F078ED200070BD017A012905D18A
:102C300003210902401880683530704761307047C1
:102C400070B50400FFF77EFF0500200022F034FA83
:102C5000617A022904D1132149014018807B0CE0DC
:102C600003F078FA0B21890161180128886B02D1E1
:102C70002030807D01E02030007DC006C10F08D0EB
:102C80002000290061300DF3CDFE002801D0012085
:102C900070BD002070BD70B504000D0022F00CFA6C
:102CA000617A022904D1132149014018599B8608F1
:102CB00001000000D42B0000000400006A0E58C57B
:102CC000807B12E0207A062802D16320005D0CE0B0
:102CD00003F04AFA0B21890161180128886B02D19F
:102CE0002030807D01E02030007D81064006C30F4A
:102CF000CA0F2000290061300DF3ACFE70BD10B585
:102D00000400407A022802D0207A062805D120004B
:102D1000FFF722FFC07840070DE003F025FA0B21F2
:102D2000890161180128886B02D12030807D01E083
:102D30002030007D8007C00F10BD603040798007D3
:102D4000800F7047C0684006C00F70470100C96817
:102D500000204A0602D5090600D501207047F7B5C4
:102D600084B0002406000F00FFF7F6FE05003000D7
:102D7000FFF71FFF03903000FFF73EFF0200300017
:102D8000FFF75DFF0300F0684006C00F0AD003980C
:102D900000216E4607C61A00069938002B000DF375
:102DA00070FE0400200007B0F0BD08B50168836A1A
:102DB00001290AD10022026001007B4A180000921A
:102DC0007A4A7B4B1C310DF3D3FE08BDF8B50D00DC
:102DD000FF21040017002D3103F0C1FA00282860FC
:102DE00011D0018922004618A232BB21890000922D
:102DF0003A0061180D2303F007FB032020363070E2
:102E00002968AC200881F8BDF7B5FF210500060050
:102E1000FF3672362D3182B003F0A1FA04001BD0C8
:102E200020892A00A232BB212718890000922000A5
:102E3000320069180D2303F0E7FA042020373870B8
:102E4000AC202081049A039920000EF3EBF92000B6
:102E500003F031FB05B0F0BD0020C043FAE7FFB539
:102E600087B01C00060000200690524840680028E9
:102E700002D0504817F3E2FC4E4F0898183700284C
:102E800030D12079E178000208432BD1307A012833
:102E900004D0717A022901D0062807D16079002276
:102EA0008006010F30000AF0A4FC05E0607980067E
:102EB000010F30000BF03CF9050060796B46187586
:102EC000A0795875384ABB20800003923749099A87
:102ED00030180291019000927A89059B29003000F8
:102EE0000DF3B8FF300024F030EC05006079C32109
:102EF0000840397A23008906090F89000843607168
:102F0000069A0092099A089928000DF374FF280088
:102F100024F01EEC0BB0F0BD7CB504001EF0F2FFF7
:102F20002549050048686B46401C4860E079987068
:102F3000207AD870A07A617A000208439880E0680D
:102F4000631C0122694624F008EC28001EF0DEFF15
:102F50007CBD7FB504001EF0D5FF0500164A210098
:102F600001A80EF349F9002807D001220092206938
:102F7000621C022101ABFFF772FF28001EF0C6FFA2
:102F80007FBDF8B50D000124417A022922D10B2121
:102F900089014118896A01291CD122F0BEF8060076
:102FA00028000BE003000100BF2C0000C8800200D5
:102FB00028810200106102C0181D01C01AF3D2FF5F
:102FC0007D21895D00910100009804F06FFB0028CD
:102FD00000D000242000F8BDFEB50400401C22F003
:102FE000EEF80500FF4F57D0E8684006C00F53D0F9
:102FF000207A8006010F2800FFF7C3FF00284BD07E
:10300000207A8006010F0191687A032801D00128F7
:103010000BD1280022F04EF9217A0600C32001408E
:103020003007800E0143217200E00E00EE493200AD
:1030300020000DF3B1FF411C46D0621C280002A9FC
:10304000FFF7C4FE0298002826D0287A012804D071
:10305000697A022901D0062805D100223100280012
:103060000AF0C7FB03E0310028000BF061F8010013
:10307000029822000DF368FF207AC32108400199CD
:103080000907890E08432072D848E1790170029837
:1030900003F011FA401C01D1380013E0D4480E228D
:1030A000210019F352EDD2480561183817F356FB89
:1030B000CF4864220092CF4ACD4B01214DEA0C400B
:1030C00001000000D02F00000004000039D48BA9BB
:1030D000183817F38CFB0120411C16D1617B227B31
:1030E00009021143E181E17AA27A090211432173B5
:1030F000090A6173217AA172617AE17201210022C9
:10310000217262722170BE490A70FEBD7CB5040056
:10311000401C22F05EF8B84E050012D0E868400668
:10312000C00F0ED0621C280001A9FFF759FE0198BC
:10313000002806D021000DF353FF019803F0C5F9D4
:103140000600701C02D1012020700CE0607A217A08
:103150000002084307D1AD4A0092AD4A00212B007E
:1031600020000EF388F830007CBDFEB50400401C42
:1031700022F02FF8A04E050003D0E8684006C00FEB
:1031800001D13000FEBD687A032801D001280AD1A0
:10319000207A0109280022F097F8217A0907090FFF
:1031A000000101432172E0796B461872207A58724F
:1031B00002980190A07A617A07020F43621C2800EE
:1031C0006946FFF70DFE0098002801D1300006E0A7
:1031D00001993A000DF35DFD009803F076F9411C6A
:1031E00002D101212170FEBD0028FCD185480B22AF
:1031F00021002C3019F3B2EC82482C30C56018380D
:1032000017F3B6FA7F486422143003000092814A13
:103210000121183317F3EBFA0120FEBD70B50B0046
:103220004A780D7811020B2292018018806B0024DD
:1032300029435430012902D10422991C02E00100E3
:103240000422981C19F38AEC200070BD10B5FFF71A
:10325000E5FD002800D1012010BDF7B582B00500C2
:103260000E004F6B8C6BFFF781FCE9684906C90FB4
:103270000BD0297A012909D1674A2B0000926748AF
:10328000049AA23331000DF3F1FEEDE5697A0329CA
:1032900001D00129F9D1002CF7D0002FF5D0017908
:1032A0004A07D30F22795207D20F934204D0FB234F
:1032B00019409200114301710179CA06D30F227996
:1032C000D206D20F934204D0EF23194012011143CA
:1032D0000171C1780A07D30FE2781207D20F934227
:1032E00004D0F7231940D2001143C170017922792B
:1032F0008B0792079B0F920F934203D08908890096
:10330000114301712800FFF7AFFC020000212800E3
:1033100015F0E1FCA8E570B50400C8798A790502CA
:103320000B20800115432018826B8B782032012DF1
:1033300002D0022D1FD109E01375CB785375806B35
:103340000A79203002764979417608E09375CB7886
:10335000D375806B0A79203082764979C176200056
:1033600015F0ECF82000FFF77FFC020000212000A0
:1033700015F0B1FC70BD1375CB785375826B0B796A
:10338000203213764B795376826B8B782032DDE7CF
:1033900010B5CA798C7913020B2292018218906BB6
:1033A00023432030022B0AD1837D8B70C07DC870EF
:1033B000906B2030827E0A71C07E487110BD037D03
:1033C0008B70407DC870906B2030027E0A71407E09
:1033D000F3E7F8B505000E0000240D4B3100200086
:1033E0006A460CF36BFE01281DD121003000FEF768
:1033F00091FE0022210013E0FFFFFFFFC8800200C2
:10340000181D01C0286102C0672E0000BF2C0000FB
:10341000288102002D2E0000404B4C003A5C000435
:1034200030000DF3EEFBF94A310020000CF375FE7D
:10343000012809D1220031002800FEF709FE0122EF
:10344000210030000DF3DDFB641C2406240E082C43
:10345000C3D3F8BD38B50400FFF788FB0500E0686A
:10346000C02188430022E060E94811001300009267
:103470000DF339FE207A01280AD100220320000230
:103480002018009280681100353013000DF32BFED8
:10349000E04A20000092E04A2900613000230DF349
:1034A00022FE2100FF3172312000FFF792FF00223F
:1034B0001100200015F00FFC38BD002110B58186E9
:1034C0000187C1864187010020310A7DF9824DA61E
:1034D00001000000CC330000000400008611AE1A89
:1034E00020231A430A758A7D3C301A4342231A432B
:1034F0008A75182119F3D8EB10BDF8B50E000189B3
:1035000045690918CC6D2700203738000DF355FEAA
:10351000002813D0C34AA31D483200921C002A0081
:10352000390030000DF30CFE0006000E05D023001C
:1035300032003900280024F024E9F8BD38000DF3EA
:1035400046FE0028F9D0287A0228F6D03200390049
:10355000280024F01AE9F8BDFFB583B014000398E1
:1035600021F0C8FD8F2189004018029000200190B1
:103570006078217800020843052864D9401F0406BA
:103580000498240E401D00900398C17A007A08F038
:1035900069FD21F0D6FD092686570700007A083715
:1035A00080063500800F0B2101280BD1F21E012A65
:1035B00000DDF01E050608002D16F11D0B290FDA9F
:1035C000F01D0DE0032839D10120F21F012A00DD92
:1035D000F01F050608002D16F11C0B2900DAF01C5F
:1035E000060636162AE00098220049210CF016FD46
:1035F000010028D04A78901C0006000E8446002066
:10360000521E96460EE00B18DA78AA4207DBB24249
:1036100005DC7B78934202D00120019004E0401C3D
:103620000006000E8645EED80098081A221A604659
:10363000101A0406240E604608180090002C02D0D0
:1036400001980028CFD002982030807C80070BD5CD
:10365000049800794007800F02D10198012803D116
:103660000398002124F094E8049809210079084285
:103670000BD048206B4618700120587000209870BD
:10368000039803226946FFF7D3FB012007B0F0BD82
:10369000FEB50500160048780C0001270C360028FE
:1036A0000CD001282FD0022842D1E868C00440D5B0
:1036B0002200310028000DF36CFB3AE0E868400678
:1036C000C00F0BD020F03AFE002816D00B2080014E
:1036D0002818806B4030007DC0070ED032002800D3
:1036E0006946FFF787FB0098002822D021000DF3E0
:1036F000EFFA009802F0F3FE1BE02A0021003000F0
:103700000DF303FB15E01EF011FC01904748A17872
:10371000401E0278914207D100210170230032003F
:1037200028000091FFF7AFFB01981EF003FC00E0BA
:1037300000273800FEBDF8B501250700384E0024EB
:103740002D03FF377237182060438119305C0A005F
:103750000A3200280BD01088A84208D0091D062282
:1037600038001EF007F9002801D10120F8BD641CC3
:10377000042CE8D30020F8BDFEB504000D00407A0B
:1037800002280CD1200004F03EF8002807D0FF20CA
:103790007930015B0122200023F0FEEFFEBD1821ED
:1037A00069431F4802AA0D1868892F000D37019040
:1037B000781E00900821200002F004FE0600EDD0E3
:1037C00002980421C06D0170002141702030042155
:1037D000040019F394EA20780421084320706078EB
:1037E00001076878090F000101436170E078A17852
:1037F0000002084301990007000F09010843A07067
:10380000000AE0700A49300010F0B6FA0028C5D06E
:103810003878401C3870009801210170FEBD00000E
:10382000C8800200F46002C0445E02C0191D01C0DD
:1038300002100000F8B505001EF078FB144E0700DA
:1038400000241820604381190A00305C0C32931E5A
:10385000002815D01078002812D1188801221203F0
:1038600090420DD02800FF30091D062272301EF054
:1038700081F8002804D12106090E2800FFF77CFFFB
:10388000641C042CDDD338001EF054FBF8BD00008E
:10389000C880020010B5FA4C606B002805D123F0F7
:1038A00080EF002801D001206063606B10BD10B56F
:1038B00023F07AEFF2490020486310BD30B50020B4
:1038C000F04D0D21040003008901691814E0E86837
:1038D000401CE8601000526B8A62002A3DFFE6AC93
:1038E00001000000C837000000040000D5CB7D7641
:1038F00000D1CB620279052A0BD12A69521C2A61B8
:103900008362036003710020002C02D18A6A002ABE
:10391000E7D130BD10B50A68DF4B002A03D1186823
:10392000401C186010BD8A6A824203D05868401C4F
:10393000586010BDD7480024026A002A0FD08A427E
:1039400010D09A68521C9A6004220A71C26A002A36
:1039500001D0516300E08162C1624C6310BD01225D
:1039600001620A71006A07228462CC484021006823
:103970001FF0BCF810BD10B50A68002A10D0C54A67
:10398000936B83420CD1106A002809D0884207D17A
:1039900000209063C1480722006880211FF0A6F82C
:1039A00010BDF0B5050085B000F0C4FB002000F0AC
:1039B000CFFB04007ED0286B2063B6480490416A98
:1039C000491C4162216000F0BDFB0EF3A7F9039191
:1039D0000290206800272E0039002036002803D1ED
:1039E000049A01205062206000232371307A6071B4
:1039F000A079717A800889078000890F0843F32134
:103A0000A0710840B17A8907090F0843CF21A0713E
:103A10000840F17A8907890E0843A071696928690D
:103A2000594008430DD02A6902986B690399121A0C
:103A30008B410AD3029A2869039B6969801A9941CC
:103A400002E0A869002800D00700029A039B002129
:103A5000B8185941E160A060E8692061286A606196
:103A6000686AA0612868E06168682062A86860628E
:103A700020002030417B327B490892074900D20F59
:103A80001143FD2241731140327B5207D20F520085
:103A90001143FB2241731140327BD206D20F9200B8
:103AA0001143417302218173317B090701D506213E
:103AB000817300E012E0327B0121D20700D10221A4
:103AC0000173827B23000092754828333A0021005D
:103AD00008F3ECF8002806D1206001E000F032FB8A
:103AE000002005B0F0BD2068FBE7F8B505250E0005
:103AF00000F02EFB04006748016AA14216D1A06ABB
:103B0000002803D008F335F90020A062002E66617A
:103B10000CD000222300009261482833320021009B
:103B200008F3C4F80325002800D104252800F8BDB7
:103B300070B5052500F00CFB04005648016AA1424F
:103B400007D1A06A002804D008F313F90020032548
:103B5000A062280070BDF8B50F00052600F0F8FA45
:103B60004C4C0500216A814215D1A06B002803D07E
:103B700008F3FFF80020A063002F0CD0454B002273
:103B80000092484838333A00290008F38FF803269A
:103B9000002800D104263000F8BD70B5052500F0DE
:103BA000D7FA3C4C216A814207D1A06B002803D090
:103BB00008F3DFF80020A0630325280070BD38B5A6
:103BC0000120FDF75FFC334C2C20236AC15C5A6A4C
:103BD0001868DB699847206A006B02F005FA00F06C
:103BE000A9FA1EF0ADF9216A05000020086000F076
:103BF000A9FAFFF76DFE206228001EF0A5F9216AE0
:103C0000002909D02E20425C0B000092264A24484D
:103C1000283308F34BF801E0FFF753FE032038BDCB
:103C2000F8B50600072021F07FFA1A4F05004CE096
:103C3000386A006BA84204D0280023F0C4ED0028A5
:103C40003ED13400162E10D1280023F0C0ED0028FC
:103C500031D0687A02282ED1386A2030407B400764
:103C600001D52A2427E0282425E0192E03D01A2E76
:103C700001D0182E1FD10B2080012818806B817B6A
:103C8000002901D02C2416E0C07B00280ED0292466
:103C900011E00000803801C0403501C004F600C0CA
:103CA000ED3700004F380000A0860100386A006B35
:103CB000A84200D0182422000021280002F06DFC48
:103CC0000721280008F082F90500002DB0D1F8BDC9
:103CD000F8B505250F0000F03BFA040064D0A06A97
:103CE0000026002802D008F344F8A6622B94C86886
:103CF00001000000C43B00000004000021A408C231
:103D0000FA4D286AA04257D100F01EFA2079022805
:103D100001D003281ED1267100F01EFA286A203037
:103D2000072F077308D0082F0BD11A20FFF782FF47
:103D3000272006F0B4FE40E01920FFF77BFF262085
:103D4000F7E7286A006B23F050ED1820FFF772FFA9
:103D50002520EEE7012801D004282AD100F0FCF943
:103D6000E369626A20680B219847286A006B02F0B9
:103D700045F900F0E9F91EF0EDF82660070026711C
:103D800000F0EAF9FFF7AEFD286238001EF0E6F811
:103D9000296A002909D02E20425C0B000092D44AE7
:103DA000D448283307F38CFF01E0FFF794FD03208C
:103DB000F8BD00F0D1F900E0266003252800F8BD29
:103DC00070B5040004251EF0C5F80600C748006A57
:103DD000A04219D0217920680325042906D10521A4
:103DE0002171E369626A0B2198470DE0A06A07F32D
:103DF000CAFF012808D1E369626A20680B2198474D
:103E00000021A1622160217130001EF0A7F8280076
:103E100070BD70B50500042400F096F9280000F08C
:103E2000A1F9002802D0FFF7CBFF040000F094F9BD
:103E3000200070BDF8B505000E0000F085F9AE4F0A
:103E4000002438206043C019816900290ED0002D5C
:103E500003D04521095C890705D4002E06D04521F1
:103E6000095CC90702D01830FFF7AAFF641C0F2CA9
:103E7000E7D300F071F9F8BD01210020DAE710B5B1
:103E800023F0B6EC002801D1012010BD002010BDA8
:103E900038B523F0B2EC1620FFF7CCFE1520FFF763
:103EA000C9FE924C206A4179002906D0817900919F
:103EB000417900980022FFF7E2FF216A0320087190
:103EC000206A8069002808D00DF332FF256AAA68AD
:103ED000EB68801A9941A9690860216ACB694A6A2E
:103EE000086803219847216A4869002809D08A6A2E
:103EF000002A06D100920B0002007E48283307F307
:103F0000DFFE032038BDF8B507007C4E774D3068E2
:103F100000281ED12C6A23F074EC2C20015DE3698B
:103F2000626A20689847022824D0002F05D0162006
:103F3000FFF780FE0120306005E01720FFF77AFED2
:103F4000242006F0ACFD296A0220087130680028A0
:103F500017D0286A2030407B40070DD5042009F097
:103F600083FA002808D108F081F8040008F08BF8E3
:103F7000844201D00220F8BD00203060232006F0EA
:103F80008EFD0320F8BDF7B586B0040016000025AD
:103F900013002F0003AA04A905A820F07BF8059BB5
:103FA000002B14D06069002802D1306801256061BF
:103FB000039A079901920091220000211E000498A3
:103FC0000B00B0470700002D01D0002060613800D1
:103FD00009B0F0BD70B586B00600002503AA04A99B
:103FE00005A802AB20F056F8059C002C09D0039AD6
:103FF000002101920A000091310004980023A0479B
:104000000500280006B070BD38482030017F491CEB
:1040100001773649096A00290AD00A79032A07D1AB
:10402000427F521C4277CB694A6A086809211847C7
:1040300070472E4810B5006A00280BD02030017B55
:10404000032907D1012101732D480722006840216F
:104050001EF056FD10BD70B50420244C236A002BC1
:1040600024D02C21C95C18680325012909D1FFF748
:1040700025FC002810D001200AE0206A20300573BA
:1040800013E0022913D1FFF719FC002804D0002007
:10409000FFF739FF0328F0D00120FDF749F8184851
:1040A0000722006840211EF02BFD032070BD03296C
:1040B0000ED1186B0B2189014018806B022101F091
:1040C00019FF206A042120300173FFF7E1FEECE7BD
:1040D000062901D1062006E0072913D1002101207D
:1040E000FFF7A8FE0720FFF774FDDEE7803801C068
:1040F000A0860100ED370000403501C05221CDFA05
:1041000001000000C03F000000040000727EDBAE32
:10411000B4EF00C004F600C0082901D10820ECE784
:104120005A6ADB699847CAE71D490420096A0029D1
:1041300007D00A79032A04D1CB694A6A08680521A5
:10414000184770471648006A002800D001207047C1
:104150001348006A002800D0012070471048002151
:1041600010B5006BC9431EF0D9FC10BD0C4810B54A
:10417000006B1EF0DAFC10BD30B50400094D0020C4
:10418000010038224A4352199369A34201D1100019
:104190001830491C002801D10F29F2D330BD00008E
:1041A000803801C0403501C010B5002420290FD04F
:1041B00065290BD1084819F313FB002805D10648DF
:1041C000143019F30DFB002800D00124200010BD8D
:1041D00002488260FAE7000010460004B8EF00C011
:1041E000012210B5FF48042142700170FE480168A9
:1041F000930519430160FD48016811430160FC48C3
:104200000FF32AFF012010BD002010B50FF3FEFEB2
:10421000F449491F487010BD012010B50FF3F6FE98
:10422000F049491F887010BD0020704740420229A4
:1042300000D90221EB4A890023328918ED4A12681D
:10424000012A01D18A5601E000228A561018022262
:104250008A56824203DB03228A56824200DD100026
:10426000000600167047E349DE4A09684042921C86
:10427000012901D1515601E00021515608180221AF
:104280005156814203DB03215156814200DD080073
:10429000000600167047D3490278891C0A7002791B
:1042A0004A70827821310A7082794A7042780A71A4
:1042B00042794A71C2780A72C07948727047C94916
:1042C0000220C043891C0870487021310870487072
:1042D00008714871087248727047002801DD00209B
:1042E00004E06421C943884200DA08004042000625
:1042F00000167047002070477CB56B460024B94E0D
:104300001970F61D5870009801A911F023F80028C3
:104310000BD0A5006B465979705B0FF394FEA8197A
:104320006B46197940880FF38EFE641C012CEADB82
:104330007CBD7CB56B460024AA4E19700B365870B4
:10434000009801A910F0F2FF00280BD0A5006B46E1
:104350005979705B0FF377FEA8196B46197940887D
:104360000FF371FE641C012CEADB7CBD7CB56B464F
:1043700000249C4E19700F365870009801A910F057
:10438000FDFF00280BD0A5006B465979705B0FF339
:104390005AFEA8196B46197940880FF354FE641C25
:1043A000012CEADB7CBD3EB56B460C0019705870E1
:1043B000009801A911F00CF8002803D001A8FFF71C
:1043C0006AFF3EBD2000FFF77AFF3EBD002800B522
:1043D00011D1022A05D1092901D8481C00BD0820A5
:1043E00000BD032A05D1052901D3C81E00BD022046
:1043F00000BD481E00BD022A01D0032A40D1702909
:1044000038D011DC8807800F38D18B10093B18F3A6
:10441000EAED132727292935352B2B353535353549
:104420003535352F2F31350088290DD00EDC7C290C
:1044300022D005DC742901D078291FD1762000BD57
:10444000802919D0842919D1862000BD95290DD045
:1044500099290BD09D2901D0A1290FD19F2000BD02
:10446000262000BD2E2000BD3E2000BD972000BDAF
:10447000662000BD6E2000BD7E2000BD362000BD40
:10448000080000BD10B50400FFF7A0FF002C00D10C
:10449000401C0006000E10BD002804D0012802D0E8
:1044A000554A904205D14F4A921E1070002051701B
:1044B00070470120704710B54A4CA41E2078FF2891
:1044C0001ED0012804D1042170200FF3DBFD03E08E
:1044D000042170200FF3E3FD5F200FF397FD617857
:1044E00040180106090E5F200FF3ADFD60200FF3A9
:1044F0008DFD617840180106090E60200FF3A3FDC1
:1045000010BDF7B582B004000D003C4E8B4D508CB1
:1045100001000000BC43000000040000708703B8E5
:1045200001200490B06A3B490840B062706A3A4981
:104530000843706210F048F90190802102200FF3C7
:10454000ABFD01200AF0F0FF802102200FF3B1FD46
:1045500001200AF0E9FF290020000FF0FBFF2948A5
:104560000FF384FD2F063F0E04993A0020000FF050
:104570006DFF002C0CD10E2D01D1284806E010F063
:1045800066FC012801D1264800E026480FF36EFDA5
:10459000FFF79BFF019810F01EF9049A21002800F4
:1045A000FFF7EEFE049A21002800FFF7CCFE049AE4
:1045B00021002800FFF7AAFE049A21002800FFF737
:1045C000FCFE706A1449C943084070620BF000F8A1
:1045D00004992A0020000EF0C5FF0BF034F82000EB
:1045E0000BF06DFA0AF0F4FF049A39002000FFF78F
:1045F00053FF0600200017E0CDEF00C080210080AF
:10460000002D00801C1F01C000000004FFFF0000FF
:1046100000A80080FCFDFFFFC0000080142001C046
:104620000C2001C0102001C00AF047FE0700010065
:1046300020000FF045FF390020000EF0B7FF0221E7
:1046400007200DF3CFF80FF051FF002F04D01021F9
:1046500007200DF3C7F803E0102107200DF3B7F88A
:10466000310020000EF0AAFF04992A0020000EF06D
:10467000F2FE0EF0CCFE0FF04BFF254E002F1FD0A8
:1046800024480068002817DB07200DF367F880092D
:10469000012803D1F069401CF0610AE0022803D12F
:1046A000306A401C306204E0032802D1706A401C6A
:1046B0007062B069401CB061022107200DF387F8D9
:1046C0000AF0C1FF144F002C01D1144800E0144837
:1046D00038613078A0420FD0200034700AF092FE8A
:1046E00020000FF01FFC20000FF032FC012803D146
:1046F000290020000FF048FC386908210843386180
:10470000012005B0F0BD0249FF200870704700008D
:10471000C8EF00C0002B0080C0A2008008A80000E5
:104720000868000070B5FF4D6969FF484165FF49A1
:1047300009688165FE4800248461FCF728FC10208C
:10474000FCF70BFCE80CFCF708FC2C6070BD10B506
:10475000F54C0200616B206B18F34AEC7D22D2000D
:1047600018F346ECE36AA26A18F308E810BDF8B53E
:104770007D220700EC4CD200616B206B18F338EC03
:1047800005000E00E16AA06A3A0018F332EC33002B
:104790002A0017F3F4EFF8BD10B5E34C0200616B8B
:1047A000206B18F326EC7D22D20418F322ECE36A86
:1047B000A26A17F3E4EF10BD10B5040009F06FFD15
:1047C00021001DF0C6E9DB4A002317F3D8EF10BD26
:1047D00070B50400D44D01206872D7480168820C7E
:1047E000114301600AF0F1FFD4494000085A6423E4
:1047F0005843A8616043FCF78DFB70BD10B50124E0
:10480000FCF77DFB200010BDC7480079704770B5EC
:10481000FCF78AFB0600FCF796FBC34C00252663D9
:104820006563A169E5624143C348A1620168820CE6
:10483000914301602079002804D10120FFF7ACFFEB
:10484000FCF776FB657270BD70B5B74C2069FFF759
:104850007EFF618918F304EFE0610500B848A169A3
:1048600018F3FEEE0100A84201D8E06901E008005B
:10487000E1617D21C90018F3F4EE206270BD0A20C9
:1048800010B5FFF7A5FFFFF7B9FF040010D0FFF741
:10489000BEFFFFF7D9FFA448016A08000A2907D91B
:1048A000FFF796FFFCF72BFBFFF7B1FFFFF7CCFFFD
:1048B000200010BD70B504009B4D012068729E4819
:1048C0000168820C114301600AF07FFF9B494000A0
:1048D000085A64214143002CA96102D008006043BA
:1048E00005E0E86948437D21C90018F3BAEEFCF7FA
:1048F00011FB70BD8C490A6A824206D84A7A002AA6
:1049000003D14979002900D1D4E77047F3B583B0CA
:10491000002785490D006B6B2A6B39003B2F69B26C
:1049200001000000B847000000040000235DD0D45F
:1049300018F35CEC02900C00E96AA86A049A18F378
:1049400062EB05000E00062218F35CEB3B0005222B
:1049500017F31EEF0191AA0FB10011430090A800B8
:104960003B00052217F314EF029A2300121A8B4121
:104970001AD3684607C8801AA14115D3072231000F
:10498000280018F340EB029A801861416B4C4A07EB
:10499000C0081043636B226BC90817F3FAEEE1629B
:1049A000A06204986763206305B0F0BD70B5634CE6
:1049B0006079002811D1FCF7ACFAFCF7BFFA0500CA
:1049C000FCF7CBFA614A01001068930C9843106021
:1049D000A06948432900FFF7A3FF2079002804D1EC
:1049E0000120FFF7E3FEFCF7ADFA0020607270BD16
:1049F00070B5FF24514D5A342B68C31A1B1BFF3B63
:104A0000FF3B1B1F002B04DC5349886A401C886253
:104A100003E0814201D8824201D2002070BD18001B
:104A2000FFF7AFFE06002000FFF7D0FE0400286865
:104A3000FFF7A7FE8219230000213000FCF7EAFAF5
:104A40002879002806D12868FFF79BFE0004000C97
:104A5000FCF757FA012070BDF8B505006846FCF771
:104A600094FB3E4800990068814201D0FCF772FB3C
:104A70003B4800990068814201D0FCF76BFB394C40
:104A8000394E2078FF280AD105F051FF002806D0C2
:104A9000002D04D0306822000D21FCF76DFB009939
:104AA0003068814201D0FCF755FB3048009900681E
:104AB000814201D0FCF74EFBF8BD284838B50068AC
:104AC000FCF74EFB26480068FCF74AFB264D286899
:104AD000FCF746FB25480068FCF742FB214C217897
:104AE000FF2905D028686A46FCF746FBFF202070A6
:104AF00038BD1C4810B560380078C00705D00AF0F2
:104B000071FD0EF039FB0AF0A8FD10BDF8B50AF0F2
:104B1000EFFF114E00257560FFF7CFFF084880308A
:104B2000016B0822114301630E48114F6038007871
:104B3000044CC0073DD01DE000A50080C03801C076
:104B40008022008040A6008040420F0000210080AB
:104B5000307A0200002D310100F000C0347C0200E8
:104B6000847C0200965C000400F600C0ECF100C0FA
:104B7000EFFFFFFF1DF00CFA009020690B21884326
:104B800020612069F16808432061A561FCF709FAFA
:104B9000FCF77BFAFF48C760FF4801680822114311
:104BA0000160FE4908681043086000981DF0F4F9A0
:104BB00006E0A561FCF7F5F9FCF767FAF548C76070
:104BC0000DF3FBF9F648F749406D48612069102163
:104BD0008843206105F0A6FE002800D0022020F0C6
:104BE0000BFB04000DD0200008F07EFC002801D053
:104BF000042100E005210B2080012018806B01F0CA
:104C000097F907F33EF9F8BDE34810B5C0380169DC
:104C10000B22914301610169E34A926811430161EA
:104C2000002181610AF0DEFC0EF0A6FA0AF015FD03
:104C3000D94A1068082108431060D84A1068084310
:104C4000106010BDFFB583B004000027D74D05F0FC
:104C500069FE002800D0022020F0CEFA060002D023
:104C6000F068C004C00FFFF7F7FE1DF091F90022B5
:104C70000290CF48009200680822012101AB1DF08C
:104C800051FF0198002817D1CA48002200684A2124
:104C900006F385FC002802D00C9800280CD0C049EF
:104CA000C54B086E496EFF221840F93200231140AF
:104CB0005940584008430AD0B948BF4C016E426E73
:104CC000FF23F93321401A404266016620E0002CA0
:104CD0002AD00DF34BF800900498226863680F0007
:104CE000101A00218B41009A19003B00121A8B41C7
:104CF0000AD2009A20686168801AB941069A05991B
:104D0000FFF776FE002806D1A7488169491C81611A
:104D1000FFF7FCFEE7E0A248626821688030C260CD
:104D2000816000F05FF907009C4A1068803414BE6F
:104D300001000000B44B000000040000D732A56061
:104D4000082188431060994A10688843106097488A
:104D5000C0380169994A04231940D1600169994317
:104D60000161016903221143016143E09348416AF3
:104D7000491C6D1E41623AD10500006A401C286240
:104D800005F0E4FD0028924812D08169816901692B
:104D90000B2291430161864A11680823194311606F
:104DA0000169864AD2681143016107F374F8A4E0EF
:104DB00080698006800F012802D12869401C286183
:104DC000FFF72CFF06F0F4FF794A106808218843AA
:104DD0001060764A1068884310607D48016904229B
:104DE000914301610169032211430161744D012066
:104DF0000AF0AEFB764880698006800F0328B5D1A3
:104E0000002C0DD000F0F8F806990700884202D86F
:104E10000598874204D26948C169491CC16168E0AC
:104E200065484169634A5165022141616948FCF75F
:104E300025F80DF3D4F85C498031086B08229043C3
:104E40000863634801691022114301615B480078DF
:104E5000022801D1022500E04025002C02D000F0FC
:104E6000CBF80700002F01D001200543002E04D00D
:104E70000B2080013018806B00E00020012101F040
:104E800061F80AF07EFDE807C00F01D0FCF78BF84F
:104E9000422005401BD068060AD51020FCF76BF8AD
:104EA0001020FCF774F80420FCF700F9FCF70FF968
:104EB000A8070CD501252D032800FCF75CF8280075
:104EC000FCF76BF80C20FCF7F1F8FCF700F93B4D10
:104ED00001206860002C16D000F08EF806998842F8
:104EE00002D8059988420ED2E869012109044018C8
:104EF000E861FFF715FEFFF706FE02981DF056F871
:104F0000002007B0F0BD0AF00BFEC02009F0A8F9A0
:104F100002981DF04BF80022D2432A480092006804
:104F20000822012101AB1DF007FE0120E9E710B5C1
:104F300005F00CFD002803D020484068002801D06F
:104F4000FFF7EEFD10BDF8B5194A1D481168082697
:104F5000B1431160154A1168B14311601C4C2169BD
:104F6000164D04273940A9602169B943216121699F
:104F70000B2211432161401E33D1FFF74FFE06F093
:104F800017FF20693840A8602069B84320610849AC
:104F90000868B043086005490868B0430860A06924
:104FA0008006800F012817E08022008000A7008083
:104FB00000A30080C03801C000A5008000F000C040
:104FC00088130000B01E01C080EF00C0180004006C
:104FD00040A600801000100002D16869401C686182
:104FE0000E48A1698906890F0329C0D1F8BD0120A7
:104FF00070470B48407A704710B5FCF744F804003E
:10500000FCF70DF8201A05D50649C86A401CC8628D
:10501000002010BDFFF7AFFB10BD0000881300009B
:10502000C03801C000F000C0704710B50124032053
:105030000DF31FF9FF49096B0205090C0B05120D51
:105040001B0D9A4204D1220310401140884200D126
:105050000024200010BD24214143F74A10B58C18CC
:105060000DF307F9E2690100D204C9040120D20C52
:10507000C90C8A4200D1002010BD10B502E0012009
:10508000FCF77EF80420FFF7E6FF0028F7D102E0E6
:105090000120FCF775F80520FFF7DDFF0028F7D1A8
:1050A00002E00120FCF76CF80620FFF7D4FF00288F
:1050B000F7D1E24C0BE022F0D0EB002804D02068BE
:1050C0000022622106F375FA0120FCF759F803204B
:1050D000FFF7C1FF0028EED110BDD948402110B51F
:1050E00017F31EEE10BDF8B50D0007002420504345
:1050F000D149402244183900280017F376ED2800E2
:105100001FF0C2F82800403017F3B0EE39004031EC
:1051100020220D00009017F368ED29882269A0690C
:105120000D00603D0026521E904207D1E0680A1D26
:10513000824203D90500643D0E1A361D2751409A5C
:1051400001000000B04F00000004000084E8760C6D
:105150000098390020302A006431009017F34EED9A
:10516000002E06D00098616940194968320017F393
:1051700046EDF8BDFFB581B0002405000E00170014
:10518000052018F325FE4188B34A91421BD1010046
:10519000403128603160098840390904090C0AD07F
:1051A0000F229201914206D8643038600498203969
:1051B0000124018007E005200EF36AFE0004000CC4
:1051C00005210DF373F8200005B0F0BD38B50400DB
:1051D0001CF0F2FE05009C48403080699B49000CA1
:1051E000C03148610520694618F309FE00280BD03C
:1051F0004188994A914207D198494180052221006E
:10520000FFF77BFF012400E0002428001CF0D8FEFB
:10521000200038BD38B504008B48403000698B4908
:10522000000C803108630420694618F3E8FD00286B
:1052300012D04021095A8A4A6039914207D9200088
:10524000403017F31EEE0021C943018003E0042221
:105250002100FFF752FF012038BD38B504007A481D
:105260004030006A7949000CC031886306206946E5
:1052700018F3C5FD00280BD0010040310A88682AC8
:1052800001D968220A8006222100FFF736FF01209B
:1052900038BD6E49F0B56C310A006B486C32006B5A
:1052A000040C08001430C46067484030006A2705C9
:1052B000030C080054308363CE69012031050500DA
:1052C000090D3F0DB94200D1002501273F03010020
:1052D0003E403C40A64200D00021D269294315053A
:1052E0001E0504002D0D360DB54200D100240C43DF
:1052F0003A403B409A4200D000202043F0BDF8B530
:1053000000210327574A51481060574A51481060FE
:10531000564A37201060564AFF20401C1060554AFC
:10532000102010604948042280300261524A4261D4
:105330003F028761514DC76102224562026200222D
:10534000026301221203C2624B4A4D4ECB005C192C
:105350006260D219491C0129EE50F7D3474BC900AE
:10536000CC1862605E5039490622C0318A61454AD4
:10537000CA6102221E008A62D20120360A62CE620F
:105380004A6200228A63012212033E4B3E4F4A6367
:105390000022D400A5196B60FF335B1C521C012A4C
:1053A0003751F6D3354CD200203415196B60364B8B
:1053B000A350052242632200283282630222530254
:1053C0004A6025009F00C363103D0F618D6000227D
:1053D0000B604A6122002D4E28320021CB005C195F
:1053E00062600124A4021219491C0129EE50F5D370
:1053F000224BC9001033CC1862605E50134903225F
:10540000CA66234A0A673722CA67FF22521C8F677F
:105410004A67204D002187601D4E05600C00C16069
:105420000421300017F3B0ECE00041194E60FF3664
:105430001549761C641C362C2950F1D30421300008
:1054400017F3A2ECE00027E0C0A300809046000420
:1054500080EF00C040480004EFBE0000BAAB00007F
:105460004C07000048BB02004CBB020050BB0200CE
:1054700054BB020058BB0200007901C0B87001C0E3
:1054800000300080007F01C00010008000400080DC
:10549000001802C0006F01C041194E600F49104A48
:1054A0000024295014600E480E494030C161022387
:1054B00083610B4940394F620A4E103E46610361D9
:1054C0000F622036466203628F6255633720106395
:1054D0000F610CF3A9FA04488460F8BD0000018054
:1054E000C0A30080C87001C0C0A4008099481421E6
:1054F00010B517F320EC10BD70B505000E0001D1FA
:10550000012070BD30898419607A217A0002084335
:1055100001280DD1607B217B00020843032807D1BD
:10552000002D11D0280022F0A6E9002813D001E0B8
:10553000002D03D0E87AA073A87AE073607A217A0C
:105540000002084301280AD10022310064E037A498
:1055500001000000AC530000000400003B2D53BFCD
:10556000042000F0A6F9002803D1300018F3AEF8AB
:10557000D0E7002070BDF8B50D0004001100002632
:105580007A481F00320018F3CBF80028206014D0AE
:105590000221017321682020088120680121203028
:1055A00028600172002141722868390A077341732B
:1055B0002968002088720126C8723000F8BD1CB529
:1055C0000C0003006422694601A8FFF7D4FF0028FD
:1055D0000FD0009800210174002C417405D001996E
:1055E00001234A7B1A434A738C6102218172002194
:1055F000C17201981CBD10B5040008001100FFF72E
:10560000DEFF002803D001002000FFF77FFF10BD60
:105610000022F0E77CB5140005000B006422694607
:1056200001A8FFF7A8FF00280BD00098210A0474F6
:105630004174022181720021C17201992800FFF793
:1056400065FF7CBD7CB5040015000B00FF22913284
:10565000694601A8FFF78FFF002811D000980021AC
:105660000174417406222900123017F3D2EA00991E
:10567000082088720020C87201992000FFF746FFB9
:105680007CBD7CB51C00160005000B00FF2291328A
:10569000694601A8FFF76FFF00280DD0009822008F
:1056A0003100103017F3B4EA0098210A8472C172F5
:1056B00001992800FFF72AFF7CBD7CB514001E006D
:1056C00005000B006422694601A8FFF754FF00287B
:1056D00011D00098210A047441740622310012305E
:1056E00017F396EA0099082088720020C872019981
:1056F0002800FFF70BFF7CBD70B506001089150070
:10570000841800222274200062740622123017F3DB
:1057100080EAE07AA17A000208430830A072000A09
:10572000E07229003000FFF7F1FE70BDFEB51D00EC
:1057300006000F0014000B006422694601A8FFF761
:105740001AFF00280ED0742F0CD10098E5210174A7
:1057500044740321857481720021C1720199300063
:10576000FFF7D4FEFEBD0000583901C0AC000004B4
:1057700070B50500008944191FF075F800280AD09B
:10578000607B217B000208430B2804D00A2802D04A
:10579000052005F0C0F900222900FF480068FF4BF2
:1057A0001C680223A04770BDFD48011F0860FD482A
:1057B00001214170002101707047F9490020091F43
:1057C0000860F849487008707047F6484178002929
:1057D00001D001210170704770B51CF0F7FB050086
:1057E000F14818F306F8040028001CF0F3FB02252A
:1057F0000DE020002573FFF7BBFF1CF0E7FB060060
:10580000E94817F3F6FF040030001CF0E3FB002C1E
:10581000EFD170BD70B51CF0D9FBE24C050060788B
:10582000002809D0DE4904200856411C04D0811C00
:1058300002D0012105F379F9DC480078012802D172
:10584000142005F054F9002020720420FBF760FEBC
:10585000D748002200680C2105F3BFFEFFF7BCFF0C
:1058600028001CF0B7FB70BD10B5FFF7D3FFCD4982
:10587000002008704870CF49086010BDC948017AFF
:10588000032901D0032101727047FF2800D008408E
:105890007047C94910B509681CF082E97D22D20021
:1058A00017F3CEEB8905800A084301D021F036EFCB
:1058B00010BDF8B50024160005000F0022000029D5
:1058C00001D03889C2191EF089FD00287ED0B54963
:1058D000087A03287BD00228FCD0680726D5002F41
:1058E00024D0507B117B04020C430B2C08D010DC1D
:1058F000032C0BD0082C09D0092C07D00A2C13D16B
:10590000AE48AF490088097808430BD0FF2505262B
:1059100015E0102CFAD0122CF8D04F2C04D1FF2512
:1059200007260CE004208543042608E0062E06D155
:105930009B48001F006817F3AEEAC00554D498488E
:10594000001F006817F3A6EA01002800FFF79DFF7B
:10595000002849D093484030818A0029F9C71A4D60
:1059600001000000A85700000004000068F780D381
:1059700000D18682984E0025002C1AD0308800284D
:105980000DD08C4904200856401C08D1081F00681F
:105990004079FFF788FFFFF771FF358045E01CF085
:1059A0001FFB04008548390017F385FF20001CF019
:1059B0001BFB804C0420241F2168022208567E49CC
:1059C0000A72411C04D0811C02D0002105F3B7F8F3
:1059D00020684079FF282BD0FFF765FF308801E071
:1059E0001DE00DE0002823D01EF002FD002803D0AA
:1059F000FFF744FF35801BE0308819E00020F8BD38
:105A0000680715D5002F13D01CF0EAFA04006B4884
:105A1000390017F350FF20001CF0E6FA08E0680791
:105A200006D5002F04D0FFF7E1FE3800FFF7AAFEED
:105A30000120F8BD6048582110B517F390E910BD5A
:105A4000F8B500200D005C4F1600B88232E068788F
:105A5000297800020843FF38163821D1E978AA785E
:105A600009021143CC082800E200914218D1121D0E
:105A700011040914B14213DC0821082C00D22100C2
:105A8000CA00011D4C48143017F3CCE806E0E000D2
:105A9000C019002114300A0006C0641C082CF6DB73
:105AA000E978AA7808021043311A091F0E04361447
:105AB0002D1D4519042ECADCF8BDFFB50A208BB098
:105AC00000251F0005900B98099540692E0007904E
:105AD0001FF06AFB06900B980B990089441824313B
